{
  "_format": "hh-sol-artifact-1",
  "contractName": "WalletFactory",
  "sourceName": "contracts/WalletFactory.sol",
  "abi": [
    {
      "inputs": [
        {
          "internalType": "address",
          "name": "_entryPoint",
          "type": "address"
        }
      ],
      "stateMutability": "nonpayable",
      "type": "constructor"
    },
    {
      "inputs": [],
      "name": "Create2EmptyBytecode",
      "type": "error"
    },
    {
      "inputs": [],
      "name": "FailedDeployment",
      "type": "error"
    },
    {
      "inputs": [
        {
          "internalType": "uint256",
          "name": "balance",
          "type": "uint256"
        },
        {
          "internalType": "uint256",
          "name": "needed",
          "type": "uint256"
        }
      ],
      "name": "InsufficientBalance",
      "type": "error"
    },
    {
      "anonymous": false,
      "inputs": [
        {
          "indexed": true,
          "internalType": "address",
          "name": "wallet",
          "type": "address"
        },
        {
          "indexed": true,
          "internalType": "address",
          "name": "owner",
          "type": "address"
        },
        {
          "indexed": false,
          "internalType": "uint256",
          "name": "salt",
          "type": "uint256"
        }
      ],
      "name": "WalletCreated",
      "type": "event"
    },
    {
      "inputs": [
        {
          "internalType": "address",
          "name": "owner",
          "type": "address"
        },
        {
          "internalType": "uint256",
          "name": "salt",
          "type": "uint256"
        }
      ],
      "name": "createWallet",
      "outputs": [
        {
          "internalType": "address",
          "name": "wallet",
          "type": "address"
        }
      ],
      "stateMutability": "nonpayable",
      "type": "function"
    },
    {
      "inputs": [],
      "name": "entryPoint",
      "outputs": [
        {
          "internalType": "address",
          "name": "",
          "type": "address"
        }
      ],
      "stateMutability": "view",
      "type": "function"
    },
    {
      "inputs": [
        {
          "internalType": "address",
          "name": "owner",
          "type": "address"
        },
        {
          "internalType": "uint256",
          "name": "salt",
          "type": "uint256"
        }
      ],
      "name": "getWalletAddress",
      "outputs": [
        {
          "internalType": "address",
          "name": "wallet",
          "type": "address"
        }
      ],
      "stateMutability": "view",
      "type": "function"
    },
    {
      "inputs": [
        {
          "internalType": "address",
          "name": "owner",
          "type": "address"
        },
        {
          "internalType": "uint256",
          "name": "salt",
          "type": "uint256"
        }
      ],
      "name": "isWalletDeployed",
      "outputs": [
        {
          "internalType": "bool",
          "name": "",
          "type": "bool"
        }
      ],
      "stateMutability": "view",
      "type": "function"
    }
  ],
  "bytecode": "0x60a060405234801561001057600080fd5b5060405161174b38038061174b83398101604081905261002f916100b3565b6001600160a01b0381166100a25760405162461bcd60e51b815260206004820152603060248201527f57616c6c6574466163746f72793a20456e747279506f696e742063616e6e6f7460448201526f206265207a65726f206164647265737360801b606482015260840160405180910390fd5b6001600160a01b03166080526100e3565b6000602082840312156100c557600080fd5b81516001600160a01b03811681146100dc57600080fd5b9392505050565b60805161164061010b6000396000818160860152818161014a015261027301526116406000f3fe608060405234801561001057600080fd5b506004361061004c5760003560e01c8063ae7fa4a314610051578063b0d691fe14610081578063ccadb74f146100a8578063f247d217146100cb575b600080fd5b61006461005f366004610472565b6100de565b6040516001600160a01b0390911681526020015b60405180910390f35b6100647f000000000000000000000000000000000000000000000000000000000000000081565b6100bb6100b6366004610472565b6101c2565b6040519015158152602001610078565b6100646100d9366004610472565b6101e5565b6040516bffffffffffffffffffffffff19606084901b16602082015260348101829052600090819060540160405160208183030381529060405280519060200120905060006040518060200161013390610465565b601f1982820381018352601f9091011660408181527f00000000000000000000000000000000000000000000000000000000000000006001600160a01b031660208301520160408051601f198184030181529082905261019692916020016104da565b60405160208183030381529060405290506101b982828051906020012030610390565b95945050505050565b6000806101cf84846100de565b6001600160a01b03163b15159150505b92915050565b6040516bffffffffffffffffffffffff19606084901b16602082015260348101829052600090819060540160405160208183030381529060405280519060200120905061023284846100de565b91506001600160a01b0382163b1561024a57506101df565b60006040518060200161025c90610465565b601f1982820381018352601f9091011660408181527f00000000000000000000000000000000000000000000000000000000000000006001600160a01b031660208301520160408051601f19818403018152908290526102bf92916020016104da565b60405160208183030381529060405290506102dc600083836103c3565b60405163f2fde38b60e01b81526001600160a01b0387811660048301529194509084169063f2fde38b90602401600060405180830381600087803b15801561032357600080fd5b505af1158015610337573d6000803e3d6000fd5b50505050846001600160a01b0316836001600160a01b03167f4459976dae5d173eda0ac09c39b840bed814c9d1e490e8b9ba23148e4b19a8378660405161038091815260200190565b60405180910390a3505092915050565b6000604051836040820152846020820152828152600b8101905060ff8153605590206001600160a01b0316949350505050565b6000834710156103f35760405163cf47918160e01b81524760048201526024810185905260440160405180910390fd5b815160000361041557604051631328927760e21b815260040160405180910390fd5b8282516020840186f590503d151981151615610437576040513d6000823e3d81fd5b6001600160a01b03811661045e5760405163b06ebf3d60e01b815260040160405180910390fd5b9392505050565b611113806104f883390190565b6000806040838503121561048557600080fd5b82356001600160a01b038116811461049c57600080fd5b946020939093013593505050565b6000815160005b818110156104cb57602081850181015186830152016104b1565b50600093019283525090919050565b60006104ef6104e983866104aa565b846104aa565b94935050505056fe60a060405234801561001057600080fd5b5060405161111338038061111383398101604081905261002f916100c9565b600160005580338061005b57604051631e4fbdf760e01b81526000600482015260240160405180910390fd5b61006481610077565b506001600160a01b0316608052506100f9565b600180546001600160a01b038381166001600160a01b0319831681179093556040519116919082907f8be0079c531659141344cd1fd0a4f28419497f9722a3daafe3b4186f6b6457e090600090a35050565b6000602082840312156100db57600080fd5b81516001600160a01b03811681146100f257600080fd5b9392505050565b608051610fea610129600039600081816101ff015281816102a30152818161048a01526106780152610fea6000f3fe6080604052600436106100bd5760003560e01c80638da5cb5b11610079578063d087d28811610056578063d087d28814610241578063d0e30db0146100c4578063f2fde38b14610256578063f3fef3a31461027657005b80638da5cb5b146101bb578063b0d691fe146101ed578063b61d27f61461022157005b806301ffc9a7146100c657806312065fe01461010c5780633a871cdd1461012957806347e1da2a146101495780635d00bb1214610176578063715018a6146101a657005b366100c457005b005b3480156100d257600080fd5b506100f76100e1366004610bb7565b6001600160e01b031916631bfc338960e01b1490565b60405190151581526020015b60405180910390f35b34801561011857600080fd5b50475b604051908152602001610103565b34801561013557600080fd5b5061011b610144366004610be1565b610296565b34801561015557600080fd5b50610169610164366004610c81565b61044f565b6040516101039190610d1b565b34801561018257600080fd5b506100f7610191366004610d61565b60009081526002602052604090205460ff1690565b3480156101b257600080fd5b506100c4610629565b3480156101c757600080fd5b506001546001600160a01b03165b6040516001600160a01b039091168152602001610103565b3480156101f957600080fd5b506101d57f000000000000000000000000000000000000000000000000000000000000000081565b34801561022d57600080fd5b506100f761023c366004610d8f565b61063d565b34801561024d57600080fd5b5060035461011b565b34801561026257600080fd5b506100c4610271366004610e18565b6106e1565b34801561028257600080fd5b506100c4610291366004610e35565b61071f565b6000336001600160a01b037f000000000000000000000000000000000000000000000000000000000000000016146102e15760405163bd07c55160e01b815260040160405180910390fd5b6003548460200135146102f657506001610448565b7f19457468657265756d205369676e6564204d6573736167653a0a3332000000006000908152601c849052603c812090610374610337610140880188610e61565b8080601f016020809104026020016040519081016040528093929190818152602001838380828437600092019190915250869392505061080a9050565b90506103886001546001600160a01b031690565b6001600160a01b0316816001600160a01b0316146103ab57600192505050610448565b6020808701356000908152600290915260408120805460ff1916600117905560038054916103d883610ea8565b9091555050831561044157604051600090339086908381818185875af1925050503d8060008114610425576040519150601f19603f3d011682016040523d82523d6000602084013e61042a565b606091505b505090508061043f5760019350505050610448565b505b6000925050505b9392505050565b60606104636001546001600160a01b031690565b6001600160a01b0316336001600160a01b0316141580156104ad5750336001600160a01b037f00000000000000000000000000000000000000000000000000000000000000001614155b156104cb5760405163c5ed84e560e01b815260040160405180910390fd5b6104d3610834565b85841480156104e157508582145b6105245760405162461bcd60e51b815260206004820152600f60248201526e098cadccee8d040dad2e6dac2e8c6d608b1b60448201526064015b60405180910390fd5b8567ffffffffffffffff81111561053d5761053d610ecf565b604051908082528060200260200182016040528015610566578160200160208202803683370190505b50905060005b86811015610614576105e088888381811061058957610589610ee5565b905060200201602081019061059e9190610e18565b8787848181106105b0576105b0610ee5565b905060200201358686858181106105c9576105c9610ee5565b90506020028101906105db9190610e61565b61085e565b8282815181106105f2576105f2610ee5565b911515602092830291909101909101528061060c81610ea8565b91505061056c565b5061061f6001600055565b9695505050505050565b61063161095f565b61063b600061098c565b565b60006106516001546001600160a01b031690565b6001600160a01b0316336001600160a01b03161415801561069b5750336001600160a01b037f00000000000000000000000000000000000000000000000000000000000000001614155b156106b95760405163c5ed84e560e01b815260040160405180910390fd5b6106c1610834565b6106cd8585858561085e565b90506106d96001600055565b949350505050565b6106e961095f565b6001600160a01b03811661071357604051631e4fbdf760e01b81526000600482015260240161051b565b61071c8161098c565b50565b61072761095f565b8047101561076e5760405162461bcd60e51b8152602060048201526014602482015273496e73756666696369656e742062616c616e636560601b604482015260640161051b565b6000826001600160a01b03168260405160006040518083038185875af1925050503d80600081146107bb576040519150601f19603f3d011682016040523d82523d6000602084013e6107c0565b606091505b50509050806108055760405162461bcd60e51b815260206004820152601160248201527015da5d1a191c985dd85b0819985a5b1959607a1b604482015260640161051b565b505050565b60008060008061081a86866109de565b92509250925061082a8282610a2b565b5090949350505050565b60026000540361085757604051633ee5aeb560e01b815260040160405180910390fd5b6002600055565b6000846001600160a01b031684848460405161087b929190610efb565b60006040518083038185875af1925050503d80600081146108b8576040519150601f19603f3d011682016040523d82523d6000602084013e6108bd565b606091505b5090915050801561091257846001600160a01b03167fa4eddc224260496d7ecde75d8d3a59df67d89fca2361daf112c43180cdcba5fe85858560405161090593929190610f34565b60405180910390a26106d9565b846001600160a01b03167fca4afc169457c846a029579ebd2c803a35c9f517b31932c81beaefac29f1554885858560405161094f93929190610f57565b60405180910390a2949350505050565b6001546001600160a01b0316331461063b5760405163118cdaa760e01b815233600482015260240161051b565b600180546001600160a01b038381166001600160a01b0319831681179093556040519116919082907f8be0079c531659141344cd1fd0a4f28419497f9722a3daafe3b4186f6b6457e090600090a35050565b60008060008351604103610a185760208401516040850151606086015160001a610a0a88828585610ae8565b955095509550505050610a24565b50508151600091506002905b9250925092565b6000826003811115610a3f57610a3f610f9e565b03610a48575050565b6001826003811115610a5c57610a5c610f9e565b03610a7a5760405163f645eedf60e01b815260040160405180910390fd5b6002826003811115610a8e57610a8e610f9e565b03610aaf5760405163fce698f760e01b81526004810182905260240161051b565b6003826003811115610ac357610ac3610f9e565b03610ae4576040516335e2f38360e21b81526004810182905260240161051b565b5050565b600080807f7fffffffffffffffffffffffffffffff5d576e7357a4501ddfe92f46681b20a0841115610b235750600091506003905082610bad565b604080516000808252602082018084528a905260ff891692820192909252606081018790526080810186905260019060a0016020604051602081039080840390855afa158015610b77573d6000803e3d6000fd5b5050604051601f1901519150506001600160a01b038116610ba357506000925060019150829050610bad565b9250600091508190505b9450945094915050565b600060208284031215610bc957600080fd5b81356001600160e01b03198116811461044857600080fd5b600080600060608486031215610bf657600080fd5b833567ffffffffffffffff811115610c0d57600080fd5b84016101608187031215610c2057600080fd5b95602085013595506040909401359392505050565b60008083601f840112610c4757600080fd5b50813567ffffffffffffffff811115610c5f57600080fd5b6020830191508360208260051b8501011115610c7a57600080fd5b9250929050565b60008060008060008060608789031215610c9a57600080fd5b863567ffffffffffffffff80821115610cb257600080fd5b610cbe8a838b01610c35565b90985096506020890135915080821115610cd757600080fd5b610ce38a838b01610c35565b90965094506040890135915080821115610cfc57600080fd5b50610d0989828a01610c35565b979a9699509497509295939492505050565b6020808252825182820181905260009190848201906040850190845b81811015610d55578351151583529284019291840191600101610d37565b50909695505050505050565b600060208284031215610d7357600080fd5b5035919050565b6001600160a01b038116811461071c57600080fd5b60008060008060608587031215610da557600080fd5b8435610db081610d7a565b935060208501359250604085013567ffffffffffffffff80821115610dd457600080fd5b818701915087601f830112610de857600080fd5b813581811115610df757600080fd5b886020828501011115610e0957600080fd5b95989497505060200194505050565b600060208284031215610e2a57600080fd5b813561044881610d7a565b60008060408385031215610e4857600080fd5b8235610e5381610d7a565b946020939093013593505050565b6000808335601e19843603018112610e7857600080fd5b83018035915067ffffffffffffffff821115610e9357600080fd5b602001915036819003821315610c7a57600080fd5b600060018201610ec857634e487b7160e01b600052601160045260246000fd5b5060010190565b634e487b7160e01b600052604160045260246000fd5b634e487b7160e01b600052603260045260246000fd5b8183823760009101908152919050565b81835281816020850137506000828201602090810191909152601f909101601f19169091010190565b838152604060208201526000610f4e604083018486610f0b565b95945050505050565b838152606060208201526000610f71606083018486610f0b565b828103604093840152600b81526a10d85b1b0819985a5b195960aa1b602082015291909101949350505050565b634e487b7160e01b600052602160045260246000fdfea2646970667358221220c86666fb17c290ee221ebcc5ec279ad939e53759cca43642fda38f828a23aaa164736f6c63430008140033a26469706673582212204b97a6dc0785b79a7201fbb85b7b7c90b876fd63a168a0cb00e582169d49426064736f6c63430008140033",
  "linkReferences": {},
  "deployedLinkReferences": {}
}