{"contracts/Paymaster.sol":{"Paymaster":{"abi":[{"inputs":[{"internalType":"address","name":"_entryPoint","type":"address"}],"stateMutability":"nonpayable","type":"constructor"},{"inputs":[],"name":"ECDSAInvalidSignature","type":"error"},{"inputs":[{"internalType":"uint256","name":"length","type":"uint256"}],"name":"ECDSAInvalidSignatureLength","type":"error"},{"inputs":[{"internalType":"bytes32","name":"s","type":"bytes32"}],"name":"ECDSAInvalidSignatureS","type":"error"},{"inputs":[],"name":"InvalidSignature","type":"error"},{"inputs":[],"name":"OnlyEntryPoint","type":"error"},{"inputs":[],"name":"OperationAlreadyProcessed","type":"error"},{"inputs":[{"internalType":"address","name":"owner","type":"address"}],"name":"OwnableInvalidOwner","type":"error"},{"inputs":[{"internalType":"address","name":"account","type":"address"}],"name":"OwnableUnauthorizedAccount","type":"error"},{"inputs":[],"name":"PaymasterDisabled","type":"error"},{"inputs":[],"name":"PostOpReverted","type":"error"},{"inputs":[],"name":"ReentrancyGuardReentrantCall","type":"error"},{"inputs":[],"name":"SpendLimitExceeded","type":"error"},{"inputs":[],"name":"UserNotWhitelisted","type":"error"},{"anonymous":false,"inputs":[{"indexed":true,"internalType":"address","name":"previousOwner","type":"address"},{"indexed":true,"internalType":"address","name":"newOwner","type":"address"}],"name":"OwnershipTransferred","type":"event"},{"anonymous":false,"inputs":[{"indexed":false,"internalType":"uint256","name":"newGlobalLimit","type":"uint256"},{"indexed":false,"internalType":"bool","name":"enabled","type":"bool"}],"name":"PaymasterConfigUpdated","type":"event"},{"anonymous":false,"inputs":[{"indexed":true,"internalType":"address","name":"user","type":"address"},{"indexed":false,"internalType":"uint256","name":"newLimit","type":"uint256"}],"name":"UserLimitUpdated","type":"event"},{"anonymous":false,"inputs":[{"indexed":true,"internalType":"bytes32","name":"userOpHash","type":"bytes32"},{"indexed":true,"internalType":"address","name":"sender","type":"address"},{"indexed":false,"internalType":"uint256","name":"actualGasCost","type":"uint256"}],"name":"UserOpSponsored","type":"event"},{"anonymous":false,"inputs":[{"indexed":true,"internalType":"address","name":"user","type":"address"},{"indexed":false,"internalType":"bool","name":"whitelisted","type":"bool"}],"name":"WhitelistUpdated","type":"event"},{"inputs":[],"name":"STAKE_MINIMUM","outputs":[{"internalType":"uint256","name":"","type":"uint256"}],"stateMutability":"view","type":"function"},{"inputs":[],"name":"UNSTAKE_DELAY_SEC","outputs":[{"internalType":"uint256","name":"","type":"uint256"}],"stateMutability":"view","type":"function"},{"inputs":[],"name":"deposit","outputs":[],"stateMutability":"payable","type":"function"},{"inputs":[],"name":"entryPoint","outputs":[{"internalType":"address","name":"","type":"address"}],"stateMutability":"view","type":"function"},{"inputs":[],"name":"getPaymasterStats","outputs":[{"internalType":"uint256","name":"totalLimit","type":"uint256"},{"internalType":"uint256","name":"totalSpentAmount","type":"uint256"},{"internalType":"bool","name":"enabled","type":"bool"}],"stateMutability":"view","type":"function"},{"inputs":[{"internalType":"address","name":"user","type":"address"}],"name":"getUserInfo","outputs":[{"internalType":"uint256","name":"limit","type":"uint256"},{"internalType":"uint256","name":"spent","type":"uint256"},{"internalType":"bool","name":"isWhitelisted","type":"bool"}],"stateMutability":"view","type":"function"},{"inputs":[],"name":"globalSpendLimit","outputs":[{"internalType":"uint256","name":"","type":"uint256"}],"stateMutability":"view","type":"function"},{"inputs":[],"name":"owner","outputs":[{"internalType":"address","name":"","type":"address"}],"stateMutability":"view","type":"function"},{"inputs":[],"name":"paymasterEnabled","outputs":[{"internalType":"bool","name":"","type":"bool"}],"stateMutability":"view","type":"function"},{"inputs":[{"internalType":"enum IPaymaster.PostOpMode","name":"mode","type":"uint8"},{"internalType":"bytes","name":"context","type":"bytes"},{"internalType":"uint256","name":"actualGasCost","type":"uint256"}],"name":"postOp","outputs":[],"stateMutability":"nonpayable","type":"function"},{"inputs":[{"internalType":"bytes32","name":"","type":"bytes32"}],"name":"processedOperations","outputs":[{"internalType":"bool","name":"","type":"bool"}],"stateMutability":"view","type":"function"},{"inputs":[],"name":"renounceOwnership","outputs":[],"stateMutability":"nonpayable","type":"function"},{"inputs":[],"name":"resetSpending","outputs":[],"stateMutability":"nonpayable","type":"function"},{"inputs":[{"internalType":"address","name":"user","type":"address"}],"name":"resetUserSpending","outputs":[],"stateMutability":"nonpayable","type":"function"},{"inputs":[{"internalType":"address","name":"user","type":"address"},{"internalType":"uint256","name":"limit","type":"uint256"}],"name":"setUserSpendLimit","outputs":[],"stateMutability":"nonpayable","type":"function"},{"inputs":[{"internalType":"address","name":"user","type":"address"},{"internalType":"bool","name":"whitelisted","type":"bool"}],"name":"setWhitelist","outputs":[],"stateMutability":"nonpayable","type":"function"},{"inputs":[],"name":"totalSpent","outputs":[{"internalType":"uint256","name":"","type":"uint256"}],"stateMutability":"view","type":"function"},{"inputs":[{"internalType":"address","name":"newOwner","type":"address"}],"name":"transferOwnership","outputs":[],"stateMutability":"nonpayable","type":"function"},{"inputs":[{"internalType":"uint256","name":"newGlobalLimit","type":"uint256"},{"internalType":"bool","name":"enabled","type":"bool"}],"name":"updateConfig","outputs":[],"stateMutability":"nonpayable","type":"function"},{"inputs":[{"internalType":"address","name":"","type":"address"}],"name":"userSpendLimits","outputs":[{"internalType":"uint256","name":"","type":"uint256"}],"stateMutability":"view","type":"function"},{"inputs":[{"internalType":"address","name":"","type":"address"}],"name":"userSpentAmounts","outputs":[{"internalType":"uint256","name":"","type":"uint256"}],"stateMutability":"view","type":"function"},{"inputs":[{"components":[{"internalType":"address","name":"sender","type":"address"},{"internalType":"uint256","name":"nonce","type":"uint256"},{"internalType":"bytes","name":"initCode","type":"bytes"},{"internalType":"bytes","name":"callData","type":"bytes"},{"internalType":"uint256","name":"callGasLimit","type":"uint256"},{"internalType":"uint256","name":"verificationGasLimit","type":"uint256"},{"internalType":"uint256","name":"preVerificationGas","type":"uint256"},{"internalType":"uint256","name":"maxFeePerGas","type":"uint256"},{"internalType":"uint256","name":"maxPriorityFeePerGas","type":"uint256"},{"internalType":"bytes","name":"paymasterAndData","type":"bytes"},{"internalType":"bytes","name":"signature","type":"bytes"}],"internalType":"struct IUserOperation.UserOperation","name":"userOp","type":"tuple"},{"internalType":"bytes32","name":"userOpHash","type":"bytes32"},{"internalType":"uint256","name":"maxCost","type":"uint256"}],"name":"validatePaymasterUserOp","outputs":[{"internalType":"bytes","name":"context","type":"bytes"},{"internalType":"uint256","name":"validationData","type":"uint256"}],"stateMutability":"nonpayable","type":"function"},{"inputs":[{"internalType":"address","name":"","type":"address"}],"name":"whitelist","outputs":[{"internalType":"bool","name":"","type":"bool"}],"stateMutability":"view","type":"function"},{"inputs":[{"internalType":"address payable","name":"to","type":"address"},{"internalType":"uint256","name":"amount","type":"uint256"}],"name":"withdraw","outputs":[],"stateMutability":"nonpayable","type":"function"},{"stateMutability":"payable","type":"receive"}],"evm":{"bytecode":{"linkReferences":{},"object":"60a0604052678ac7230489e800006006556008805460ff1916600117905534801561002957600080fd5b50604051611509380380611509833981016040819052610048916100dd565b338061006e57604051631e4fbdf760e01b81526000600482015260240160405180910390fd5b6100778161008d565b50600180556001600160a01b031660805261010d565b600080546001600160a01b038381166001600160a01b0319831681178455604051919092169283917f8be0079c531659141344cd1fd0a4f28419497f9722a3daafe3b4186f6b6457e09190a35050565b6000602082840312156100ef57600080fd5b81516001600160a01b038116811461010657600080fd5b9392505050565b6080516113d361013660003960008181610396015281816105f001526108d101526113d36000f3fe60806040526004361061014f5760003560e01c8063ac6238fc116100b6578063e3a874701161006f578063e3a8747014610412578063f2fde38b14610442578063f3fef3a314610462578063f434572714610482578063f465c77e14610498578063fb346eab146104c657600080fd5b8063ac6238fc1461036a578063b0d691fe14610384578063b8239b40146103b8578063cd6f0b94146103d4578063d0e30db0146101bb578063d8de4081146103f457600080fd5b80638322408b116101085780638322408b146102745780638b51ad5d146102945780638da5cb5b146102ab5780639b19251a146102dd578063a1898d231461031d578063a9a234091461034a57600080fd5b8063149317a11461015b578063416cd44d1461019b57806353d6fd59146101bd5780636386c1c7146101dd5780636c8827981461024a578063715018a61461025f57600080fd5b3661015657005b600080fd5b34801561016757600080fd5b50610188610176366004611075565b60046020526000908152604090205481565b6040519081526020015b60405180910390f35b3480156101a757600080fd5b506101bb6101b6366004611075565b6104dc565b005b3480156101c957600080fd5b506101bb6101d83660046110ae565b6104fe565b3480156101e957600080fd5b5061022d6101f8366004611075565b6001600160a01b0316600090815260036020908152604080832054600483528184205460029093529220549192909160ff1690565b604080519384526020840192909252151590820152606001610192565b34801561025657600080fd5b506101bb610566565b34801561026b57600080fd5b506101bb610575565b34801561028057600080fd5b506101bb61028f3660046110e3565b610589565b3480156102a057600080fd5b506101886201518081565b3480156102b757600080fd5b506000546001600160a01b03165b6040516001600160a01b039091168152602001610192565b3480156102e957600080fd5b5061030d6102f8366004611075565b60026020526000908152604090205460ff1681565b6040519015158152602001610192565b34801561032957600080fd5b50610188610338366004611075565b60036020526000908152604090205481565b34801561035657600080fd5b506101bb610365366004611106565b6105e5565b34801561037657600080fd5b5060085461030d9060ff1681565b34801561039057600080fd5b506102c57f000000000000000000000000000000000000000000000000000000000000000081565b3480156103c457600080fd5b50610188670de0b6b3a764000081565b3480156103e057600080fd5b506101bb6103ef366004611195565b61072e565b34801561040057600080fd5b5060065460075460085460ff1661022d565b34801561041e57600080fd5b5061030d61042d3660046111c1565b60056020526000908152604090205460ff1681565b34801561044e57600080fd5b506101bb61045d366004611075565b610783565b34801561046e57600080fd5b506101bb61047d366004611195565b6107c6565b34801561048e57600080fd5b5061018860065481565b3480156104a457600080fd5b506104b86104b33660046111da565b6108c2565b60405161019292919061122e565b3480156104d257600080fd5b5061018860075481565b6104e4610b42565b6001600160a01b0316600090815260046020526040812055565b610506610b42565b6001600160a01b038216600081815260026020908152604091829020805460ff191685151590811790915591519182527ff93f9a76c1bf3444d22400a00cb9fe990e6abe9dbb333fda48859cfee864543d91015b60405180910390a25050565b61056e610b42565b6000600755565b61057d610b42565b6105876000610b6f565b565b610591610b42565b60068290556008805460ff19168215159081179091556040805184815260208101929092527fd90369ddb1b01977b2c8f8ec9a48501106da6562bae1c10d545b7f0ce244dc46910160405180910390a15050565b336001600160a01b037f0000000000000000000000000000000000000000000000000000000000000000161461062e5760405163bd07c55160e01b815260040160405180910390fd5b6000808061063e85870187611283565b919450925090506002876002811115610659576106596112a3565b036106775760405163b305be2160e01b815260040160405180910390fd5b6000848311610687576000610691565b61069185846112cf565b905080156106e0576001600160a01b038416600090815260046020526040812080548392906106c19084906112cf565b9250508190555080600760008282546106da91906112cf565b90915550505b836001600160a01b0316827fe382f31074bb6a241cf80822e287fffc9940cd7e3323c2b88b9c1ad6d82b7b948760405161071c91815260200190565b60405180910390a35050505050505050565b610736610b42565b6001600160a01b03821660008181526003602052604090819020839055517ffb0617dd05c05cbd7b30338efade11063771579ea1c799b22c1b2c3c1ca93ca79061055a9084815260200190565b61078b610b42565b6001600160a01b0381166107ba57604051631e4fbdf760e01b8152600060048201526024015b60405180910390fd5b6107c381610b6f565b50565b6107ce610b42565b6107d6610bbf565b8047101561081d5760405162461bcd60e51b8152602060048201526014602482015273496e73756666696369656e742062616c616e636560601b60448201526064016107b1565b6000826001600160a01b03168260405160006040518083038185875af1925050503d806000811461086a576040519150601f19603f3d011682016040523d82523d6000602084013e61086f565b606091505b50509050806108b45760405162461bcd60e51b815260206004820152601160248201527015da5d1a191c985dd85b0819985a5b1959607a1b60448201526064016107b1565b506108be60018055565b5050565b60606000336001600160a01b037f0000000000000000000000000000000000000000000000000000000000000000161461090f5760405163bd07c55160e01b815260040160405180910390fd5b60085460ff1661093257604051632fec447160e01b815260040160405180910390fd5b60008481526005602052604090205460ff16156109625760405163459b424b60e11b815260040160405180910390fd5b6000808061097c6109776101208a018a6112e2565b610be9565b92509250925061098d888883610cbe565b6109b0576001604051806020016040528060008152509094509450505050610b3a565b65ffffffffffff8316158015906109ce57508265ffffffffffff1642115b156109f2576001604051806020016040528060008152509094509450505050610b3a565b65ffffffffffff821615801590610a1057508165ffffffffffff1642105b15610a34576001604051806020016040528060008152509094509450505050610b3a565b610a4a610a4460208a018a611075565b87610d7c565b610a6d576001604051806020016040528060008152509094509450505050610b3a565b60008781526005602090815260408220805460ff191660011790558791600491610a99908c018c611075565b6001600160a01b03166001600160a01b031681526020019081526020016000206000828254610ac89190611330565b925050819055508560076000828254610ae19190611330565b90915550610af490506020890189611075565b604080516001600160a01b0390921660208301528101879052606081018890526080016040516020818303038152906040529450610b3460008484610e2b565b93505050505b935093915050565b6000546001600160a01b031633146105875760405163118cdaa760e01b81523360048201526024016107b1565b600080546001600160a01b038381166001600160a01b0319831681178455604051919092169283917f8be0079c531659141344cd1fd0a4f28419497f9722a3daafe3b4186f6b6457e09190a35050565b600260015403610be257604051633ee5aeb560e01b815260040160405180910390fd5b6002600155565b60008060606054841015610c125750506040805160208101909152600080825291508190610cb7565b84601485610c21826006611330565b92610c2e93929190611343565b610c379161136d565b60d01c92508484610c4a60146006611330565b90610c576014600c611330565b92610c6493929190611343565b610c6d9161136d565b60d01c9150610c7f8460548188611343565b8080601f0160208091040260200160405190810160405280939291908181526020018383808284376000920191909152509293505050505b9250925092565b600080610d4384610cd26020880188611075565b604080516020818101949094526001600160a01b0390921690820152908701356060820152608001604051602081830303815290604052805190602001207f19457468657265756d205369676e6564204d6573736167653a0a3332000000006000908152601c91909152603c902090565b90506000610d518285610e64565b9050610d656000546001600160a01b031690565b6001600160a01b0391821691161495945050505050565b6001600160a01b03821660009081526002602052604081205460ff16610da457506000610e25565b6001600160a01b0383166000908152600360205260409020548015801590610def57506001600160a01b0384166000908152600460205260409020548190610ded908590611330565b115b15610dfe576000915050610e25565b60065483600754610e0f9190611330565b1115610e1f576000915050610e25565b60019150505b92915050565b600083610e39576000610e3c565b60015b60ff1660d08365ffffffffffff16901b60a08565ffffffffffff16901b171790509392505050565b600080600080610e748686610e8e565b925092509250610e848282610ed8565b5090949350505050565b60008060008351604103610ec85760208401516040850151606086015160001a610eba88828585610f91565b955095509550505050610cb7565b5050815160009150600290610cb7565b6000826003811115610eec57610eec6112a3565b03610ef5575050565b6001826003811115610f0957610f096112a3565b03610f275760405163f645eedf60e01b815260040160405180910390fd5b6002826003811115610f3b57610f3b6112a3565b03610f5c5760405163fce698f760e01b8152600481018290526024016107b1565b6003826003811115610f7057610f706112a3565b036108be576040516335e2f38360e21b8152600481018290526024016107b1565b600080807f7fffffffffffffffffffffffffffffff5d576e7357a4501ddfe92f46681b20a0841115610fcc5750600091506003905082611056565b604080516000808252602082018084528a905260ff891692820192909252606081018790526080810186905260019060a0016020604051602081039080840390855afa158015611020573d6000803e3d6000fd5b5050604051601f1901519150506001600160a01b03811661104c57506000925060019150829050611056565b9250600091508190505b9450945094915050565b6001600160a01b03811681146107c357600080fd5b60006020828403121561108757600080fd5b813561109281611060565b9392505050565b803580151581146110a957600080fd5b919050565b600080604083850312156110c157600080fd5b82356110cc81611060565b91506110da60208401611099565b90509250929050565b600080604083850312156110f657600080fd5b823591506110da60208401611099565b6000806000806060858703121561111c57600080fd5b84356003811061112b57600080fd5b9350602085013567ffffffffffffffff8082111561114857600080fd5b818701915087601f83011261115c57600080fd5b81358181111561116b57600080fd5b88602082850101111561117d57600080fd5b95986020929092019750949560400135945092505050565b600080604083850312156111a857600080fd5b82356111b381611060565b946020939093013593505050565b6000602082840312156111d357600080fd5b5035919050565b6000806000606084860312156111ef57600080fd5b833567ffffffffffffffff81111561120657600080fd5b8401610160818703121561121957600080fd5b95602085013595506040909401359392505050565b604081526000835180604084015260005b8181101561125c576020818701810151606086840101520161123f565b506000606082850101526060601f19601f8301168401019150508260208301529392505050565b60008060006060848603121561129857600080fd5b833561121981611060565b634e487b7160e01b600052602160045260246000fd5b634e487b7160e01b600052601160045260246000fd5b81810381811115610e2557610e256112b9565b6000808335601e198436030181126112f957600080fd5b83018035915067ffffffffffffffff82111561131457600080fd5b60200191503681900382131561132957600080fd5b9250929050565b80820180821115610e2557610e256112b9565b6000808585111561135357600080fd5b8386111561136057600080fd5b5050820193919092039150565b6001600160d01b031981358181169160068510156113955780818660060360031b1b83161692505b50509291505056fea2646970667358221220c39e51c5513701554dd9f11a2899ef61a9a412b1ed24c705d3ff2e8b06b65c3564736f6c63430008140033","opcodes":"PUSH1 0xA0 PUSH1 0x40 MSTORE PUSH8 0x8AC7230489E80000 PUSH1 0x6 SSTORE PUSH1 0x8 DUP1 SLOAD PUSH1 0xFF NOT AND PUSH1 0x1 OR SWAP1 SSTORE CALLVALUE DUP1 ISZERO PUSH2 0x29 JUMPI PUSH1 0x0 DUP1 REVERT JUMPDEST POP PUSH1 0x40 MLOAD PUSH2 0x1509 CODESIZE SUB DUP1 PUSH2 0x1509 DUP4 CODECOPY DUP2 ADD PUSH1 0x40 DUP2 SWAP1 MSTORE PUSH2 0x48 SWAP2 PUSH2 0xDD JUMP JUMPDEST CALLER DUP1 PUSH2 0x6E JUMPI PUSH1 0x40 MLOAD PUSH4 0x1E4FBDF7 PUSH1 0xE0 SHL DUP2 MSTORE PUSH1 0x0 PUSH1 0x4 DUP3 ADD MSTORE PUSH1 0x24 ADD PUSH1 0x40 MLOAD DUP1 SWAP2 SUB SWAP1 REVERT JUMPDEST PUSH2 0x77 DUP2 PUSH2 0x8D JUMP JUMPDEST POP PUSH1 0x1 DUP1 SSTORE PUSH1 0x1 PUSH1 0x1 PUSH1 0xA0 SHL SUB AND PUSH1 0x80 MSTORE PUSH2 0x10D JUMP JUMPDEST PUSH1 0x0 DUP1 SLOAD PUSH1 0x1 PUSH1 0x1 PUSH1 0xA0 SHL SUB DUP4 DUP2 AND PUSH1 0x1 PUSH1 0x1 PUSH1 0xA0 SHL SUB NOT DUP4 AND DUP2 OR DUP5 SSTORE PUSH1 0x40 MLOAD SWAP2 SWAP1 SWAP3 AND SWAP3 DUP4 SWAP2 PUSH32 0x8BE0079C531659141344CD1FD0A4F28419497F9722A3DAAFE3B4186F6B6457E0 SWAP2 SWAP1 LOG3 POP POP JUMP JUMPDEST PUSH1 0x0 PUSH1 0x20 DUP3 DUP5 SUB SLT ISZERO PUSH2 0xEF JUMPI PUSH1 0x0 DUP1 REVERT JUMPDEST DUP2 MLOAD PUSH1 0x1 PUSH1 0x1 PUSH1 0xA0 SHL SUB DUP2 AND DUP2 EQ PUSH2 0x106 JUMPI PUSH1 0x0 DUP1 REVERT JUMPDEST SWAP4 SWAP3 POP POP POP JUMP JUMPDEST PUSH1 0x80 MLOAD PUSH2 0x13D3 PUSH2 0x136 PUSH1 0x0 CODECOPY PUSH1 0x0 DUP2 DUP2 PUSH2 0x396 ADD MSTORE DUP2 DUP2 PUSH2 0x5F0 ADD MSTORE PUSH2 0x8D1 ADD MSTORE PUSH2 0x13D3 PUSH1 0x0 RETURN INVALID PUSH1 0x80 PUSH1 0x40 MSTORE PUSH1 0x4 CALLDATASIZE LT PUSH2 0x14F JUMPI PUSH1 0x0 CALLDATALOAD PUSH1 0xE0 SHR DUP1 PUSH4 0xAC6238FC GT PUSH2 0xB6 JUMPI DUP1 PUSH4 0xE3A87470 GT PUSH2 0x6F JUMPI DUP1 PUSH4 0xE3A87470 EQ PUSH2 0x412 JUMPI DUP1 PUSH4 0xF2FDE38B EQ PUSH2 0x442 JUMPI DUP1 PUSH4 0xF3FEF3A3 EQ PUSH2 0x462 JUMPI DUP1 PUSH4 0xF4345727 EQ PUSH2 0x482 JUMPI DUP1 PUSH4 0xF465C77E EQ PUSH2 0x498 JUMPI DUP1 PUSH4 0xFB346EAB EQ PUSH2 0x4C6 JUMPI PUSH1 0x0 DUP1 REVERT JUMPDEST DUP1 PUSH4 0xAC6238FC EQ PUSH2 0x36A JUMPI DUP1 PUSH4 0xB0D691FE EQ PUSH2 0x384 JUMPI DUP1 PUSH4 0xB8239B40 EQ PUSH2 0x3B8 JUMPI DUP1 PUSH4 0xCD6F0B94 EQ PUSH2 0x3D4 JUMPI DUP1 PUSH4 0xD0E30DB0 EQ PUSH2 0x1BB JUMPI DUP1 PUSH4 0xD8DE4081 EQ PUSH2 0x3F4 JUMPI PUSH1 0x0 DUP1 REVERT JUMPDEST DUP1 PUSH4 0x8322408B GT PUSH2 0x108 JUMPI DUP1 PUSH4 0x8322408B EQ PUSH2 0x274 JUMPI DUP1 PUSH4 0x8B51AD5D EQ PUSH2 0x294 JUMPI DUP1 PUSH4 0x8DA5CB5B EQ PUSH2 0x2AB JUMPI DUP1 PUSH4 0x9B19251A EQ PUSH2 0x2DD JUMPI DUP1 PUSH4 0xA1898D23 EQ PUSH2 0x31D JUMPI DUP1 PUSH4 0xA9A23409 EQ PUSH2 0x34A JUMPI PUSH1 0x0 DUP1 REVERT JUMPDEST DUP1 PUSH4 0x149317A1 EQ PUSH2 0x15B JUMPI DUP1 PUSH4 0x416CD44D EQ PUSH2 0x19B JUMPI DUP1 PUSH4 0x53D6FD59 EQ PUSH2 0x1BD JUMPI DUP1 PUSH4 0x6386C1C7 EQ PUSH2 0x1DD JUMPI DUP1 PUSH4 0x6C882798 EQ PUSH2 0x24A JUMPI DUP1 PUSH4 0x715018A6 EQ PUSH2 0x25F JUMPI PUSH1 0x0 DUP1 REVERT JUMPDEST CALLDATASIZE PUSH2 0x156 JUMPI STOP JUMPDEST PUSH1 0x0 DUP1 REVERT JUMPDEST CALLVALUE DUP1 ISZERO PUSH2 0x167 JUMPI PUSH1 0x0 DUP1 REVERT JUMPDEST POP PUSH2 0x188 PUSH2 0x176 CALLDATASIZE PUSH1 0x4 PUSH2 0x1075 JUMP JUMPDEST PUSH1 0x4 PUSH1 0x20 MSTORE PUSH1 0x0 SWAP1 DUP2 MSTORE PUSH1 0x40 SWAP1 KECCAK256 SLOAD DUP2 JUMP JUMPDEST PUSH1 0x40 MLOAD SWAP1 DUP2 MSTORE PUSH1 0x20 ADD JUMPDEST PUSH1 0x40 MLOAD DUP1 SWAP2 SUB SWAP1 RETURN JUMPDEST CALLVALUE DUP1 ISZERO PUSH2 0x1A7 JUMPI PUSH1 0x0 DUP1 REVERT JUMPDEST POP PUSH2 0x1BB PUSH2 0x1B6 CALLDATASIZE PUSH1 0x4 PUSH2 0x1075 JUMP JUMPDEST PUSH2 0x4DC JUMP JUMPDEST STOP JUMPDEST CALLVALUE DUP1 ISZERO PUSH2 0x1C9 JUMPI PUSH1 0x0 DUP1 REVERT JUMPDEST POP PUSH2 0x1BB PUSH2 0x1D8 CALLDATASIZE PUSH1 0x4 PUSH2 0x10AE JUMP JUMPDEST PUSH2 0x4FE JUMP JUMPDEST CALLVALUE DUP1 ISZERO PUSH2 0x1E9 JUMPI PUSH1 0x0 DUP1 REVERT JUMPDEST POP PUSH2 0x22D PUSH2 0x1F8 CALLDATASIZE PUSH1 0x4 PUSH2 0x1075 JUMP JUMPDEST PUSH1 0x1 PUSH1 0x1 PUSH1 0xA0 SHL SUB AND PUSH1 0x0 SWAP1 DUP2 MSTORE PUSH1 0x3 PUSH1 0x20 SWAP1 DUP2 MSTORE PUSH1 0x40 DUP1 DUP4 KECCAK256 SLOAD PUSH1 0x4 DUP4 MSTORE DUP2 DUP5 KECCAK256 SLOAD PUSH1 0x2 SWAP1 SWAP4 MSTORE SWAP3 KECCAK256 SLOAD SWAP2 SWAP3 SWAP1 SWAP2 PUSH1 0xFF AND SWAP1 JUMP JUMPDEST PUSH1 0x40 DUP1 MLOAD SWAP4 DUP5 MSTORE PUSH1 0x20 DUP5 ADD SWAP3 SWAP1 SWAP3 MSTORE ISZERO ISZERO SWAP1 DUP3 ADD MSTORE PUSH1 0x60 ADD PUSH2 0x192 JUMP JUMPDEST CALLVALUE DUP1 ISZERO PUSH2 0x256 JUMPI PUSH1 0x0 DUP1 REVERT JUMPDEST POP PUSH2 0x1BB PUSH2 0x566 JUMP JUMPDEST CALLVALUE DUP1 ISZERO PUSH2 0x26B JUMPI PUSH1 0x0 DUP1 REVERT JUMPDEST POP PUSH2 0x1BB PUSH2 0x575 JUMP JUMPDEST CALLVALUE DUP1 ISZERO PUSH2 0x280 JUMPI PUSH1 0x0 DUP1 REVERT JUMPDEST POP PUSH2 0x1BB PUSH2 0x28F CALLDATASIZE PUSH1 0x4 PUSH2 0x10E3 JUMP JUMPDEST PUSH2 0x589 JUMP JUMPDEST CALLVALUE DUP1 ISZERO PUSH2 0x2A0 JUMPI PUSH1 0x0 DUP1 REVERT JUMPDEST POP PUSH2 0x188 PUSH3 0x15180 DUP2 JUMP JUMPDEST CALLVALUE DUP1 ISZERO PUSH2 0x2B7 JUMPI PUSH1 0x0 DUP1 REVERT JUMPDEST POP PUSH1 0x0 SLOAD PUSH1 0x1 PUSH1 0x1 PUSH1 0xA0 SHL SUB AND JUMPDEST PUSH1 0x40 MLOAD PUSH1 0x1 PUSH1 0x1 PUSH1 0xA0 SHL SUB SWAP1 SWAP2 AND DUP2 MSTORE PUSH1 0x20 ADD PUSH2 0x192 JUMP JUMPDEST CALLVALUE DUP1 ISZERO PUSH2 0x2E9 JUMPI PUSH1 0x0 DUP1 REVERT JUMPDEST POP PUSH2 0x30D PUSH2 0x2F8 CALLDATASIZE PUSH1 0x4 PUSH2 0x1075 JUMP JUMPDEST PUSH1 0x2 PUSH1 0x20 MSTORE PUSH1 0x0 SWAP1 DUP2 MSTORE PUSH1 0x40 SWAP1 KECCAK256 SLOAD PUSH1 0xFF AND DUP2 JUMP JUMPDEST PUSH1 0x40 MLOAD SWAP1 ISZERO ISZERO DUP2 MSTORE PUSH1 0x20 ADD PUSH2 0x192 JUMP JUMPDEST CALLVALUE DUP1 ISZERO PUSH2 0x329 JUMPI PUSH1 0x0 DUP1 REVERT JUMPDEST POP PUSH2 0x188 PUSH2 0x338 CALLDATASIZE PUSH1 0x4 PUSH2 0x1075 JUMP JUMPDEST PUSH1 0x3 PUSH1 0x20 MSTORE PUSH1 0x0 SWAP1 DUP2 MSTORE PUSH1 0x40 SWAP1 KECCAK256 SLOAD DUP2 JUMP JUMPDEST CALLVALUE DUP1 ISZERO PUSH2 0x356 JUMPI PUSH1 0x0 DUP1 REVERT JUMPDEST POP PUSH2 0x1BB PUSH2 0x365 CALLDATASIZE PUSH1 0x4 PUSH2 0x1106 JUMP JUMPDEST PUSH2 0x5E5 JUMP JUMPDEST CALLVALUE DUP1 ISZERO PUSH2 0x376 JUMPI PUSH1 0x0 DUP1 REVERT JUMPDEST POP PUSH1 0x8 SLOAD PUSH2 0x30D SWAP1 PUSH1 0xFF AND DUP2 JUMP JUMPDEST CALLVALUE DUP1 ISZERO PUSH2 0x390 JUMPI PUSH1 0x0 DUP1 REVERT JUMPDEST POP PUSH2 0x2C5 PUSH32 0x0 DUP2 JUMP JUMPDEST CALLVALUE DUP1 ISZERO PUSH2 0x3C4 JUMPI PUSH1 0x0 DUP1 REVERT JUMPDEST POP PUSH2 0x188 PUSH8 0xDE0B6B3A7640000 DUP2 JUMP JUMPDEST CALLVALUE DUP1 ISZERO PUSH2 0x3E0 JUMPI PUSH1 0x0 DUP1 REVERT JUMPDEST POP PUSH2 0x1BB PUSH2 0x3EF CALLDATASIZE PUSH1 0x4 PUSH2 0x1195 JUMP JUMPDEST PUSH2 0x72E JUMP JUMPDEST CALLVALUE DUP1 ISZERO PUSH2 0x400 JUMPI PUSH1 0x0 DUP1 REVERT JUMPDEST POP PUSH1 0x6 SLOAD PUSH1 0x7 SLOAD PUSH1 0x8 SLOAD PUSH1 0xFF AND PUSH2 0x22D JUMP JUMPDEST CALLVALUE DUP1 ISZERO PUSH2 0x41E JUMPI PUSH1 0x0 DUP1 REVERT JUMPDEST POP PUSH2 0x30D PUSH2 0x42D CALLDATASIZE PUSH1 0x4 PUSH2 0x11C1 JUMP JUMPDEST PUSH1 0x5 PUSH1 0x20 MSTORE PUSH1 0x0 SWAP1 DUP2 MSTORE PUSH1 0x40 SWAP1 KECCAK256 SLOAD PUSH1 0xFF AND DUP2 JUMP JUMPDEST CALLVALUE DUP1 ISZERO PUSH2 0x44E JUMPI PUSH1 0x0 DUP1 REVERT JUMPDEST POP PUSH2 0x1BB PUSH2 0x45D CALLDATASIZE PUSH1 0x4 PUSH2 0x1075 JUMP JUMPDEST PUSH2 0x783 JUMP JUMPDEST CALLVALUE DUP1 ISZERO PUSH2 0x46E JUMPI PUSH1 0x0 DUP1 REVERT JUMPDEST POP PUSH2 0x1BB PUSH2 0x47D CALLDATASIZE PUSH1 0x4 PUSH2 0x1195 JUMP JUMPDEST PUSH2 0x7C6 JUMP JUMPDEST CALLVALUE DUP1 ISZERO PUSH2 0x48E JUMPI PUSH1 0x0 DUP1 REVERT JUMPDEST POP PUSH2 0x188 PUSH1 0x6 SLOAD DUP2 JUMP JUMPDEST CALLVALUE DUP1 ISZERO PUSH2 0x4A4 JUMPI PUSH1 0x0 DUP1 REVERT JUMPDEST POP PUSH2 0x4B8 PUSH2 0x4B3 CALLDATASIZE PUSH1 0x4 PUSH2 0x11DA JUMP JUMPDEST PUSH2 0x8C2 JUMP JUMPDEST PUSH1 0x40 MLOAD PUSH2 0x192 SWAP3 SWAP2 SWAP1 PUSH2 0x122E JUMP JUMPDEST CALLVALUE DUP1 ISZERO PUSH2 0x4D2 JUMPI PUSH1 0x0 DUP1 REVERT JUMPDEST POP PUSH2 0x188 PUSH1 0x7 SLOAD DUP2 JUMP JUMPDEST PUSH2 0x4E4 PUSH2 0xB42 JUMP JUMPDEST PUSH1 0x1 PUSH1 0x1 PUSH1 0xA0 SHL SUB AND PUSH1 0x0 SWAP1 DUP2 MSTORE PUSH1 0x4 PUSH1 0x20 MSTORE PUSH1 0x40 DUP2 KECCAK256 SSTORE JUMP JUMPDEST PUSH2 0x506 PUSH2 0xB42 JUMP JUMPDEST PUSH1 0x1 PUSH1 0x1 PUSH1 0xA0 SHL SUB DUP3 AND PUSH1 0x0 DUP2 DUP2 MSTORE PUSH1 0x2 PUSH1 0x20 SWAP1 DUP2 MSTORE PUSH1 0x40 SWAP2 DUP3 SWAP1 KECCAK256 DUP1 SLOAD PUSH1 0xFF NOT AND DUP6 ISZERO ISZERO SWAP1 DUP2 OR SWAP1 SWAP2 SSTORE SWAP2 MLOAD SWAP2 DUP3 MSTORE PUSH32 0xF93F9A76C1BF3444D22400A00CB9FE990E6ABE9DBB333FDA48859CFEE864543D SWAP2 ADD JUMPDEST PUSH1 0x40 MLOAD DUP1 SWAP2 SUB SWAP1 LOG2 POP POP JUMP JUMPDEST PUSH2 0x56E PUSH2 0xB42 JUMP JUMPDEST PUSH1 0x0 PUSH1 0x7 SSTORE JUMP JUMPDEST PUSH2 0x57D PUSH2 0xB42 JUMP JUMPDEST PUSH2 0x587 PUSH1 0x0 PUSH2 0xB6F JUMP JUMPDEST JUMP JUMPDEST PUSH2 0x591 PUSH2 0xB42 JUMP JUMPDEST PUSH1 0x6 DUP3 SWAP1 SSTORE PUSH1 0x8 DUP1 SLOAD PUSH1 0xFF NOT AND DUP3 ISZERO ISZERO SWAP1 DUP2 OR SWAP1 SWAP2 SSTORE PUSH1 0x40 DUP1 MLOAD DUP5 DUP2 MSTORE PUSH1 0x20 DUP2 ADD SWAP3 SWAP1 SWAP3 MSTORE PUSH32 0xD90369DDB1B01977B2C8F8EC9A48501106DA6562BAE1C10D545B7F0CE244DC46 SWAP2 ADD PUSH1 0x40 MLOAD DUP1 SWAP2 SUB SWAP1 LOG1 POP POP JUMP JUMPDEST CALLER PUSH1 0x1 PUSH1 0x1 PUSH1 0xA0 SHL SUB PUSH32 0x0 AND EQ PUSH2 0x62E JUMPI PUSH1 0x40 MLOAD PUSH4 0xBD07C551 PUSH1 0xE0 SHL DUP2 MSTORE PUSH1 0x4 ADD PUSH1 0x40 MLOAD DUP1 SWAP2 SUB SWAP1 REVERT JUMPDEST PUSH1 0x0 DUP1 DUP1 PUSH2 0x63E DUP6 DUP8 ADD DUP8 PUSH2 0x1283 JUMP JUMPDEST SWAP2 SWAP5 POP SWAP3 POP SWAP1 POP PUSH1 0x2 DUP8 PUSH1 0x2 DUP2 GT ISZERO PUSH2 0x659 JUMPI PUSH2 0x659 PUSH2 0x12A3 JUMP JUMPDEST SUB PUSH2 0x677 JUMPI PUSH1 0x40 MLOAD PUSH4 0xB305BE21 PUSH1 0xE0 SHL DUP2 MSTORE PUSH1 0x4 ADD PUSH1 0x40 MLOAD DUP1 SWAP2 SUB SWAP1 REVERT JUMPDEST PUSH1 0x0 DUP5 DUP4 GT PUSH2 0x687 JUMPI PUSH1 0x0 PUSH2 0x691 JUMP JUMPDEST PUSH2 0x691 DUP6 DUP5 PUSH2 0x12CF JUMP JUMPDEST SWAP1 POP DUP1 ISZERO PUSH2 0x6E0 JUMPI PUSH1 0x1 PUSH1 0x1 PUSH1 0xA0 SHL SUB DUP5 AND PUSH1 0x0 SWAP1 DUP2 MSTORE PUSH1 0x4 PUSH1 0x20 MSTORE PUSH1 0x40 DUP2 KECCAK256 DUP1 SLOAD DUP4 SWAP3 SWAP1 PUSH2 0x6C1 SWAP1 DUP5 SWAP1 PUSH2 0x12CF JUMP JUMPDEST SWAP3 POP POP DUP2 SWAP1 SSTORE POP DUP1 PUSH1 0x7 PUSH1 0x0 DUP3 DUP3 SLOAD PUSH2 0x6DA SWAP2 SWAP1 PUSH2 0x12CF JUMP JUMPDEST SWAP1 SWAP2 SSTORE POP POP JUMPDEST DUP4 PUSH1 0x1 PUSH1 0x1 PUSH1 0xA0 SHL SUB AND DUP3 PUSH32 0xE382F31074BB6A241CF80822E287FFFC9940CD7E3323C2B88B9C1AD6D82B7B94 DUP8 PUSH1 0x40 MLOAD PUSH2 0x71C SWAP2 DUP2 MSTORE PUSH1 0x20 ADD SWAP1 JUMP JUMPDEST PUSH1 0x40 MLOAD DUP1 SWAP2 SUB SWAP1 LOG3 POP POP POP POP POP POP POP POP JUMP JUMPDEST PUSH2 0x736 PUSH2 0xB42 JUMP JUMPDEST PUSH1 0x1 PUSH1 0x1 PUSH1 0xA0 SHL SUB DUP3 AND PUSH1 0x0 DUP2 DUP2 MSTORE PUSH1 0x3 PUSH1 0x20 MSTORE PUSH1 0x40 SWAP1 DUP2 SWAP1 KECCAK256 DUP4 SWAP1 SSTORE MLOAD PUSH32 0xFB0617DD05C05CBD7B30338EFADE11063771579EA1C799B22C1B2C3C1CA93CA7 SWAP1 PUSH2 0x55A SWAP1 DUP5 DUP2 MSTORE PUSH1 0x20 ADD SWAP1 JUMP JUMPDEST PUSH2 0x78B PUSH2 0xB42 JUMP JUMPDEST PUSH1 0x1 PUSH1 0x1 PUSH1 0xA0 SHL SUB DUP2 AND PUSH2 0x7BA JUMPI PUSH1 0x40 MLOAD PUSH4 0x1E4FBDF7 PUSH1 0xE0 SHL DUP2 MSTORE PUSH1 0x0 PUSH1 0x4 DUP3 ADD MSTORE PUSH1 0x24 ADD JUMPDEST PUSH1 0x40 MLOAD DUP1 SWAP2 SUB SWAP1 REVERT JUMPDEST PUSH2 0x7C3 DUP2 PUSH2 0xB6F JUMP JUMPDEST POP JUMP JUMPDEST PUSH2 0x7CE PUSH2 0xB42 JUMP JUMPDEST PUSH2 0x7D6 PUSH2 0xBBF JUMP JUMPDEST DUP1 SELFBALANCE LT ISZERO PUSH2 0x81D JUMPI PUSH1 0x40 MLOAD PUSH3 0x461BCD PUSH1 0xE5 SHL DUP2 MSTORE PUSH1 0x20 PUSH1 0x4 DUP3 ADD MSTORE PUSH1 0x14 PUSH1 0x24 DUP3 ADD MSTORE PUSH20 0x496E73756666696369656E742062616C616E6365 PUSH1 0x60 SHL PUSH1 0x44 DUP3 ADD MSTORE PUSH1 0x64 ADD PUSH2 0x7B1 JUMP JUMPDEST PUSH1 0x0 DUP3 PUSH1 0x1 PUSH1 0x1 PUSH1 0xA0 SHL SUB AND DUP3 PUSH1 0x40 MLOAD PUSH1 0x0 PUSH1 0x40 MLOAD DUP1 DUP4 SUB DUP2 DUP6 DUP8 GAS CALL SWAP3 POP POP POP RETURNDATASIZE DUP1 PUSH1 0x0 DUP2 EQ PUSH2 0x86A JUMPI PUSH1 0x40 MLOAD SWAP2 POP PUSH1 0x1F NOT PUSH1 0x3F RETURNDATASIZE ADD AND DUP3 ADD PUSH1 0x40 MSTORE RETURNDATASIZE DUP3 MSTORE RETURNDATASIZE PUSH1 0x0 PUSH1 0x20 DUP5 ADD RETURNDATACOPY PUSH2 0x86F JUMP JUMPDEST PUSH1 0x60 SWAP2 POP JUMPDEST POP POP SWAP1 POP DUP1 PUSH2 0x8B4 JUMPI PUSH1 0x40 MLOAD PUSH3 0x461BCD PUSH1 0xE5 SHL DUP2 MSTORE PUSH1 0x20 PUSH1 0x4 DUP3 ADD MSTORE PUSH1 0x11 PUSH1 0x24 DUP3 ADD MSTORE PUSH17 0x15DA5D1A191C985DD85B0819985A5B1959 PUSH1 0x7A SHL PUSH1 0x44 DUP3 ADD MSTORE PUSH1 0x64 ADD PUSH2 0x7B1 JUMP JUMPDEST POP PUSH2 0x8BE PUSH1 0x1 DUP1 SSTORE JUMP JUMPDEST POP POP JUMP JUMPDEST PUSH1 0x60 PUSH1 0x0 CALLER PUSH1 0x1 PUSH1 0x1 PUSH1 0xA0 SHL SUB PUSH32 0x0 AND EQ PUSH2 0x90F JUMPI PUSH1 0x40 MLOAD PUSH4 0xBD07C551 PUSH1 0xE0 SHL DUP2 MSTORE PUSH1 0x4 ADD PUSH1 0x40 MLOAD DUP1 SWAP2 SUB SWAP1 REVERT JUMPDEST PUSH1 0x8 SLOAD PUSH1 0xFF AND PUSH2 0x932 JUMPI PUSH1 0x40 MLOAD PUSH4 0x2FEC4471 PUSH1 0xE0 SHL DUP2 MSTORE PUSH1 0x4 ADD PUSH1 0x40 MLOAD DUP1 SWAP2 SUB SWAP1 REVERT JUMPDEST PUSH1 0x0 DUP5 DUP2 MSTORE PUSH1 0x5 PUSH1 0x20 MSTORE PUSH1 0x40 SWAP1 KECCAK256 SLOAD PUSH1 0xFF AND ISZERO PUSH2 0x962 JUMPI PUSH1 0x40 MLOAD PUSH4 0x459B424B PUSH1 0xE1 SHL DUP2 MSTORE PUSH1 0x4 ADD PUSH1 0x40 MLOAD DUP1 SWAP2 SUB SWAP1 REVERT JUMPDEST PUSH1 0x0 DUP1 DUP1 PUSH2 0x97C PUSH2 0x977 PUSH2 0x120 DUP11 ADD DUP11 PUSH2 0x12E2 JUMP JUMPDEST PUSH2 0xBE9 JUMP JUMPDEST SWAP3 POP SWAP3 POP SWAP3 POP PUSH2 0x98D DUP9 DUP9 DUP4 PUSH2 0xCBE JUMP JUMPDEST PUSH2 0x9B0 JUMPI PUSH1 0x1 PUSH1 0x40 MLOAD DUP1 PUSH1 0x20 ADD PUSH1 0x40 MSTORE DUP1 PUSH1 0x0 DUP2 MSTORE POP SWAP1 SWAP5 POP SWAP5 POP POP POP POP PUSH2 0xB3A JUMP JUMPDEST PUSH6 0xFFFFFFFFFFFF DUP4 AND ISZERO DUP1 ISZERO SWAP1 PUSH2 0x9CE JUMPI POP DUP3 PUSH6 0xFFFFFFFFFFFF AND TIMESTAMP GT JUMPDEST ISZERO PUSH2 0x9F2 JUMPI PUSH1 0x1 PUSH1 0x40 MLOAD DUP1 PUSH1 0x20 ADD PUSH1 0x40 MSTORE DUP1 PUSH1 0x0 DUP2 MSTORE POP SWAP1 SWAP5 POP SWAP5 POP POP POP POP PUSH2 0xB3A JUMP JUMPDEST PUSH6 0xFFFFFFFFFFFF DUP3 AND ISZERO DUP1 ISZERO SWAP1 PUSH2 0xA10 JUMPI POP DUP2 PUSH6 0xFFFFFFFFFFFF AND TIMESTAMP LT JUMPDEST ISZERO PUSH2 0xA34 JUMPI PUSH1 0x1 PUSH1 0x40 MLOAD DUP1 PUSH1 0x20 ADD PUSH1 0x40 MSTORE DUP1 PUSH1 0x0 DUP2 MSTORE POP SWAP1 SWAP5 POP SWAP5 POP POP POP POP PUSH2 0xB3A JUMP JUMPDEST PUSH2 0xA4A PUSH2 0xA44 PUSH1 0x20 DUP11 ADD DUP11 PUSH2 0x1075 JUMP JUMPDEST DUP8 PUSH2 0xD7C JUMP JUMPDEST PUSH2 0xA6D JUMPI PUSH1 0x1 PUSH1 0x40 MLOAD DUP1 PUSH1 0x20 ADD PUSH1 0x40 MSTORE DUP1 PUSH1 0x0 DUP2 MSTORE POP SWAP1 SWAP5 POP SWAP5 POP POP POP POP PUSH2 0xB3A JUMP JUMPDEST PUSH1 0x0 DUP8 DUP2 MSTORE PUSH1 0x5 PUSH1 0x20 SWAP1 DUP2 MSTORE PUSH1 0x40 DUP3 KECCAK256 DUP1 SLOAD PUSH1 0xFF NOT AND PUSH1 0x1 OR SWAP1 SSTORE DUP8 SWAP2 PUSH1 0x4 SWAP2 PUSH2 0xA99 SWAP1 DUP13 ADD DUP13 PUSH2 0x1075 JUMP JUMPDEST PUSH1 0x1 PUSH1 0x1 PUSH1 0xA0 SHL SUB AND PUSH1 0x1 PUSH1 0x1 PUSH1 0xA0 SHL SUB AND DUP2 MSTORE PUSH1 0x20 ADD SWAP1 DUP2 MSTORE PUSH1 0x20 ADD PUSH1 0x0 KECCAK256 PUSH1 0x0 DUP3 DUP3 SLOAD PUSH2 0xAC8 SWAP2 SWAP1 PUSH2 0x1330 JUMP JUMPDEST SWAP3 POP POP DUP2 SWAP1 SSTORE POP DUP6 PUSH1 0x7 PUSH1 0x0 DUP3 DUP3 SLOAD PUSH2 0xAE1 SWAP2 SWAP1 PUSH2 0x1330 JUMP JUMPDEST SWAP1 SWAP2 SSTORE POP PUSH2 0xAF4 SWAP1 POP PUSH1 0x20 DUP10 ADD DUP10 PUSH2 0x1075 JUMP JUMPDEST PUSH1 0x40 DUP1 MLOAD PUSH1 0x1 PUSH1 0x1 PUSH1 0xA0 SHL SUB SWAP1 SWAP3 AND PUSH1 0x20 DUP4 ADD MSTORE DUP2 ADD DUP8 SWAP1 MSTORE PUSH1 0x60 DUP2 ADD DUP9 SWAP1 MSTORE PUSH1 0x80 ADD PUSH1 0x40 MLOAD PUSH1 0x20 DUP2 DUP4 SUB SUB DUP2 MSTORE SWAP1 PUSH1 0x40 MSTORE SWAP5 POP PUSH2 0xB34 PUSH1 0x0 DUP5 DUP5 PUSH2 0xE2B JUMP JUMPDEST SWAP4 POP POP POP POP JUMPDEST SWAP4 POP SWAP4 SWAP2 POP POP JUMP JUMPDEST PUSH1 0x0 SLOAD PUSH1 0x1 PUSH1 0x1 PUSH1 0xA0 SHL SUB AND CALLER EQ PUSH2 0x587 JUMPI PUSH1 0x40 MLOAD PUSH4 0x118CDAA7 PUSH1 0xE0 SHL DUP2 MSTORE CALLER PUSH1 0x4 DUP3 ADD MSTORE PUSH1 0x24 ADD PUSH2 0x7B1 JUMP JUMPDEST PUSH1 0x0 DUP1 SLOAD PUSH1 0x1 PUSH1 0x1 PUSH1 0xA0 SHL SUB DUP4 DUP2 AND PUSH1 0x1 PUSH1 0x1 PUSH1 0xA0 SHL SUB NOT DUP4 AND DUP2 OR DUP5 SSTORE PUSH1 0x40 MLOAD SWAP2 SWAP1 SWAP3 AND SWAP3 DUP4 SWAP2 PUSH32 0x8BE0079C531659141344CD1FD0A4F28419497F9722A3DAAFE3B4186F6B6457E0 SWAP2 SWAP1 LOG3 POP POP JUMP JUMPDEST PUSH1 0x2 PUSH1 0x1 SLOAD SUB PUSH2 0xBE2 JUMPI PUSH1 0x40 MLOAD PUSH4 0x3EE5AEB5 PUSH1 0xE0 SHL DUP2 MSTORE PUSH1 0x4 ADD PUSH1 0x40 MLOAD DUP1 SWAP2 SUB SWAP1 REVERT JUMPDEST PUSH1 0x2 PUSH1 0x1 SSTORE JUMP JUMPDEST PUSH1 0x0 DUP1 PUSH1 0x60 PUSH1 0x54 DUP5 LT ISZERO PUSH2 0xC12 JUMPI POP POP PUSH1 0x40 DUP1 MLOAD PUSH1 0x20 DUP2 ADD SWAP1 SWAP2 MSTORE PUSH1 0x0 DUP1 DUP3 MSTORE SWAP2 POP DUP2 SWAP1 PUSH2 0xCB7 JUMP JUMPDEST DUP5 PUSH1 0x14 DUP6 PUSH2 0xC21 DUP3 PUSH1 0x6 PUSH2 0x1330 JUMP JUMPDEST SWAP3 PUSH2 0xC2E SWAP4 SWAP3 SWAP2 SWAP1 PUSH2 0x1343 JUMP JUMPDEST PUSH2 0xC37 SWAP2 PUSH2 0x136D JUMP JUMPDEST PUSH1 0xD0 SHR SWAP3 POP DUP5 DUP5 PUSH2 0xC4A PUSH1 0x14 PUSH1 0x6 PUSH2 0x1330 JUMP JUMPDEST SWAP1 PUSH2 0xC57 PUSH1 0x14 PUSH1 0xC PUSH2 0x1330 JUMP JUMPDEST SWAP3 PUSH2 0xC64 SWAP4 SWAP3 SWAP2 SWAP1 PUSH2 0x1343 JUMP JUMPDEST PUSH2 0xC6D SWAP2 PUSH2 0x136D JUMP JUMPDEST PUSH1 0xD0 SHR SWAP2 POP PUSH2 0xC7F DUP5 PUSH1 0x54 DUP2 DUP9 PUSH2 0x1343 JUMP JUMPDEST DUP1 DUP1 PUSH1 0x1F ADD PUSH1 0x20 DUP1 SWAP2 DIV MUL PUSH1 0x20 ADD PUSH1 0x40 MLOAD SWAP1 DUP2 ADD PUSH1 0x40 MSTORE DUP1 SWAP4 SWAP3 SWAP2 SWAP1 DUP2 DUP2 MSTORE PUSH1 0x20 ADD DUP4 DUP4 DUP1 DUP3 DUP5 CALLDATACOPY PUSH1 0x0 SWAP3 ADD SWAP2 SWAP1 SWAP2 MSTORE POP SWAP3 SWAP4 POP POP POP POP JUMPDEST SWAP3 POP SWAP3 POP SWAP3 JUMP JUMPDEST PUSH1 0x0 DUP1 PUSH2 0xD43 DUP5 PUSH2 0xCD2 PUSH1 0x20 DUP9 ADD DUP9 PUSH2 0x1075 JUMP JUMPDEST PUSH1 0x40 DUP1 MLOAD PUSH1 0x20 DUP2 DUP2 ADD SWAP5 SWAP1 SWAP5 MSTORE PUSH1 0x1 PUSH1 0x1 PUSH1 0xA0 SHL SUB SWAP1 SWAP3 AND SWAP1 DUP3 ADD MSTORE SWAP1 DUP8 ADD CALLDATALOAD PUSH1 0x60 DUP3 ADD MSTORE PUSH1 0x80 ADD PUSH1 0x40 MLOAD PUSH1 0x20 DUP2 DUP4 SUB SUB DUP2 MSTORE SWAP1 PUSH1 0x40 MSTORE DUP1 MLOAD SWAP1 PUSH1 0x20 ADD KECCAK256 PUSH32 0x19457468657265756D205369676E6564204D6573736167653A0A333200000000 PUSH1 0x0 SWAP1 DUP2 MSTORE PUSH1 0x1C SWAP2 SWAP1 SWAP2 MSTORE PUSH1 0x3C SWAP1 KECCAK256 SWAP1 JUMP JUMPDEST SWAP1 POP PUSH1 0x0 PUSH2 0xD51 DUP3 DUP6 PUSH2 0xE64 JUMP JUMPDEST SWAP1 POP PUSH2 0xD65 PUSH1 0x0 SLOAD PUSH1 0x1 PUSH1 0x1 PUSH1 0xA0 SHL SUB AND SWAP1 JUMP JUMPDEST PUSH1 0x1 PUSH1 0x1 PUSH1 0xA0 SHL SUB SWAP2 DUP3 AND SWAP2 AND EQ SWAP6 SWAP5 POP POP POP POP POP JUMP JUMPDEST PUSH1 0x1 PUSH1 0x1 PUSH1 0xA0 SHL SUB DUP3 AND PUSH1 0x0 SWAP1 DUP2 MSTORE PUSH1 0x2 PUSH1 0x20 MSTORE PUSH1 0x40 DUP2 KECCAK256 SLOAD PUSH1 0xFF AND PUSH2 0xDA4 JUMPI POP PUSH1 0x0 PUSH2 0xE25 JUMP JUMPDEST PUSH1 0x1 PUSH1 0x1 PUSH1 0xA0 SHL SUB DUP4 AND PUSH1 0x0 SWAP1 DUP2 MSTORE PUSH1 0x3 PUSH1 0x20 MSTORE PUSH1 0x40 SWAP1 KECCAK256 SLOAD DUP1 ISZERO DUP1 ISZERO SWAP1 PUSH2 0xDEF JUMPI POP PUSH1 0x1 PUSH1 0x1 PUSH1 0xA0 SHL SUB DUP5 AND PUSH1 0x0 SWAP1 DUP2 MSTORE PUSH1 0x4 PUSH1 0x20 MSTORE PUSH1 0x40 SWAP1 KECCAK256 SLOAD DUP2 SWAP1 PUSH2 0xDED SWAP1 DUP6 SWAP1 PUSH2 0x1330 JUMP JUMPDEST GT JUMPDEST ISZERO PUSH2 0xDFE JUMPI PUSH1 0x0 SWAP2 POP POP PUSH2 0xE25 JUMP JUMPDEST PUSH1 0x6 SLOAD DUP4 PUSH1 0x7 SLOAD PUSH2 0xE0F SWAP2 SWAP1 PUSH2 0x1330 JUMP JUMPDEST GT ISZERO PUSH2 0xE1F JUMPI PUSH1 0x0 SWAP2 POP POP PUSH2 0xE25 JUMP JUMPDEST PUSH1 0x1 SWAP2 POP POP JUMPDEST SWAP3 SWAP2 POP POP JUMP JUMPDEST PUSH1 0x0 DUP4 PUSH2 0xE39 JUMPI PUSH1 0x0 PUSH2 0xE3C JUMP JUMPDEST PUSH1 0x1 JUMPDEST PUSH1 0xFF AND PUSH1 0xD0 DUP4 PUSH6 0xFFFFFFFFFFFF AND SWAP1 SHL PUSH1 0xA0 DUP6 PUSH6 0xFFFFFFFFFFFF AND SWAP1 SHL OR OR SWAP1 POP SWAP4 SWAP3 POP POP POP JUMP JUMPDEST PUSH1 0x0 DUP1 PUSH1 0x0 DUP1 PUSH2 0xE74 DUP7 DUP7 PUSH2 0xE8E JUMP JUMPDEST SWAP3 POP SWAP3 POP SWAP3 POP PUSH2 0xE84 DUP3 DUP3 PUSH2 0xED8 JUMP JUMPDEST POP SWAP1 SWAP5 SWAP4 POP POP POP POP JUMP JUMPDEST PUSH1 0x0 DUP1 PUSH1 0x0 DUP4 MLOAD PUSH1 0x41 SUB PUSH2 0xEC8 JUMPI PUSH1 0x20 DUP5 ADD MLOAD PUSH1 0x40 DUP6 ADD MLOAD PUSH1 0x60 DUP7 ADD MLOAD PUSH1 0x0 BYTE PUSH2 0xEBA DUP9 DUP3 DUP6 DUP6 PUSH2 0xF91 JUMP JUMPDEST SWAP6 POP SWAP6 POP SWAP6 POP POP POP POP PUSH2 0xCB7 JUMP JUMPDEST POP POP DUP2 MLOAD PUSH1 0x0 SWAP2 POP PUSH1 0x2 SWAP1 PUSH2 0xCB7 JUMP JUMPDEST PUSH1 0x0 DUP3 PUSH1 0x3 DUP2 GT ISZERO PUSH2 0xEEC JUMPI PUSH2 0xEEC PUSH2 0x12A3 JUMP JUMPDEST SUB PUSH2 0xEF5 JUMPI POP POP JUMP JUMPDEST PUSH1 0x1 DUP3 PUSH1 0x3 DUP2 GT ISZERO PUSH2 0xF09 JUMPI PUSH2 0xF09 PUSH2 0x12A3 JUMP JUMPDEST SUB PUSH2 0xF27 JUMPI PUSH1 0x40 MLOAD PUSH4 0xF645EEDF PUSH1 0xE0 SHL DUP2 MSTORE PUSH1 0x4 ADD PUSH1 0x40 MLOAD DUP1 SWAP2 SUB SWAP1 REVERT JUMPDEST PUSH1 0x2 DUP3 PUSH1 0x3 DUP2 GT ISZERO PUSH2 0xF3B JUMPI PUSH2 0xF3B PUSH2 0x12A3 JUMP JUMPDEST SUB PUSH2 0xF5C JUMPI PUSH1 0x40 MLOAD PUSH4 0xFCE698F7 PUSH1 0xE0 SHL DUP2 MSTORE PUSH1 0x4 DUP2 ADD DUP3 SWAP1 MSTORE PUSH1 0x24 ADD PUSH2 0x7B1 JUMP JUMPDEST PUSH1 0x3 DUP3 PUSH1 0x3 DUP2 GT ISZERO PUSH2 0xF70 JUMPI PUSH2 0xF70 PUSH2 0x12A3 JUMP JUMPDEST SUB PUSH2 0x8BE JUMPI PUSH1 0x40 MLOAD PUSH4 0x35E2F383 PUSH1 0xE2 SHL DUP2 MSTORE PUSH1 0x4 DUP2 ADD DUP3 SWAP1 MSTORE PUSH1 0x24 ADD PUSH2 0x7B1 JUMP JUMPDEST PUSH1 0x0 DUP1 DUP1 PUSH32 0x7FFFFFFFFFFFFFFFFFFFFFFFFFFFFFFF5D576E7357A4501DDFE92F46681B20A0 DUP5 GT ISZERO PUSH2 0xFCC JUMPI POP PUSH1 0x0 SWAP2 POP PUSH1 0x3 SWAP1 POP DUP3 PUSH2 0x1056 JUMP JUMPDEST PUSH1 0x40 DUP1 MLOAD PUSH1 0x0 DUP1 DUP3 MSTORE PUSH1 0x20 DUP3 ADD DUP1 DUP5 MSTORE DUP11 SWAP1 MSTORE PUSH1 0xFF DUP10 AND SWAP3 DUP3 ADD SWAP3 SWAP1 SWAP3 MSTORE PUSH1 0x60 DUP2 ADD DUP8 SWAP1 MSTORE PUSH1 0x80 DUP2 ADD DUP7 SWAP1 MSTORE PUSH1 0x1 SWAP1 PUSH1 0xA0 ADD PUSH1 0x20 PUSH1 0x40 MLOAD PUSH1 0x20 DUP2 SUB SWAP1 DUP1 DUP5 SUB SWAP1 DUP6 GAS STATICCALL ISZERO DUP1 ISZERO PUSH2 0x1020 JUMPI RETURNDATASIZE PUSH1 0x0 DUP1 RETURNDATACOPY RETURNDATASIZE PUSH1 0x0 REVERT JUMPDEST POP POP PUSH1 0x40 MLOAD PUSH1 0x1F NOT ADD MLOAD SWAP2 POP POP PUSH1 0x1 PUSH1 0x1 PUSH1 0xA0 SHL SUB DUP2 AND PUSH2 0x104C JUMPI POP PUSH1 0x0 SWAP3 POP PUSH1 0x1 SWAP2 POP DUP3 SWAP1 POP PUSH2 0x1056 JUMP JUMPDEST SWAP3 POP PUSH1 0x0 SWAP2 POP DUP2 SWAP1 POP JUMPDEST SWAP5 POP SWAP5 POP SWAP5 SWAP2 POP POP JUMP JUMPDEST PUSH1 0x1 PUSH1 0x1 PUSH1 0xA0 SHL SUB DUP2 AND DUP2 EQ PUSH2 0x7C3 JUMPI PUSH1 0x0 DUP1 REVERT JUMPDEST PUSH1 0x0 PUSH1 0x20 DUP3 DUP5 SUB SLT ISZERO PUSH2 0x1087 JUMPI PUSH1 0x0 DUP1 REVERT JUMPDEST DUP2 CALLDATALOAD PUSH2 0x1092 DUP2 PUSH2 0x1060 JUMP JUMPDEST SWAP4 SWAP3 POP POP POP JUMP JUMPDEST DUP1 CALLDATALOAD DUP1 ISZERO ISZERO DUP2 EQ PUSH2 0x10A9 JUMPI PUSH1 0x0 DUP1 REVERT JUMPDEST SWAP2 SWAP1 POP JUMP JUMPDEST PUSH1 0x0 DUP1 PUSH1 0x40 DUP4 DUP6 SUB SLT ISZERO PUSH2 0x10C1 JUMPI PUSH1 0x0 DUP1 REVERT JUMPDEST DUP3 CALLDATALOAD PUSH2 0x10CC DUP2 PUSH2 0x1060 JUMP JUMPDEST SWAP2 POP PUSH2 0x10DA PUSH1 0x20 DUP5 ADD PUSH2 0x1099 JUMP JUMPDEST SWAP1 POP SWAP3 POP SWAP3 SWAP1 POP JUMP JUMPDEST PUSH1 0x0 DUP1 PUSH1 0x40 DUP4 DUP6 SUB SLT ISZERO PUSH2 0x10F6 JUMPI PUSH1 0x0 DUP1 REVERT JUMPDEST DUP3 CALLDATALOAD SWAP2 POP PUSH2 0x10DA PUSH1 0x20 DUP5 ADD PUSH2 0x1099 JUMP JUMPDEST PUSH1 0x0 DUP1 PUSH1 0x0 DUP1 PUSH1 0x60 DUP6 DUP8 SUB SLT ISZERO PUSH2 0x111C JUMPI PUSH1 0x0 DUP1 REVERT JUMPDEST DUP5 CALLDATALOAD PUSH1 0x3 DUP2 LT PUSH2 0x112B JUMPI PUSH1 0x0 DUP1 REVERT JUMPDEST SWAP4 POP PUSH1 0x20 DUP6 ADD CALLDATALOAD PUSH8 0xFFFFFFFFFFFFFFFF DUP1 DUP3 GT ISZERO PUSH2 0x1148 JUMPI PUSH1 0x0 DUP1 REVERT JUMPDEST DUP2 DUP8 ADD SWAP2 POP DUP8 PUSH1 0x1F DUP4 ADD SLT PUSH2 0x115C JUMPI PUSH1 0x0 DUP1 REVERT JUMPDEST DUP2 CALLDATALOAD DUP2 DUP2 GT ISZERO PUSH2 0x116B JUMPI PUSH1 0x0 DUP1 REVERT JUMPDEST DUP9 PUSH1 0x20 DUP3 DUP6 ADD ADD GT ISZERO PUSH2 0x117D JUMPI PUSH1 0x0 DUP1 REVERT JUMPDEST SWAP6 SWAP9 PUSH1 0x20 SWAP3 SWAP1 SWAP3 ADD SWAP8 POP SWAP5 SWAP6 PUSH1 0x40 ADD CALLDATALOAD SWAP5 POP SWAP3 POP POP POP JUMP JUMPDEST PUSH1 0x0 DUP1 PUSH1 0x40 DUP4 DUP6 SUB SLT ISZERO PUSH2 0x11A8 JUMPI PUSH1 0x0 DUP1 REVERT JUMPDEST DUP3 CALLDATALOAD PUSH2 0x11B3 DUP2 PUSH2 0x1060 JUMP JUMPDEST SWAP5 PUSH1 0x20 SWAP4 SWAP1 SWAP4 ADD CALLDATALOAD SWAP4 POP POP POP JUMP JUMPDEST PUSH1 0x0 PUSH1 0x20 DUP3 DUP5 SUB SLT ISZERO PUSH2 0x11D3 JUMPI PUSH1 0x0 DUP1 REVERT JUMPDEST POP CALLDATALOAD SWAP2 SWAP1 POP JUMP JUMPDEST PUSH1 0x0 DUP1 PUSH1 0x0 PUSH1 0x60 DUP5 DUP7 SUB SLT ISZERO PUSH2 0x11EF JUMPI PUSH1 0x0 DUP1 REVERT JUMPDEST DUP4 CALLDATALOAD PUSH8 0xFFFFFFFFFFFFFFFF DUP2 GT ISZERO PUSH2 0x1206 JUMPI PUSH1 0x0 DUP1 REVERT JUMPDEST DUP5 ADD PUSH2 0x160 DUP2 DUP8 SUB SLT ISZERO PUSH2 0x1219 JUMPI PUSH1 0x0 DUP1 REVERT JUMPDEST SWAP6 PUSH1 0x20 DUP6 ADD CALLDATALOAD SWAP6 POP PUSH1 0x40 SWAP1 SWAP5 ADD CALLDATALOAD SWAP4 SWAP3 POP POP POP JUMP JUMPDEST PUSH1 0x40 DUP2 MSTORE PUSH1 0x0 DUP4 MLOAD DUP1 PUSH1 0x40 DUP5 ADD MSTORE PUSH1 0x0 JUMPDEST DUP2 DUP2 LT ISZERO PUSH2 0x125C JUMPI PUSH1 0x20 DUP2 DUP8 ADD DUP2 ADD MLOAD PUSH1 0x60 DUP7 DUP5 ADD ADD MSTORE ADD PUSH2 0x123F JUMP JUMPDEST POP PUSH1 0x0 PUSH1 0x60 DUP3 DUP6 ADD ADD MSTORE PUSH1 0x60 PUSH1 0x1F NOT PUSH1 0x1F DUP4 ADD AND DUP5 ADD ADD SWAP2 POP POP DUP3 PUSH1 0x20 DUP4 ADD MSTORE SWAP4 SWAP3 POP POP POP JUMP JUMPDEST PUSH1 0x0 DUP1 PUSH1 0x0 PUSH1 0x60 DUP5 DUP7 SUB SLT ISZERO PUSH2 0x1298 JUMPI PUSH1 0x0 DUP1 REVERT JUMPDEST DUP4 CALLDATALOAD PUSH2 0x1219 DUP2 PUSH2 0x1060 JUMP JUMPDEST PUSH4 0x4E487B71 PUSH1 0xE0 SHL PUSH1 0x0 MSTORE PUSH1 0x21 PUSH1 0x4 MSTORE PUSH1 0x24 PUSH1 0x0 REVERT JUMPDEST PUSH4 0x4E487B71 PUSH1 0xE0 SHL PUSH1 0x0 MSTORE PUSH1 0x11 PUSH1 0x4 MSTORE PUSH1 0x24 PUSH1 0x0 REVERT JUMPDEST DUP2 DUP2 SUB DUP2 DUP2 GT ISZERO PUSH2 0xE25 JUMPI PUSH2 0xE25 PUSH2 0x12B9 JUMP JUMPDEST PUSH1 0x0 DUP1 DUP4 CALLDATALOAD PUSH1 0x1E NOT DUP5 CALLDATASIZE SUB ADD DUP2 SLT PUSH2 0x12F9 JUMPI PUSH1 0x0 DUP1 REVERT JUMPDEST DUP4 ADD DUP1 CALLDATALOAD SWAP2 POP PUSH8 0xFFFFFFFFFFFFFFFF DUP3 GT ISZERO PUSH2 0x1314 JUMPI PUSH1 0x0 DUP1 REVERT JUMPDEST PUSH1 0x20 ADD SWAP2 POP CALLDATASIZE DUP2 SWAP1 SUB DUP3 SGT ISZERO PUSH2 0x1329 JUMPI PUSH1 0x0 DUP1 REVERT JUMPDEST SWAP3 POP SWAP3 SWAP1 POP JUMP JUMPDEST DUP1 DUP3 ADD DUP1 DUP3 GT ISZERO PUSH2 0xE25 JUMPI PUSH2 0xE25 PUSH2 0x12B9 JUMP JUMPDEST PUSH1 0x0 DUP1 DUP6 DUP6 GT ISZERO PUSH2 0x1353 JUMPI PUSH1 0x0 DUP1 REVERT JUMPDEST DUP4 DUP7 GT ISZERO PUSH2 0x1360 JUMPI PUSH1 0x0 DUP1 REVERT JUMPDEST POP POP DUP3 ADD SWAP4 SWAP2 SWAP1 SWAP3 SUB SWAP2 POP JUMP JUMPDEST PUSH1 0x1 PUSH1 0x1 PUSH1 0xD0 SHL SUB NOT DUP2 CALLDATALOAD DUP2 DUP2 AND SWAP2 PUSH1 0x6 DUP6 LT ISZERO PUSH2 0x1395 JUMPI DUP1 DUP2 DUP7 PUSH1 0x6 SUB PUSH1 0x3 SHL SHL DUP4 AND AND SWAP3 POP JUMPDEST POP POP SWAP3 SWAP2 POP POP JUMP INVALID LOG2 PUSH5 0x6970667358 0x22 SLT KECCAK256 0xC3 SWAP15 MLOAD 0xC5 MLOAD CALLDATACOPY ADD SSTORE 0x4D 0xD9 CALL BYTE 0x28 SWAP10 0xEF PUSH2 0xA9A4 SLT 0xB1 0xED 0x24 0xC7 SDIV 0xD3 SELFDESTRUCT 0x2E DUP12 MOD 0xB6 0x5C CALLDATALOAD PUSH5 0x736F6C6343 STOP ADDMOD EQ STOP CALLER "},"methodIdentifiers":{"STAKE_MINIMUM()":"b8239b40","UNSTAKE_DELAY_SEC()":"8b51ad5d","deposit()":"d0e30db0","entryPoint()":"b0d691fe","getPaymasterStats()":"d8de4081","getUserInfo(address)":"6386c1c7","globalSpendLimit()":"f4345727","owner()":"8da5cb5b","paymasterEnabled()":"ac6238fc","postOp(uint8,bytes,uint256)":"a9a23409","processedOperations(bytes32)":"e3a87470","renounceOwnership()":"715018a6","resetSpending()":"6c882798","resetUserSpending(address)":"416cd44d","setUserSpendLimit(address,uint256)":"cd6f0b94","setWhitelist(address,bool)":"53d6fd59","totalSpent()":"fb346eab","transferOwnership(address)":"f2fde38b","updateConfig(uint256,bool)":"8322408b","userSpendLimits(address)":"a1898d23","userSpentAmounts(address)":"149317a1","validatePaymasterUserOp((address,uint256,bytes,bytes,uint256,uint256,uint256,uint256,uint256,bytes,bytes),bytes32,uint256)":"f465c77e","whitelist(address)":"9b19251a","withdraw(address,uint256)":"f3fef3a3"}}}}}