{"contracts/EntryPoint.sol":{"EntryPoint":{"abi":[{"inputs":[],"stateMutability":"nonpayable","type":"constructor"},{"inputs":[{"internalType":"uint256","name":"opIndex","type":"uint256"},{"internalType":"string","name":"reason","type":"string"}],"name":"FailedOp","type":"error"},{"inputs":[],"name":"InvalidStake","type":"error"},{"inputs":[],"name":"PaymasterValidationFailed","type":"error"},{"inputs":[],"name":"ReentrancyGuardReentrantCall","type":"error"},{"inputs":[],"name":"SignatureValidationFailed","type":"error"},{"inputs":[],"name":"StakeTooLow","type":"error"},{"inputs":[],"name":"StakeWithdrawTooSoon","type":"error"},{"anonymous":false,"inputs":[{"indexed":true,"internalType":"bytes32","name":"userOpHash","type":"bytes32"},{"indexed":true,"internalType":"address","name":"sender","type":"address"},{"indexed":false,"internalType":"address","name":"factory","type":"address"},{"indexed":false,"internalType":"address","name":"paymaster","type":"address"}],"name":"AccountDeployed","type":"event"},{"anonymous":false,"inputs":[{"indexed":true,"internalType":"address","name":"account","type":"address"},{"indexed":false,"internalType":"uint256","name":"totalDeposit","type":"uint256"}],"name":"Deposited","type":"event"},{"anonymous":false,"inputs":[{"indexed":true,"internalType":"address","name":"account","type":"address"},{"indexed":false,"internalType":"uint256","name":"totalStaked","type":"uint256"},{"indexed":false,"internalType":"uint256","name":"unstakeDelaySec","type":"uint256"}],"name":"StakeLocked","type":"event"},{"anonymous":false,"inputs":[{"indexed":true,"internalType":"address","name":"account","type":"address"},{"indexed":false,"internalType":"uint256","name":"withdrawTime","type":"uint256"}],"name":"StakeUnlocked","type":"event"},{"anonymous":false,"inputs":[{"indexed":true,"internalType":"address","name":"account","type":"address"},{"indexed":false,"internalType":"address","name":"withdrawAddress","type":"address"},{"indexed":false,"internalType":"uint256","name":"amount","type":"uint256"}],"name":"StakeWithdrawn","type":"event"},{"anonymous":false,"inputs":[{"indexed":true,"internalType":"bytes32","name":"userOpHash","type":"bytes32"},{"indexed":true,"internalType":"address","name":"sender","type":"address"},{"indexed":true,"internalType":"address","name":"paymaster","type":"address"},{"indexed":false,"internalType":"uint256","name":"nonce","type":"uint256"},{"indexed":false,"internalType":"bool","name":"success","type":"bool"},{"indexed":false,"internalType":"uint256","name":"actualGasCost","type":"uint256"},{"indexed":false,"internalType":"uint256","name":"actualGasUsed","type":"uint256"}],"name":"UserOperationEvent","type":"event"},{"anonymous":false,"inputs":[{"indexed":true,"internalType":"address","name":"account","type":"address"},{"indexed":false,"internalType":"address","name":"withdrawAddress","type":"address"},{"indexed":false,"internalType":"uint256","name":"amount","type":"uint256"}],"name":"Withdrawn","type":"event"},{"inputs":[],"name":"STAKE_MINIMUM","outputs":[{"internalType":"uint256","name":"","type":"uint256"}],"stateMutability":"view","type":"function"},{"inputs":[],"name":"UNSTAKE_DELAY_SEC","outputs":[{"internalType":"uint256","name":"","type":"uint256"}],"stateMutability":"view","type":"function"},{"inputs":[{"components":[{"internalType":"address","name":"sender","type":"address"},{"internalType":"uint256","name":"nonce","type":"uint256"},{"internalType":"bytes","name":"initCode","type":"bytes"},{"internalType":"bytes","name":"callData","type":"bytes"},{"internalType":"uint256","name":"callGasLimit","type":"uint256"},{"internalType":"uint256","name":"verificationGasLimit","type":"uint256"},{"internalType":"uint256","name":"preVerificationGas","type":"uint256"},{"internalType":"uint256","name":"maxFeePerGas","type":"uint256"},{"internalType":"uint256","name":"maxPriorityFeePerGas","type":"uint256"},{"internalType":"bytes","name":"paymasterAndData","type":"bytes"},{"internalType":"bytes","name":"signature","type":"bytes"}],"internalType":"struct IUserOperation.UserOperation","name":"userOp","type":"tuple"},{"internalType":"bytes32","name":"userOpHash","type":"bytes32"},{"internalType":"uint256","name":"opIndex","type":"uint256"}],"name":"_validateAndExecuteOp","outputs":[{"internalType":"uint256","name":"actualGasCost","type":"uint256"}],"stateMutability":"nonpayable","type":"function"},{"inputs":[{"internalType":"uint256","name":"unstakeDelaySec","type":"uint256"}],"name":"addStake","outputs":[],"stateMutability":"payable","type":"function"},{"inputs":[{"internalType":"address","name":"","type":"address"}],"name":"balanceOf","outputs":[{"internalType":"uint256","name":"","type":"uint256"}],"stateMutability":"view","type":"function"},{"inputs":[],"name":"chainId","outputs":[{"internalType":"uint256","name":"","type":"uint256"}],"stateMutability":"view","type":"function"},{"inputs":[{"internalType":"address","name":"account","type":"address"}],"name":"depositTo","outputs":[],"stateMutability":"payable","type":"function"},{"inputs":[{"components":[{"internalType":"address","name":"sender","type":"address"},{"internalType":"uint256","name":"nonce","type":"uint256"},{"internalType":"bytes","name":"initCode","type":"bytes"},{"internalType":"bytes","name":"callData","type":"bytes"},{"internalType":"uint256","name":"callGasLimit","type":"uint256"},{"internalType":"uint256","name":"verificationGasLimit","type":"uint256"},{"internalType":"uint256","name":"preVerificationGas","type":"uint256"},{"internalType":"uint256","name":"maxFeePerGas","type":"uint256"},{"internalType":"uint256","name":"maxPriorityFeePerGas","type":"uint256"},{"internalType":"bytes","name":"paymasterAndData","type":"bytes"},{"internalType":"bytes","name":"signature","type":"bytes"}],"internalType":"struct IUserOperation.UserOperation[]","name":"ops","type":"tuple[]"},{"internalType":"address payable","name":"beneficiary","type":"address"}],"name":"handleOps","outputs":[],"stateMutability":"nonpayable","type":"function"},{"inputs":[{"components":[{"internalType":"address","name":"sender","type":"address"},{"internalType":"uint256","name":"nonce","type":"uint256"},{"internalType":"bytes","name":"initCode","type":"bytes"},{"internalType":"bytes","name":"callData","type":"bytes"},{"internalType":"uint256","name":"callGasLimit","type":"uint256"},{"internalType":"uint256","name":"verificationGasLimit","type":"uint256"},{"internalType":"uint256","name":"preVerificationGas","type":"uint256"},{"internalType":"uint256","name":"maxFeePerGas","type":"uint256"},{"internalType":"uint256","name":"maxPriorityFeePerGas","type":"uint256"},{"internalType":"bytes","name":"paymasterAndData","type":"bytes"},{"internalType":"bytes","name":"signature","type":"bytes"}],"internalType":"struct IUserOperation.UserOperation","name":"userOp","type":"tuple"}],"name":"simulateValidation","outputs":[{"components":[{"internalType":"uint256","name":"preOpGas","type":"uint256"},{"internalType":"uint256","name":"prefund","type":"uint256"},{"internalType":"bool","name":"sigFailed","type":"bool"},{"internalType":"uint48","name":"validAfter","type":"uint48"},{"internalType":"uint48","name":"validUntil","type":"uint48"},{"internalType":"bytes","name":"paymasterContext","type":"bytes"}],"internalType":"struct IUserOperation.ValidationResult","name":"validationResult","type":"tuple"}],"stateMutability":"nonpayable","type":"function"},{"inputs":[{"internalType":"address","name":"","type":"address"}],"name":"stakes","outputs":[{"internalType":"uint256","name":"stake","type":"uint256"},{"internalType":"uint256","name":"unstakeDelaySec","type":"uint256"},{"internalType":"uint256","name":"withdrawTime","type":"uint256"}],"stateMutability":"view","type":"function"},{"inputs":[{"internalType":"bytes4","name":"interfaceId","type":"bytes4"}],"name":"supportsInterface","outputs":[{"internalType":"bool","name":"","type":"bool"}],"stateMutability":"view","type":"function"},{"inputs":[],"name":"unlockStake","outputs":[],"stateMutability":"nonpayable","type":"function"},{"inputs":[{"internalType":"bytes32","name":"","type":"bytes32"}],"name":"userOpInfo","outputs":[{"internalType":"uint256","name":"preOpGas","type":"uint256"},{"internalType":"uint256","name":"prefund","type":"uint256"},{"internalType":"bool","name":"success","type":"bool"},{"internalType":"uint256","name":"actualGasCost","type":"uint256"}],"stateMutability":"view","type":"function"},{"inputs":[{"internalType":"address payable","name":"withdrawAddress","type":"address"}],"name":"withdrawStake","outputs":[],"stateMutability":"nonpayable","type":"function"},{"inputs":[{"internalType":"address payable","name":"withdrawAddress","type":"address"},{"internalType":"uint256","name":"withdrawAmount","type":"uint256"}],"name":"withdrawTo","outputs":[],"stateMutability":"nonpayable","type":"function"},{"stateMutability":"payable","type":"receive"}],"evm":{"bytecode":{"linkReferences":{},"object":"60a060405234801561001057600080fd5b50600160005546608052608051611f2d610051600039600081816102b101528181610c6f01528181610fc70152818161106801526111950152611f2d6000f3fe6080604052600436106100ec5760003560e01c80639a8a05921161008a578063bb9fe6bf11610059578063bb9fe6bf1461036f578063c23a5cea14610384578063eb4f16b5146103a4578063ee219423146103b757600080fd5b80639a8a05921461029f578063adb4bcc4146102d3578063b760faf914610340578063b8239b401461035357600080fd5b8063205c2878116100c6578063205c28781461020d57806370a082311461022d5780637a1eac1f146102685780638b51ad5d1461028857600080fd5b806301ffc9a71461016057806316934fc4146101955780631fad948c146101eb57600080fd5b3661015b573360009081526001602052604081208054349290610110908490611632565b9091555050336000818152600160209081526040918290205491519182527f2da466a7b24304f47e87fa2e1e5a81b9831ce54fec19055ce277ca2f39ba42c4910160405180910390a2005b600080fd5b34801561016c57600080fd5b5061018061017b366004611645565b6103e4565b60405190151581526020015b60405180910390f35b3480156101a157600080fd5b506101d06101b0366004611694565b600260208190526000918252604090912080546001820154919092015483565b6040805193845260208401929092529082015260600161018c565b3480156101f757600080fd5b5061020b6102063660046116b1565b610401565b005b34801561021957600080fd5b5061020b610228366004611737565b610581565b34801561023957600080fd5b5061025a610248366004611694565b60016020526000908152604090205481565b60405190815260200161018c565b34801561027457600080fd5b5061025a61028336600461177c565b6106ee565b34801561029457600080fd5b5061025a6201518081565b3480156102ab57600080fd5b5061025a7f000000000000000000000000000000000000000000000000000000000000000081565b3480156102df57600080fd5b5061031a6102ee3660046117ca565b6003602081905260009182526040909120805460018201546002830154929093015490929160ff169084565b60408051948552602085019390935290151591830191909152606082015260800161018c565b61020b61034e366004611694565b610823565b34801561035f57600080fd5b5061025a670de0b6b3a764000081565b34801561037b57600080fd5b5061020b6108a1565b34801561039057600080fd5b5061020b61039f366004611694565b61093d565b61020b6103b23660046117ca565b610ac1565b3480156103c357600080fd5b506103d76103d23660046117e3565b610b31565b60405161018c9190611868565b60006301ffc9a760e01b6001600160e01b03198316145b92915050565b610409610c37565b818061045c5760405162461bcd60e51b815260206004820152601b60248201527f456e747279506f696e743a20656d707479206f7073206172726179000000000060448201526064015b60405180910390fd5b6000805b828110156104b4576104968187878481811061047e5761047e6118c5565b905060200281019061049091906118db565b86610c61565b6104a09083611632565b9150806104ac816118fc565b915050610460565b508015610570576000836001600160a01b03168260405160006040518083038185875af1925050503d8060008114610508576040519150601f19603f3d011682016040523d82523d6000602084013e61050d565b606091505b505090508061056e5760405162461bcd60e51b815260206004820152602760248201527f456e747279506f696e743a2062656e6566696369617279207472616e736665726044820152660819985a5b195960ca1b6064820152608401610453565b505b505061057c6001600055565b505050565b336000908152600160205260409020548111156105e05760405162461bcd60e51b815260206004820181905260248201527f456e747279506f696e743a20696e73756666696369656e742062616c616e63656044820152606401610453565b33600090815260016020526040812080548392906105ff908490611915565b90915550506040516000906001600160a01b0384169083908381818185875af1925050503d806000811461064f576040519150601f19603f3d011682016040523d82523d6000602084013e610654565b606091505b50509050806106a55760405162461bcd60e51b815260206004820152601d60248201527f456e747279506f696e743a207769746864726177616c206661696c65640000006044820152606401610453565b604080516001600160a01b03851681526020810184905233917fd1c19fbcd4551a5edfb66d43d2e337c04837afda3482b42bdf569a8fccdae5fb910160405180910390a2505050565b600033301461073f5760405162461bcd60e51b815260206004820152601a60248201527f456e747279506f696e743a206f6e6c792073656c662063616c6c0000000000006044820152606401610453565b61074884610e5d565b6000610755856000611044565b90508060010361077857604051632fdec18b60e01b815260040160405180910390fd5b6060600061078a610120880188611928565b905011156107c757600061079f8760006110fd565b9250905060018190036107c557604051631bfa960960e11b815260040160405180910390fd5b505b608086013560008190036107e65761c3505a6107e39190611915565b90505b600061080b6107f860208a018a611694565b61080560608b018b611928565b8561124c565b905061081788826112c9565b98975050505050505050565b6001600160a01b0381166000908152600160205260408120805434929061084b908490611632565b90915550506001600160a01b0381166000818152600160209081526040918290205491519182527f2da466a7b24304f47e87fa2e1e5a81b9831ce54fec19055ce277ca2f39ba42c491015b60405180910390a250565b33600090815260026020526040902080546108f55760405162461bcd60e51b8152602060048201526014602482015273456e747279506f696e743a206e6f207374616b6560601b6044820152606401610453565b60018101546109049042611632565b6002820181905560405190815233907ffa9b3c14cc825c412c9ed81b3ba365a5b459439403f18829e572ed53a4180f0a90602001610896565b3360009081526002602081905260409091209081015415801590610965575080600201544210155b6109bf5760405162461bcd60e51b815260206004820152602560248201527f456e747279506f696e743a207374616b65207769746864726177616c20746f6f6044820152641039b7b7b760d91b6064820152608401610453565b80546000808355600283018190556040516001600160a01b0385169083908381818185875af1925050503d8060008114610a15576040519150601f19603f3d011682016040523d82523d6000602084013e610a1a565b606091505b5050905080610a775760405162461bcd60e51b815260206004820152602360248201527f456e747279506f696e743a207374616b65207769746864726177616c206661696044820152621b195960ea1b6064820152608401610453565b604080516001600160a01b03861681526020810184905233917fb7c918e0e249f999e965cafeb6c664271b3f4317d296461500e71da39f0cbda3910160405180910390a250505050565b336000908152600260205260408120805490913491839190610ae4908490611632565b9091555050600181018290558054604080519182526020820184905233917fa5ae833d0bb1dcd632d98a8b70973e8516812898e19bf27b70071ebc8dc52c01910160405180910390a25050565b610b7c6040518060c001604052806000815260200160008152602001600015158152602001600065ffffffffffff168152602001600065ffffffffffff168152602001606081525090565b60005a9050610b8a83610e5d565b60005a610b979083611915565b90506000610ba58583611044565b90506060600080610bba610120890189611928565b90501115610bd157610bcc87856110fd565b925090505b60005a610bde9087611915565b90506000610bec8983611310565b6040805160c081018252938452602084019190915260018614908301525060a084811c65ffffffffffff16606083015260d09490941c60808201529283019190915250949350505050565b600260005403610c5a57604051633ee5aeb560e01b815260040160405180910390fd5b6002600055565b6000805a90506000610c9e307f0000000000000000000000000000000000000000000000000000000000000000610c9788611a60565b9190611359565b600081815260036020526040908190208481559051637a1eac1f60e01b8152919250903090637a1eac1f90610cdb90899086908c90600401611bde565b6020604051808303816000875af1925050508015610d16575060408051601f3d908101601f19168201909252610d1391810190611cfb565b60015b610da257610d22611d14565b806308c379a003610d5e5750610d36611d30565b80610d415750610d60565b8781604051631101335b60e11b8152600401610453929190611dba565b505b86604051631101335b60e11b8152600401610453918152604060208201819052600d908201526c2ab735b737bbb71032b93937b960991b606082015260800190565b60028201805460ff1916600117905560038201819055935060005a610dc79085611915565b9050610dd2876113a7565b6001600160a01b0316610de86020890189611694565b600284015460038501546040805160208d810135825260ff909416151593810193909352820152606081018490526001600160a01b03919091169085907f49628fd1471006c1482da88028e9ce4dbb080b815c9b0344d39e5a8e6ec1419f9060800160405180910390a4505050509392505050565b6000610e6c6040830183611928565b90501115611041576000610e836040830183611928565b610e9291601491600091611dd3565b610e9b91611dfd565b60601c90506000610eaf6040840184611928565b610ebd916014908290611dd3565b8080601f0160208091040260200160405190810160405280939291908181526020018383808284376000920182905250604051949550936001600160a01b0387169350610f0d9250859150611e32565b6000604051808303816000865af19150503d8060008114610f4a576040519150601f19603f3d011682016040523d82523d6000602084013e610f4f565b606091505b5050905080610fab5760405162461bcd60e51b815260206004820152602260248201527f456e747279506f696e743a2077616c6c6574206372656174696f6e206661696c604482015261195960f21b6064820152608401610453565b610fb86020850185611694565b6001600160a01b0316610fef307f0000000000000000000000000000000000000000000000000000000000000000610c9788611a60565b7fd51a9c61267aa6196961883ecf5ff2da6619c37dac0fa92122513fb32c032d2d8561101a886113a7565b604080516001600160a01b0393841681529290911660208301520160405180910390a35050505b50565b60006110536020840184611694565b6001600160a01b0316633a871cdd84611090307f0000000000000000000000000000000000000000000000000000000000000000610c9784611a60565b856040518463ffffffff1660e01b81526004016110af93929190611bde565b6020604051808303816000875af19250505080156110ea575060408051601f3d908101601f191682019092526110e791810190611cfb565b60015b6110f6575060016103fb565b9392505050565b60006060600061110c856113a7565b6001600160a01b038116600090815260026020526040902054909150670de0b6b3a7640000111561117f5760405162461bcd60e51b815260206004820152601d60248201527f5061796d61737465723a20696e73756666696369656e74207374616b650000006044820152606401610453565b6001600160a01b03811663f465c77e866111bd307f0000000000000000000000000000000000000000000000000000000000000000610c9784611a60565b876040518463ffffffff1660e01b81526004016111dc93929190611bde565b6000604051808303816000875af192505050801561121c57506040513d6000823e601f3d908101601f191682016040526112199190810190611e44565b60015b61123a57505060408051602081019091526000815260019150611245565b935091506112459050565b9250929050565b600082156112bd57846001600160a01b031682858560405161126f929190611ed0565b60006040518083038160008787f1925050503d80600081146112ad576040519150601f19603f3d011682016040523d82523d6000602084013e6112b2565b606091505b5050809150506112c1565b5060015b949350505050565b600080826112dc578361010001356112e2565b8360e001355b90508060c08501356112fc60a08701356080880135611632565b6113069190611632565b6112c19190611ee0565b600060e08301358160c085013561132f60a08701356080880135611632565b6113399190611632565b9050816113468583611632565b6113509190611ee0565b95945050505050565b6000611364846113f7565b6040805160208101929092526001600160a01b03851690820152606081018390526080016040516020818303038152906040528051906020012090509392505050565b60006113b7610120830183611928565b90506000036113c857506000919050565b6113d6610120830183611928565b6113e591601491600091611dd3565b6113ee91611dfd565b60601c92915050565b60008060008060608561012001515160000361142b575050604080516020810190915260008082529250829150819061152a565b6101208601516014810151815190955060341161144a57603481015193505b605481511061145b57605481015192505b60548151111561152857605481516114739190611915565b67ffffffffffffffff81111561148b5761148b61196f565b6040519080825280601f01601f1916602001820160405280156114b5576020820181803683370190505b50915060005b825181101561152657816114d0826054611632565b815181106114e0576114e06118c5565b602001015160f81c60f81b8382815181106114fd576114fd6118c5565b60200101906001600160f81b031916908160001a9053508061151e816118fc565b9150506114bb565b505b505b8560000151866020015187604001518051906020012088606001518051906020012089608001518a60a001518b60c001518c60e001518d61010001518c8c8c8c805190602001206040516020016115fb9d9c9b9a999897969594939291906001600160a01b039d8e168152602081019c909c5260408c019a909a5260608b019890985260808a019690965260a089019490945260c088019290925260e08701526101008601529094166101208401526101408301939093526101608201929092526101808101919091526101a00190565b60405160208183030381529060405280519060200120945050505050919050565b634e487b7160e01b600052601160045260246000fd5b808201808211156103fb576103fb61161c565b60006020828403121561165757600080fd5b81356001600160e01b0319811681146110f657600080fd5b6001600160a01b038116811461104157600080fd5b803561168f8161166f565b919050565b6000602082840312156116a657600080fd5b81356110f68161166f565b6000806000604084860312156116c657600080fd5b833567ffffffffffffffff808211156116de57600080fd5b818601915086601f8301126116f257600080fd5b81358181111561170157600080fd5b8760208260051b850101111561171657600080fd5b6020928301955093505084013561172c8161166f565b809150509250925092565b6000806040838503121561174a57600080fd5b82356117558161166f565b946020939093013593505050565b6000610160828403121561177657600080fd5b50919050565b60008060006060848603121561179157600080fd5b833567ffffffffffffffff8111156117a857600080fd5b6117b486828701611763565b9660208601359650604090950135949350505050565b6000602082840312156117dc57600080fd5b5035919050565b6000602082840312156117f557600080fd5b813567ffffffffffffffff81111561180c57600080fd5b6112c184828501611763565b60005b8381101561183357818101518382015260200161181b565b50506000910152565b60008151808452611854816020860160208601611818565b601f01601f19169290920160200192915050565b6020815281516020820152602082015160408201526040820151151560608201526000606083015165ffffffffffff80821660808501528060808601511660a0850152505060a083015160c0808401526112c160e084018261183c565b634e487b7160e01b600052603260045260246000fd5b6000823561015e198336030181126118f257600080fd5b9190910192915050565b60006001820161190e5761190e61161c565b5060010190565b818103818111156103fb576103fb61161c565b6000808335601e1984360301811261193f57600080fd5b83018035915067ffffffffffffffff82111561195a57600080fd5b60200191503681900382131561124557600080fd5b634e487b7160e01b600052604160045260246000fd5b601f8201601f1916810167ffffffffffffffff811182821017156119ab576119ab61196f565b6040525050565b604051610160810167ffffffffffffffff811182821017156119d6576119d661196f565b60405290565b600067ffffffffffffffff8211156119f6576119f661196f565b50601f01601f191660200190565b600082601f830112611a1557600080fd5b8135611a20816119dc565b604051611a2d8282611985565b828152856020848701011115611a4257600080fd5b82602086016020830137600092810160200192909252509392505050565b60006101608236031215611a7357600080fd5b611a7b6119b2565b611a8483611684565b815260208301356020820152604083013567ffffffffffffffff80821115611aab57600080fd5b611ab736838701611a04565b60408401526060850135915080821115611ad057600080fd5b611adc36838701611a04565b60608401526080850135608084015260a085013560a084015260c085013560c084015260e085013560e08401526101009150818501358284015261012091508185013581811115611b2c57600080fd5b611b3836828801611a04565b838501525061014091508185013581811115611b5357600080fd5b611b5f36828801611a04565b8385015250505080915050919050565b6000808335601e19843603018112611b8657600080fd5b830160208101925035905067ffffffffffffffff811115611ba657600080fd5b80360382131561124557600080fd5b81835281816020850137506000828201602090810191909152601f909101601f19169091010190565b60608152611bff60608201611bf286611684565b6001600160a01b03169052565b602084013560808201526000611c186040860186611b6f565b6101608060a0860152611c306101c086018385611bb5565b9250611c3f6060890189611b6f565b9250605f19808786030160c0880152611c59858584611bb5565b945060808a013560e0880152610100935060a08a013584880152610120915060c08a01358288015261014060e08b013581890152848b013584890152611ca1838c018c611b6f565b955093508188870301610180890152611cbb868686611bb5565b9550611cc9818c018c611b6f565b955093505080878603016101a08801525050611ce6838383611bb5565b60208601979097525050505060400152919050565b600060208284031215611d0d57600080fd5b5051919050565b600060033d1115611d2d5760046000803e5060005160e01c5b90565b600060443d1015611d3e5790565b6040516003193d81016004833e81513d67ffffffffffffffff8160248401118184111715611d6e57505050505090565b8285019150815181811115611d865750505050505090565b843d8701016020828501011115611da05750505050505090565b611daf60208286010187611985565b509095945050505050565b8281526040602082015260006112c1604083018461183c565b60008085851115611de357600080fd5b83861115611df057600080fd5b5050820193919092039150565b6bffffffffffffffffffffffff198135818116916014851015611e2a5780818660140360031b1b83161692505b505092915050565b600082516118f2818460208701611818565b60008060408385031215611e5757600080fd5b825167ffffffffffffffff811115611e6e57600080fd5b8301601f81018513611e7f57600080fd5b8051611e8a816119dc565b604051611e978282611985565b828152876020848601011115611eac57600080fd5b611ebd836020830160208701611818565b6020969096015195979596505050505050565b8183823760009101908152919050565b80820281158282048414176103fb576103fb61161c56fea264697066735822122062ca91c1d8209b625c0aa78d0fc0947bec0367c01bb6591f13ca9900e7cf832c64736f6c63430008140033","opcodes":"PUSH1 0xA0 PUSH1 0x40 MSTORE CALLVALUE DUP1 ISZERO PUSH2 0x10 JUMPI PUSH1 0x0 DUP1 REVERT JUMPDEST POP PUSH1 0x1 PUSH1 0x0 SSTORE CHAINID PUSH1 0x80 MSTORE PUSH1 0x80 MLOAD PUSH2 0x1F2D PUSH2 0x51 PUSH1 0x0 CODECOPY PUSH1 0x0 DUP2 DUP2 PUSH2 0x2B1 ADD MSTORE DUP2 DUP2 PUSH2 0xC6F ADD MSTORE DUP2 DUP2 PUSH2 0xFC7 ADD MSTORE DUP2 DUP2 PUSH2 0x1068 ADD MSTORE PUSH2 0x1195 ADD MSTORE PUSH2 0x1F2D PUSH1 0x0 RETURN INVALID PUSH1 0x80 PUSH1 0x40 MSTORE PUSH1 0x4 CALLDATASIZE LT PUSH2 0xEC JUMPI PUSH1 0x0 CALLDATALOAD PUSH1 0xE0 SHR DUP1 PUSH4 0x9A8A0592 GT PUSH2 0x8A JUMPI DUP1 PUSH4 0xBB9FE6BF GT PUSH2 0x59 JUMPI DUP1 PUSH4 0xBB9FE6BF EQ PUSH2 0x36F JUMPI DUP1 PUSH4 0xC23A5CEA EQ PUSH2 0x384 JUMPI DUP1 PUSH4 0xEB4F16B5 EQ PUSH2 0x3A4 JUMPI DUP1 PUSH4 0xEE219423 EQ PUSH2 0x3B7 JUMPI PUSH1 0x0 DUP1 REVERT JUMPDEST DUP1 PUSH4 0x9A8A0592 EQ PUSH2 0x29F JUMPI DUP1 PUSH4 0xADB4BCC4 EQ PUSH2 0x2D3 JUMPI DUP1 PUSH4 0xB760FAF9 EQ PUSH2 0x340 JUMPI DUP1 PUSH4 0xB8239B40 EQ PUSH2 0x353 JUMPI PUSH1 0x0 DUP1 REVERT JUMPDEST DUP1 PUSH4 0x205C2878 GT PUSH2 0xC6 JUMPI DUP1 PUSH4 0x205C2878 EQ PUSH2 0x20D JUMPI DUP1 PUSH4 0x70A08231 EQ PUSH2 0x22D JUMPI DUP1 PUSH4 0x7A1EAC1F EQ PUSH2 0x268 JUMPI DUP1 PUSH4 0x8B51AD5D EQ PUSH2 0x288 JUMPI PUSH1 0x0 DUP1 REVERT JUMPDEST DUP1 PUSH4 0x1FFC9A7 EQ PUSH2 0x160 JUMPI DUP1 PUSH4 0x16934FC4 EQ PUSH2 0x195 JUMPI DUP1 PUSH4 0x1FAD948C EQ PUSH2 0x1EB JUMPI PUSH1 0x0 DUP1 REVERT JUMPDEST CALLDATASIZE PUSH2 0x15B JUMPI CALLER PUSH1 0x0 SWAP1 DUP2 MSTORE PUSH1 0x1 PUSH1 0x20 MSTORE PUSH1 0x40 DUP2 KECCAK256 DUP1 SLOAD CALLVALUE SWAP3 SWAP1 PUSH2 0x110 SWAP1 DUP5 SWAP1 PUSH2 0x1632 JUMP JUMPDEST SWAP1 SWAP2 SSTORE POP POP CALLER PUSH1 0x0 DUP2 DUP2 MSTORE PUSH1 0x1 PUSH1 0x20 SWAP1 DUP2 MSTORE PUSH1 0x40 SWAP2 DUP3 SWAP1 KECCAK256 SLOAD SWAP2 MLOAD SWAP2 DUP3 MSTORE PUSH32 0x2DA466A7B24304F47E87FA2E1E5A81B9831CE54FEC19055CE277CA2F39BA42C4 SWAP2 ADD PUSH1 0x40 MLOAD DUP1 SWAP2 SUB SWAP1 LOG2 STOP JUMPDEST PUSH1 0x0 DUP1 REVERT JUMPDEST CALLVALUE DUP1 ISZERO PUSH2 0x16C JUMPI PUSH1 0x0 DUP1 REVERT JUMPDEST POP PUSH2 0x180 PUSH2 0x17B CALLDATASIZE PUSH1 0x4 PUSH2 0x1645 JUMP JUMPDEST PUSH2 0x3E4 JUMP JUMPDEST PUSH1 0x40 MLOAD SWAP1 ISZERO ISZERO DUP2 MSTORE PUSH1 0x20 ADD JUMPDEST PUSH1 0x40 MLOAD DUP1 SWAP2 SUB SWAP1 RETURN JUMPDEST CALLVALUE DUP1 ISZERO PUSH2 0x1A1 JUMPI PUSH1 0x0 DUP1 REVERT JUMPDEST POP PUSH2 0x1D0 PUSH2 0x1B0 CALLDATASIZE PUSH1 0x4 PUSH2 0x1694 JUMP JUMPDEST PUSH1 0x2 PUSH1 0x20 DUP2 SWAP1 MSTORE PUSH1 0x0 SWAP2 DUP3 MSTORE PUSH1 0x40 SWAP1 SWAP2 KECCAK256 DUP1 SLOAD PUSH1 0x1 DUP3 ADD SLOAD SWAP2 SWAP1 SWAP3 ADD SLOAD DUP4 JUMP JUMPDEST PUSH1 0x40 DUP1 MLOAD SWAP4 DUP5 MSTORE PUSH1 0x20 DUP5 ADD SWAP3 SWAP1 SWAP3 MSTORE SWAP1 DUP3 ADD MSTORE PUSH1 0x60 ADD PUSH2 0x18C JUMP JUMPDEST CALLVALUE DUP1 ISZERO PUSH2 0x1F7 JUMPI PUSH1 0x0 DUP1 REVERT JUMPDEST POP PUSH2 0x20B PUSH2 0x206 CALLDATASIZE PUSH1 0x4 PUSH2 0x16B1 JUMP JUMPDEST PUSH2 0x401 JUMP JUMPDEST STOP JUMPDEST CALLVALUE DUP1 ISZERO PUSH2 0x219 JUMPI PUSH1 0x0 DUP1 REVERT JUMPDEST POP PUSH2 0x20B PUSH2 0x228 CALLDATASIZE PUSH1 0x4 PUSH2 0x1737 JUMP JUMPDEST PUSH2 0x581 JUMP JUMPDEST CALLVALUE DUP1 ISZERO PUSH2 0x239 JUMPI PUSH1 0x0 DUP1 REVERT JUMPDEST POP PUSH2 0x25A PUSH2 0x248 CALLDATASIZE PUSH1 0x4 PUSH2 0x1694 JUMP JUMPDEST PUSH1 0x1 PUSH1 0x20 MSTORE PUSH1 0x0 SWAP1 DUP2 MSTORE PUSH1 0x40 SWAP1 KECCAK256 SLOAD DUP2 JUMP JUMPDEST PUSH1 0x40 MLOAD SWAP1 DUP2 MSTORE PUSH1 0x20 ADD PUSH2 0x18C JUMP JUMPDEST CALLVALUE DUP1 ISZERO PUSH2 0x274 JUMPI PUSH1 0x0 DUP1 REVERT JUMPDEST POP PUSH2 0x25A PUSH2 0x283 CALLDATASIZE PUSH1 0x4 PUSH2 0x177C JUMP JUMPDEST PUSH2 0x6EE JUMP JUMPDEST CALLVALUE DUP1 ISZERO PUSH2 0x294 JUMPI PUSH1 0x0 DUP1 REVERT JUMPDEST POP PUSH2 0x25A PUSH3 0x15180 DUP2 JUMP JUMPDEST CALLVALUE DUP1 ISZERO PUSH2 0x2AB JUMPI PUSH1 0x0 DUP1 REVERT JUMPDEST POP PUSH2 0x25A PUSH32 0x0 DUP2 JUMP JUMPDEST CALLVALUE DUP1 ISZERO PUSH2 0x2DF JUMPI PUSH1 0x0 DUP1 REVERT JUMPDEST POP PUSH2 0x31A PUSH2 0x2EE CALLDATASIZE PUSH1 0x4 PUSH2 0x17CA JUMP JUMPDEST PUSH1 0x3 PUSH1 0x20 DUP2 SWAP1 MSTORE PUSH1 0x0 SWAP2 DUP3 MSTORE PUSH1 0x40 SWAP1 SWAP2 KECCAK256 DUP1 SLOAD PUSH1 0x1 DUP3 ADD SLOAD PUSH1 0x2 DUP4 ADD SLOAD SWAP3 SWAP1 SWAP4 ADD SLOAD SWAP1 SWAP3 SWAP2 PUSH1 0xFF AND SWAP1 DUP5 JUMP JUMPDEST PUSH1 0x40 DUP1 MLOAD SWAP5 DUP6 MSTORE PUSH1 0x20 DUP6 ADD SWAP4 SWAP1 SWAP4 MSTORE SWAP1 ISZERO ISZERO SWAP2 DUP4 ADD SWAP2 SWAP1 SWAP2 MSTORE PUSH1 0x60 DUP3 ADD MSTORE PUSH1 0x80 ADD PUSH2 0x18C JUMP JUMPDEST PUSH2 0x20B PUSH2 0x34E CALLDATASIZE PUSH1 0x4 PUSH2 0x1694 JUMP JUMPDEST PUSH2 0x823 JUMP JUMPDEST CALLVALUE DUP1 ISZERO PUSH2 0x35F JUMPI PUSH1 0x0 DUP1 REVERT JUMPDEST POP PUSH2 0x25A PUSH8 0xDE0B6B3A7640000 DUP2 JUMP JUMPDEST CALLVALUE DUP1 ISZERO PUSH2 0x37B JUMPI PUSH1 0x0 DUP1 REVERT JUMPDEST POP PUSH2 0x20B PUSH2 0x8A1 JUMP JUMPDEST CALLVALUE DUP1 ISZERO PUSH2 0x390 JUMPI PUSH1 0x0 DUP1 REVERT JUMPDEST POP PUSH2 0x20B PUSH2 0x39F CALLDATASIZE PUSH1 0x4 PUSH2 0x1694 JUMP JUMPDEST PUSH2 0x93D JUMP JUMPDEST PUSH2 0x20B PUSH2 0x3B2 CALLDATASIZE PUSH1 0x4 PUSH2 0x17CA JUMP JUMPDEST PUSH2 0xAC1 JUMP JUMPDEST CALLVALUE DUP1 ISZERO PUSH2 0x3C3 JUMPI PUSH1 0x0 DUP1 REVERT JUMPDEST POP PUSH2 0x3D7 PUSH2 0x3D2 CALLDATASIZE PUSH1 0x4 PUSH2 0x17E3 JUMP JUMPDEST PUSH2 0xB31 JUMP JUMPDEST PUSH1 0x40 MLOAD PUSH2 0x18C SWAP2 SWAP1 PUSH2 0x1868 JUMP JUMPDEST PUSH1 0x0 PUSH4 0x1FFC9A7 PUSH1 0xE0 SHL PUSH1 0x1 PUSH1 0x1 PUSH1 0xE0 SHL SUB NOT DUP4 AND EQ JUMPDEST SWAP3 SWAP2 POP POP JUMP JUMPDEST PUSH2 0x409 PUSH2 0xC37 JUMP JUMPDEST DUP2 DUP1 PUSH2 0x45C JUMPI PUSH1 0x40 MLOAD PUSH3 0x461BCD PUSH1 0xE5 SHL DUP2 MSTORE PUSH1 0x20 PUSH1 0x4 DUP3 ADD MSTORE PUSH1 0x1B PUSH1 0x24 DUP3 ADD MSTORE PUSH32 0x456E747279506F696E743A20656D707479206F70732061727261790000000000 PUSH1 0x44 DUP3 ADD MSTORE PUSH1 0x64 ADD JUMPDEST PUSH1 0x40 MLOAD DUP1 SWAP2 SUB SWAP1 REVERT JUMPDEST PUSH1 0x0 DUP1 JUMPDEST DUP3 DUP2 LT ISZERO PUSH2 0x4B4 JUMPI PUSH2 0x496 DUP2 DUP8 DUP8 DUP5 DUP2 DUP2 LT PUSH2 0x47E JUMPI PUSH2 0x47E PUSH2 0x18C5 JUMP JUMPDEST SWAP1 POP PUSH1 0x20 MUL DUP2 ADD SWAP1 PUSH2 0x490 SWAP2 SWAP1 PUSH2 0x18DB JUMP JUMPDEST DUP7 PUSH2 0xC61 JUMP JUMPDEST PUSH2 0x4A0 SWAP1 DUP4 PUSH2 0x1632 JUMP JUMPDEST SWAP2 POP DUP1 PUSH2 0x4AC DUP2 PUSH2 0x18FC JUMP JUMPDEST SWAP2 POP POP PUSH2 0x460 JUMP JUMPDEST POP DUP1 ISZERO PUSH2 0x570 JUMPI PUSH1 0x0 DUP4 PUSH1 0x1 PUSH1 0x1 PUSH1 0xA0 SHL SUB AND DUP3 PUSH1 0x40 MLOAD PUSH1 0x0 PUSH1 0x40 MLOAD DUP1 DUP4 SUB DUP2 DUP6 DUP8 GAS CALL SWAP3 POP POP POP RETURNDATASIZE DUP1 PUSH1 0x0 DUP2 EQ PUSH2 0x508 JUMPI PUSH1 0x40 MLOAD SWAP2 POP PUSH1 0x1F NOT PUSH1 0x3F RETURNDATASIZE ADD AND DUP3 ADD PUSH1 0x40 MSTORE RETURNDATASIZE DUP3 MSTORE RETURNDATASIZE PUSH1 0x0 PUSH1 0x20 DUP5 ADD RETURNDATACOPY PUSH2 0x50D JUMP JUMPDEST PUSH1 0x60 SWAP2 POP JUMPDEST POP POP SWAP1 POP DUP1 PUSH2 0x56E JUMPI PUSH1 0x40 MLOAD PUSH3 0x461BCD PUSH1 0xE5 SHL DUP2 MSTORE PUSH1 0x20 PUSH1 0x4 DUP3 ADD MSTORE PUSH1 0x27 PUSH1 0x24 DUP3 ADD MSTORE PUSH32 0x456E747279506F696E743A2062656E6566696369617279207472616E73666572 PUSH1 0x44 DUP3 ADD MSTORE PUSH7 0x819985A5B1959 PUSH1 0xCA SHL PUSH1 0x64 DUP3 ADD MSTORE PUSH1 0x84 ADD PUSH2 0x453 JUMP JUMPDEST POP JUMPDEST POP POP PUSH2 0x57C PUSH1 0x1 PUSH1 0x0 SSTORE JUMP JUMPDEST POP POP POP JUMP JUMPDEST CALLER PUSH1 0x0 SWAP1 DUP2 MSTORE PUSH1 0x1 PUSH1 0x20 MSTORE PUSH1 0x40 SWAP1 KECCAK256 SLOAD DUP2 GT ISZERO PUSH2 0x5E0 JUMPI PUSH1 0x40 MLOAD PUSH3 0x461BCD PUSH1 0xE5 SHL DUP2 MSTORE PUSH1 0x20 PUSH1 0x4 DUP3 ADD DUP2 SWAP1 MSTORE PUSH1 0x24 DUP3 ADD MSTORE PUSH32 0x456E747279506F696E743A20696E73756666696369656E742062616C616E6365 PUSH1 0x44 DUP3 ADD MSTORE PUSH1 0x64 ADD PUSH2 0x453 JUMP JUMPDEST CALLER PUSH1 0x0 SWAP1 DUP2 MSTORE PUSH1 0x1 PUSH1 0x20 MSTORE PUSH1 0x40 DUP2 KECCAK256 DUP1 SLOAD DUP4 SWAP3 SWAP1 PUSH2 0x5FF SWAP1 DUP5 SWAP1 PUSH2 0x1915 JUMP JUMPDEST SWAP1 SWAP2 SSTORE POP POP PUSH1 0x40 MLOAD PUSH1 0x0 SWAP1 PUSH1 0x1 PUSH1 0x1 PUSH1 0xA0 SHL SUB DUP5 AND SWAP1 DUP4 SWAP1 DUP4 DUP2 DUP2 DUP2 DUP6 DUP8 GAS CALL SWAP3 POP POP POP RETURNDATASIZE DUP1 PUSH1 0x0 DUP2 EQ PUSH2 0x64F JUMPI PUSH1 0x40 MLOAD SWAP2 POP PUSH1 0x1F NOT PUSH1 0x3F RETURNDATASIZE ADD AND DUP3 ADD PUSH1 0x40 MSTORE RETURNDATASIZE DUP3 MSTORE RETURNDATASIZE PUSH1 0x0 PUSH1 0x20 DUP5 ADD RETURNDATACOPY PUSH2 0x654 JUMP JUMPDEST PUSH1 0x60 SWAP2 POP JUMPDEST POP POP SWAP1 POP DUP1 PUSH2 0x6A5 JUMPI PUSH1 0x40 MLOAD PUSH3 0x461BCD PUSH1 0xE5 SHL DUP2 MSTORE PUSH1 0x20 PUSH1 0x4 DUP3 ADD MSTORE PUSH1 0x1D PUSH1 0x24 DUP3 ADD MSTORE PUSH32 0x456E747279506F696E743A207769746864726177616C206661696C6564000000 PUSH1 0x44 DUP3 ADD MSTORE PUSH1 0x64 ADD PUSH2 0x453 JUMP JUMPDEST PUSH1 0x40 DUP1 MLOAD PUSH1 0x1 PUSH1 0x1 PUSH1 0xA0 SHL SUB DUP6 AND DUP2 MSTORE PUSH1 0x20 DUP2 ADD DUP5 SWAP1 MSTORE CALLER SWAP2 PUSH32 0xD1C19FBCD4551A5EDFB66D43D2E337C04837AFDA3482B42BDF569A8FCCDAE5FB SWAP2 ADD PUSH1 0x40 MLOAD DUP1 SWAP2 SUB SWAP1 LOG2 POP POP POP JUMP JUMPDEST PUSH1 0x0 CALLER ADDRESS EQ PUSH2 0x73F JUMPI PUSH1 0x40 MLOAD PUSH3 0x461BCD PUSH1 0xE5 SHL DUP2 MSTORE PUSH1 0x20 PUSH1 0x4 DUP3 ADD MSTORE PUSH1 0x1A PUSH1 0x24 DUP3 ADD MSTORE PUSH32 0x456E747279506F696E743A206F6E6C792073656C662063616C6C000000000000 PUSH1 0x44 DUP3 ADD MSTORE PUSH1 0x64 ADD PUSH2 0x453 JUMP JUMPDEST PUSH2 0x748 DUP5 PUSH2 0xE5D JUMP JUMPDEST PUSH1 0x0 PUSH2 0x755 DUP6 PUSH1 0x0 PUSH2 0x1044 JUMP JUMPDEST SWAP1 POP DUP1 PUSH1 0x1 SUB PUSH2 0x778 JUMPI PUSH1 0x40 MLOAD PUSH4 0x2FDEC18B PUSH1 0xE0 SHL DUP2 MSTORE PUSH1 0x4 ADD PUSH1 0x40 MLOAD DUP1 SWAP2 SUB SWAP1 REVERT JUMPDEST PUSH1 0x60 PUSH1 0x0 PUSH2 0x78A PUSH2 0x120 DUP9 ADD DUP9 PUSH2 0x1928 JUMP JUMPDEST SWAP1 POP GT ISZERO PUSH2 0x7C7 JUMPI PUSH1 0x0 PUSH2 0x79F DUP8 PUSH1 0x0 PUSH2 0x10FD JUMP JUMPDEST SWAP3 POP SWAP1 POP PUSH1 0x1 DUP2 SWAP1 SUB PUSH2 0x7C5 JUMPI PUSH1 0x40 MLOAD PUSH4 0x1BFA9609 PUSH1 0xE1 SHL DUP2 MSTORE PUSH1 0x4 ADD PUSH1 0x40 MLOAD DUP1 SWAP2 SUB SWAP1 REVERT JUMPDEST POP JUMPDEST PUSH1 0x80 DUP7 ADD CALLDATALOAD PUSH1 0x0 DUP2 SWAP1 SUB PUSH2 0x7E6 JUMPI PUSH2 0xC350 GAS PUSH2 0x7E3 SWAP2 SWAP1 PUSH2 0x1915 JUMP JUMPDEST SWAP1 POP JUMPDEST PUSH1 0x0 PUSH2 0x80B PUSH2 0x7F8 PUSH1 0x20 DUP11 ADD DUP11 PUSH2 0x1694 JUMP JUMPDEST PUSH2 0x805 PUSH1 0x60 DUP12 ADD DUP12 PUSH2 0x1928 JUMP JUMPDEST DUP6 PUSH2 0x124C JUMP JUMPDEST SWAP1 POP PUSH2 0x817 DUP9 DUP3 PUSH2 0x12C9 JUMP JUMPDEST SWAP9 SWAP8 POP POP POP POP POP POP POP POP JUMP JUMPDEST PUSH1 0x1 PUSH1 0x1 PUSH1 0xA0 SHL SUB DUP2 AND PUSH1 0x0 SWAP1 DUP2 MSTORE PUSH1 0x1 PUSH1 0x20 MSTORE PUSH1 0x40 DUP2 KECCAK256 DUP1 SLOAD CALLVALUE SWAP3 SWAP1 PUSH2 0x84B SWAP1 DUP5 SWAP1 PUSH2 0x1632 JUMP JUMPDEST SWAP1 SWAP2 SSTORE POP POP PUSH1 0x1 PUSH1 0x1 PUSH1 0xA0 SHL SUB DUP2 AND PUSH1 0x0 DUP2 DUP2 MSTORE PUSH1 0x1 PUSH1 0x20 SWAP1 DUP2 MSTORE PUSH1 0x40 SWAP2 DUP3 SWAP1 KECCAK256 SLOAD SWAP2 MLOAD SWAP2 DUP3 MSTORE PUSH32 0x2DA466A7B24304F47E87FA2E1E5A81B9831CE54FEC19055CE277CA2F39BA42C4 SWAP2 ADD JUMPDEST PUSH1 0x40 MLOAD DUP1 SWAP2 SUB SWAP1 LOG2 POP JUMP JUMPDEST CALLER PUSH1 0x0 SWAP1 DUP2 MSTORE PUSH1 0x2 PUSH1 0x20 MSTORE PUSH1 0x40 SWAP1 KECCAK256 DUP1 SLOAD PUSH2 0x8F5 JUMPI PUSH1 0x40 MLOAD PUSH3 0x461BCD PUSH1 0xE5 SHL DUP2 MSTORE PUSH1 0x20 PUSH1 0x4 DUP3 ADD MSTORE PUSH1 0x14 PUSH1 0x24 DUP3 ADD MSTORE PUSH20 0x456E747279506F696E743A206E6F207374616B65 PUSH1 0x60 SHL PUSH1 0x44 DUP3 ADD MSTORE PUSH1 0x64 ADD PUSH2 0x453 JUMP JUMPDEST PUSH1 0x1 DUP2 ADD SLOAD PUSH2 0x904 SWAP1 TIMESTAMP PUSH2 0x1632 JUMP JUMPDEST PUSH1 0x2 DUP3 ADD DUP2 SWAP1 SSTORE PUSH1 0x40 MLOAD SWAP1 DUP2 MSTORE CALLER SWAP1 PUSH32 0xFA9B3C14CC825C412C9ED81B3BA365A5B459439403F18829E572ED53A4180F0A SWAP1 PUSH1 0x20 ADD PUSH2 0x896 JUMP JUMPDEST CALLER PUSH1 0x0 SWAP1 DUP2 MSTORE PUSH1 0x2 PUSH1 0x20 DUP2 SWAP1 MSTORE PUSH1 0x40 SWAP1 SWAP2 KECCAK256 SWAP1 DUP2 ADD SLOAD ISZERO DUP1 ISZERO SWAP1 PUSH2 0x965 JUMPI POP DUP1 PUSH1 0x2 ADD SLOAD TIMESTAMP LT ISZERO JUMPDEST PUSH2 0x9BF JUMPI PUSH1 0x40 MLOAD PUSH3 0x461BCD PUSH1 0xE5 SHL DUP2 MSTORE PUSH1 0x20 PUSH1 0x4 DUP3 ADD MSTORE PUSH1 0x25 PUSH1 0x24 DUP3 ADD MSTORE PUSH32 0x456E747279506F696E743A207374616B65207769746864726177616C20746F6F PUSH1 0x44 DUP3 ADD MSTORE PUSH5 0x1039B7B7B7 PUSH1 0xD9 SHL PUSH1 0x64 DUP3 ADD MSTORE PUSH1 0x84 ADD PUSH2 0x453 JUMP JUMPDEST DUP1 SLOAD PUSH1 0x0 DUP1 DUP4 SSTORE PUSH1 0x2 DUP4 ADD DUP2 SWAP1 SSTORE PUSH1 0x40 MLOAD PUSH1 0x1 PUSH1 0x1 PUSH1 0xA0 SHL SUB DUP6 AND SWAP1 DUP4 SWAP1 DUP4 DUP2 DUP2 DUP2 DUP6 DUP8 GAS CALL SWAP3 POP POP POP RETURNDATASIZE DUP1 PUSH1 0x0 DUP2 EQ PUSH2 0xA15 JUMPI PUSH1 0x40 MLOAD SWAP2 POP PUSH1 0x1F NOT PUSH1 0x3F RETURNDATASIZE ADD AND DUP3 ADD PUSH1 0x40 MSTORE RETURNDATASIZE DUP3 MSTORE RETURNDATASIZE PUSH1 0x0 PUSH1 0x20 DUP5 ADD RETURNDATACOPY PUSH2 0xA1A JUMP JUMPDEST PUSH1 0x60 SWAP2 POP JUMPDEST POP POP SWAP1 POP DUP1 PUSH2 0xA77 JUMPI PUSH1 0x40 MLOAD PUSH3 0x461BCD PUSH1 0xE5 SHL DUP2 MSTORE PUSH1 0x20 PUSH1 0x4 DUP3 ADD MSTORE PUSH1 0x23 PUSH1 0x24 DUP3 ADD MSTORE PUSH32 0x456E747279506F696E743A207374616B65207769746864726177616C20666169 PUSH1 0x44 DUP3 ADD MSTORE PUSH3 0x1B1959 PUSH1 0xEA SHL PUSH1 0x64 DUP3 ADD MSTORE PUSH1 0x84 ADD PUSH2 0x453 JUMP JUMPDEST PUSH1 0x40 DUP1 MLOAD PUSH1 0x1 PUSH1 0x1 PUSH1 0xA0 SHL SUB DUP7 AND DUP2 MSTORE PUSH1 0x20 DUP2 ADD DUP5 SWAP1 MSTORE CALLER SWAP2 PUSH32 0xB7C918E0E249F999E965CAFEB6C664271B3F4317D296461500E71DA39F0CBDA3 SWAP2 ADD PUSH1 0x40 MLOAD DUP1 SWAP2 SUB SWAP1 LOG2 POP POP POP POP JUMP JUMPDEST CALLER PUSH1 0x0 SWAP1 DUP2 MSTORE PUSH1 0x2 PUSH1 0x20 MSTORE PUSH1 0x40 DUP2 KECCAK256 DUP1 SLOAD SWAP1 SWAP2 CALLVALUE SWAP2 DUP4 SWAP2 SWAP1 PUSH2 0xAE4 SWAP1 DUP5 SWAP1 PUSH2 0x1632 JUMP JUMPDEST SWAP1 SWAP2 SSTORE POP POP PUSH1 0x1 DUP2 ADD DUP3 SWAP1 SSTORE DUP1 SLOAD PUSH1 0x40 DUP1 MLOAD SWAP2 DUP3 MSTORE PUSH1 0x20 DUP3 ADD DUP5 SWAP1 MSTORE CALLER SWAP2 PUSH32 0xA5AE833D0BB1DCD632D98A8B70973E8516812898E19BF27B70071EBC8DC52C01 SWAP2 ADD PUSH1 0x40 MLOAD DUP1 SWAP2 SUB SWAP1 LOG2 POP POP JUMP JUMPDEST PUSH2 0xB7C PUSH1 0x40 MLOAD DUP1 PUSH1 0xC0 ADD PUSH1 0x40 MSTORE DUP1 PUSH1 0x0 DUP2 MSTORE PUSH1 0x20 ADD PUSH1 0x0 DUP2 MSTORE PUSH1 0x20 ADD PUSH1 0x0 ISZERO ISZERO DUP2 MSTORE PUSH1 0x20 ADD PUSH1 0x0 PUSH6 0xFFFFFFFFFFFF AND DUP2 MSTORE PUSH1 0x20 ADD PUSH1 0x0 PUSH6 0xFFFFFFFFFFFF AND DUP2 MSTORE PUSH1 0x20 ADD PUSH1 0x60 DUP2 MSTORE POP SWAP1 JUMP JUMPDEST PUSH1 0x0 GAS SWAP1 POP PUSH2 0xB8A DUP4 PUSH2 0xE5D JUMP JUMPDEST PUSH1 0x0 GAS PUSH2 0xB97 SWAP1 DUP4 PUSH2 0x1915 JUMP JUMPDEST SWAP1 POP PUSH1 0x0 PUSH2 0xBA5 DUP6 DUP4 PUSH2 0x1044 JUMP JUMPDEST SWAP1 POP PUSH1 0x60 PUSH1 0x0 DUP1 PUSH2 0xBBA PUSH2 0x120 DUP10 ADD DUP10 PUSH2 0x1928 JUMP JUMPDEST SWAP1 POP GT ISZERO PUSH2 0xBD1 JUMPI PUSH2 0xBCC DUP8 DUP6 PUSH2 0x10FD JUMP JUMPDEST SWAP3 POP SWAP1 POP JUMPDEST PUSH1 0x0 GAS PUSH2 0xBDE SWAP1 DUP8 PUSH2 0x1915 JUMP JUMPDEST SWAP1 POP PUSH1 0x0 PUSH2 0xBEC DUP10 DUP4 PUSH2 0x1310 JUMP JUMPDEST PUSH1 0x40 DUP1 MLOAD PUSH1 0xC0 DUP2 ADD DUP3 MSTORE SWAP4 DUP5 MSTORE PUSH1 0x20 DUP5 ADD SWAP2 SWAP1 SWAP2 MSTORE PUSH1 0x1 DUP7 EQ SWAP1 DUP4 ADD MSTORE POP PUSH1 0xA0 DUP5 DUP2 SHR PUSH6 0xFFFFFFFFFFFF AND PUSH1 0x60 DUP4 ADD MSTORE PUSH1 0xD0 SWAP5 SWAP1 SWAP5 SHR PUSH1 0x80 DUP3 ADD MSTORE SWAP3 DUP4 ADD SWAP2 SWAP1 SWAP2 MSTORE POP SWAP5 SWAP4 POP POP POP POP JUMP JUMPDEST PUSH1 0x2 PUSH1 0x0 SLOAD SUB PUSH2 0xC5A JUMPI PUSH1 0x40 MLOAD PUSH4 0x3EE5AEB5 PUSH1 0xE0 SHL DUP2 MSTORE PUSH1 0x4 ADD PUSH1 0x40 MLOAD DUP1 SWAP2 SUB SWAP1 REVERT JUMPDEST PUSH1 0x2 PUSH1 0x0 SSTORE JUMP JUMPDEST PUSH1 0x0 DUP1 GAS SWAP1 POP PUSH1 0x0 PUSH2 0xC9E ADDRESS PUSH32 0x0 PUSH2 0xC97 DUP9 PUSH2 0x1A60 JUMP JUMPDEST SWAP2 SWAP1 PUSH2 0x1359 JUMP JUMPDEST PUSH1 0x0 DUP2 DUP2 MSTORE PUSH1 0x3 PUSH1 0x20 MSTORE PUSH1 0x40 SWAP1 DUP2 SWAP1 KECCAK256 DUP5 DUP2 SSTORE SWAP1 MLOAD PUSH4 0x7A1EAC1F PUSH1 0xE0 SHL DUP2 MSTORE SWAP2 SWAP3 POP SWAP1 ADDRESS SWAP1 PUSH4 0x7A1EAC1F SWAP1 PUSH2 0xCDB SWAP1 DUP10 SWAP1 DUP7 SWAP1 DUP13 SWAP1 PUSH1 0x4 ADD PUSH2 0x1BDE JUMP JUMPDEST PUSH1 0x20 PUSH1 0x40 MLOAD DUP1 DUP4 SUB DUP2 PUSH1 0x0 DUP8 GAS CALL SWAP3 POP POP POP DUP1 ISZERO PUSH2 0xD16 JUMPI POP PUSH1 0x40 DUP1 MLOAD PUSH1 0x1F RETURNDATASIZE SWAP1 DUP2 ADD PUSH1 0x1F NOT AND DUP3 ADD SWAP1 SWAP3 MSTORE PUSH2 0xD13 SWAP2 DUP2 ADD SWAP1 PUSH2 0x1CFB JUMP JUMPDEST PUSH1 0x1 JUMPDEST PUSH2 0xDA2 JUMPI PUSH2 0xD22 PUSH2 0x1D14 JUMP JUMPDEST DUP1 PUSH4 0x8C379A0 SUB PUSH2 0xD5E JUMPI POP PUSH2 0xD36 PUSH2 0x1D30 JUMP JUMPDEST DUP1 PUSH2 0xD41 JUMPI POP PUSH2 0xD60 JUMP JUMPDEST DUP8 DUP2 PUSH1 0x40 MLOAD PUSH4 0x1101335B PUSH1 0xE1 SHL DUP2 MSTORE PUSH1 0x4 ADD PUSH2 0x453 SWAP3 SWAP2 SWAP1 PUSH2 0x1DBA JUMP JUMPDEST POP JUMPDEST DUP7 PUSH1 0x40 MLOAD PUSH4 0x1101335B PUSH1 0xE1 SHL DUP2 MSTORE PUSH1 0x4 ADD PUSH2 0x453 SWAP2 DUP2 MSTORE PUSH1 0x40 PUSH1 0x20 DUP3 ADD DUP2 SWAP1 MSTORE PUSH1 0xD SWAP1 DUP3 ADD MSTORE PUSH13 0x2AB735B737BBB71032B93937B9 PUSH1 0x99 SHL PUSH1 0x60 DUP3 ADD MSTORE PUSH1 0x80 ADD SWAP1 JUMP JUMPDEST PUSH1 0x2 DUP3 ADD DUP1 SLOAD PUSH1 0xFF NOT AND PUSH1 0x1 OR SWAP1 SSTORE PUSH1 0x3 DUP3 ADD DUP2 SWAP1 SSTORE SWAP4 POP PUSH1 0x0 GAS PUSH2 0xDC7 SWAP1 DUP6 PUSH2 0x1915 JUMP JUMPDEST SWAP1 POP PUSH2 0xDD2 DUP8 PUSH2 0x13A7 JUMP JUMPDEST PUSH1 0x1 PUSH1 0x1 PUSH1 0xA0 SHL SUB AND PUSH2 0xDE8 PUSH1 0x20 DUP10 ADD DUP10 PUSH2 0x1694 JUMP JUMPDEST PUSH1 0x2 DUP5 ADD SLOAD PUSH1 0x3 DUP6 ADD SLOAD PUSH1 0x40 DUP1 MLOAD PUSH1 0x20 DUP14 DUP2 ADD CALLDATALOAD DUP3 MSTORE PUSH1 0xFF SWAP1 SWAP5 AND ISZERO ISZERO SWAP4 DUP2 ADD SWAP4 SWAP1 SWAP4 MSTORE DUP3 ADD MSTORE PUSH1 0x60 DUP2 ADD DUP5 SWAP1 MSTORE PUSH1 0x1 PUSH1 0x1 PUSH1 0xA0 SHL SUB SWAP2 SWAP1 SWAP2 AND SWAP1 DUP6 SWAP1 PUSH32 0x49628FD1471006C1482DA88028E9CE4DBB080B815C9B0344D39E5A8E6EC1419F SWAP1 PUSH1 0x80 ADD PUSH1 0x40 MLOAD DUP1 SWAP2 SUB SWAP1 LOG4 POP POP POP POP SWAP4 SWAP3 POP POP POP JUMP JUMPDEST PUSH1 0x0 PUSH2 0xE6C PUSH1 0x40 DUP4 ADD DUP4 PUSH2 0x1928 JUMP JUMPDEST SWAP1 POP GT ISZERO PUSH2 0x1041 JUMPI PUSH1 0x0 PUSH2 0xE83 PUSH1 0x40 DUP4 ADD DUP4 PUSH2 0x1928 JUMP JUMPDEST PUSH2 0xE92 SWAP2 PUSH1 0x14 SWAP2 PUSH1 0x0 SWAP2 PUSH2 0x1DD3 JUMP JUMPDEST PUSH2 0xE9B SWAP2 PUSH2 0x1DFD JUMP JUMPDEST PUSH1 0x60 SHR SWAP1 POP PUSH1 0x0 PUSH2 0xEAF PUSH1 0x40 DUP5 ADD DUP5 PUSH2 0x1928 JUMP JUMPDEST PUSH2 0xEBD SWAP2 PUSH1 0x14 SWAP1 DUP3 SWAP1 PUSH2 0x1DD3 JUMP JUMPDEST DUP1 DUP1 PUSH1 0x1F ADD PUSH1 0x20 DUP1 SWAP2 DIV MUL PUSH1 0x20 ADD PUSH1 0x40 MLOAD SWAP1 DUP2 ADD PUSH1 0x40 MSTORE DUP1 SWAP4 SWAP3 SWAP2 SWAP1 DUP2 DUP2 MSTORE PUSH1 0x20 ADD DUP4 DUP4 DUP1 DUP3 DUP5 CALLDATACOPY PUSH1 0x0 SWAP3 ADD DUP3 SWAP1 MSTORE POP PUSH1 0x40 MLOAD SWAP5 SWAP6 POP SWAP4 PUSH1 0x1 PUSH1 0x1 PUSH1 0xA0 SHL SUB DUP8 AND SWAP4 POP PUSH2 0xF0D SWAP3 POP DUP6 SWAP2 POP PUSH2 0x1E32 JUMP JUMPDEST PUSH1 0x0 PUSH1 0x40 MLOAD DUP1 DUP4 SUB DUP2 PUSH1 0x0 DUP7 GAS CALL SWAP2 POP POP RETURNDATASIZE DUP1 PUSH1 0x0 DUP2 EQ PUSH2 0xF4A JUMPI PUSH1 0x40 MLOAD SWAP2 POP PUSH1 0x1F NOT PUSH1 0x3F RETURNDATASIZE ADD AND DUP3 ADD PUSH1 0x40 MSTORE RETURNDATASIZE DUP3 MSTORE RETURNDATASIZE PUSH1 0x0 PUSH1 0x20 DUP5 ADD RETURNDATACOPY PUSH2 0xF4F JUMP JUMPDEST PUSH1 0x60 SWAP2 POP JUMPDEST POP POP SWAP1 POP DUP1 PUSH2 0xFAB JUMPI PUSH1 0x40 MLOAD PUSH3 0x461BCD PUSH1 0xE5 SHL DUP2 MSTORE PUSH1 0x20 PUSH1 0x4 DUP3 ADD MSTORE PUSH1 0x22 PUSH1 0x24 DUP3 ADD MSTORE PUSH32 0x456E747279506F696E743A2077616C6C6574206372656174696F6E206661696C PUSH1 0x44 DUP3 ADD MSTORE PUSH2 0x1959 PUSH1 0xF2 SHL PUSH1 0x64 DUP3 ADD MSTORE PUSH1 0x84 ADD PUSH2 0x453 JUMP JUMPDEST PUSH2 0xFB8 PUSH1 0x20 DUP6 ADD DUP6 PUSH2 0x1694 JUMP JUMPDEST PUSH1 0x1 PUSH1 0x1 PUSH1 0xA0 SHL SUB AND PUSH2 0xFEF ADDRESS PUSH32 0x0 PUSH2 0xC97 DUP9 PUSH2 0x1A60 JUMP JUMPDEST PUSH32 0xD51A9C61267AA6196961883ECF5FF2DA6619C37DAC0FA92122513FB32C032D2D DUP6 PUSH2 0x101A DUP9 PUSH2 0x13A7 JUMP JUMPDEST PUSH1 0x40 DUP1 MLOAD PUSH1 0x1 PUSH1 0x1 PUSH1 0xA0 SHL SUB SWAP4 DUP5 AND DUP2 MSTORE SWAP3 SWAP1 SWAP2 AND PUSH1 0x20 DUP4 ADD MSTORE ADD PUSH1 0x40 MLOAD DUP1 SWAP2 SUB SWAP1 LOG3 POP POP POP JUMPDEST POP JUMP JUMPDEST PUSH1 0x0 PUSH2 0x1053 PUSH1 0x20 DUP5 ADD DUP5 PUSH2 0x1694 JUMP JUMPDEST PUSH1 0x1 PUSH1 0x1 PUSH1 0xA0 SHL SUB AND PUSH4 0x3A871CDD DUP5 PUSH2 0x1090 ADDRESS PUSH32 0x0 PUSH2 0xC97 DUP5 PUSH2 0x1A60 JUMP JUMPDEST DUP6 PUSH1 0x40 MLOAD DUP5 PUSH4 0xFFFFFFFF AND PUSH1 0xE0 SHL DUP2 MSTORE PUSH1 0x4 ADD PUSH2 0x10AF SWAP4 SWAP3 SWAP2 SWAP1 PUSH2 0x1BDE JUMP JUMPDEST PUSH1 0x20 PUSH1 0x40 MLOAD DUP1 DUP4 SUB DUP2 PUSH1 0x0 DUP8 GAS CALL SWAP3 POP POP POP DUP1 ISZERO PUSH2 0x10EA JUMPI POP PUSH1 0x40 DUP1 MLOAD PUSH1 0x1F RETURNDATASIZE SWAP1 DUP2 ADD PUSH1 0x1F NOT AND DUP3 ADD SWAP1 SWAP3 MSTORE PUSH2 0x10E7 SWAP2 DUP2 ADD SWAP1 PUSH2 0x1CFB JUMP JUMPDEST PUSH1 0x1 JUMPDEST PUSH2 0x10F6 JUMPI POP PUSH1 0x1 PUSH2 0x3FB JUMP JUMPDEST SWAP4 SWAP3 POP POP POP JUMP JUMPDEST PUSH1 0x0 PUSH1 0x60 PUSH1 0x0 PUSH2 0x110C DUP6 PUSH2 0x13A7 JUMP JUMPDEST PUSH1 0x1 PUSH1 0x1 PUSH1 0xA0 SHL SUB DUP2 AND PUSH1 0x0 SWAP1 DUP2 MSTORE PUSH1 0x2 PUSH1 0x20 MSTORE PUSH1 0x40 SWAP1 KECCAK256 SLOAD SWAP1 SWAP2 POP PUSH8 0xDE0B6B3A7640000 GT ISZERO PUSH2 0x117F JUMPI PUSH1 0x40 MLOAD PUSH3 0x461BCD PUSH1 0xE5 SHL DUP2 MSTORE PUSH1 0x20 PUSH1 0x4 DUP3 ADD MSTORE PUSH1 0x1D PUSH1 0x24 DUP3 ADD MSTORE PUSH32 0x5061796D61737465723A20696E73756666696369656E74207374616B65000000 PUSH1 0x44 DUP3 ADD MSTORE PUSH1 0x64 ADD PUSH2 0x453 JUMP JUMPDEST PUSH1 0x1 PUSH1 0x1 PUSH1 0xA0 SHL SUB DUP2 AND PUSH4 0xF465C77E DUP7 PUSH2 0x11BD ADDRESS PUSH32 0x0 PUSH2 0xC97 DUP5 PUSH2 0x1A60 JUMP JUMPDEST DUP8 PUSH1 0x40 MLOAD DUP5 PUSH4 0xFFFFFFFF AND PUSH1 0xE0 SHL DUP2 MSTORE PUSH1 0x4 ADD PUSH2 0x11DC SWAP4 SWAP3 SWAP2 SWAP1 PUSH2 0x1BDE JUMP JUMPDEST PUSH1 0x0 PUSH1 0x40 MLOAD DUP1 DUP4 SUB DUP2 PUSH1 0x0 DUP8 GAS CALL SWAP3 POP POP POP DUP1 ISZERO PUSH2 0x121C JUMPI POP PUSH1 0x40 MLOAD RETURNDATASIZE PUSH1 0x0 DUP3 RETURNDATACOPY PUSH1 0x1F RETURNDATASIZE SWAP1 DUP2 ADD PUSH1 0x1F NOT AND DUP3 ADD PUSH1 0x40 MSTORE PUSH2 0x1219 SWAP2 SWAP1 DUP2 ADD SWAP1 PUSH2 0x1E44 JUMP JUMPDEST PUSH1 0x1 JUMPDEST PUSH2 0x123A JUMPI POP POP PUSH1 0x40 DUP1 MLOAD PUSH1 0x20 DUP2 ADD SWAP1 SWAP2 MSTORE PUSH1 0x0 DUP2 MSTORE PUSH1 0x1 SWAP2 POP PUSH2 0x1245 JUMP JUMPDEST SWAP4 POP SWAP2 POP PUSH2 0x1245 SWAP1 POP JUMP JUMPDEST SWAP3 POP SWAP3 SWAP1 POP JUMP JUMPDEST PUSH1 0x0 DUP3 ISZERO PUSH2 0x12BD JUMPI DUP5 PUSH1 0x1 PUSH1 0x1 PUSH1 0xA0 SHL SUB AND DUP3 DUP6 DUP6 PUSH1 0x40 MLOAD PUSH2 0x126F SWAP3 SWAP2 SWAP1 PUSH2 0x1ED0 JUMP JUMPDEST PUSH1 0x0 PUSH1 0x40 MLOAD DUP1 DUP4 SUB DUP2 PUSH1 0x0 DUP8 DUP8 CALL SWAP3 POP POP POP RETURNDATASIZE DUP1 PUSH1 0x0 DUP2 EQ PUSH2 0x12AD JUMPI PUSH1 0x40 MLOAD SWAP2 POP PUSH1 0x1F NOT PUSH1 0x3F RETURNDATASIZE ADD AND DUP3 ADD PUSH1 0x40 MSTORE RETURNDATASIZE DUP3 MSTORE RETURNDATASIZE PUSH1 0x0 PUSH1 0x20 DUP5 ADD RETURNDATACOPY PUSH2 0x12B2 JUMP JUMPDEST PUSH1 0x60 SWAP2 POP JUMPDEST POP POP DUP1 SWAP2 POP POP PUSH2 0x12C1 JUMP JUMPDEST POP PUSH1 0x1 JUMPDEST SWAP5 SWAP4 POP POP POP POP JUMP JUMPDEST PUSH1 0x0 DUP1 DUP3 PUSH2 0x12DC JUMPI DUP4 PUSH2 0x100 ADD CALLDATALOAD PUSH2 0x12E2 JUMP JUMPDEST DUP4 PUSH1 0xE0 ADD CALLDATALOAD JUMPDEST SWAP1 POP DUP1 PUSH1 0xC0 DUP6 ADD CALLDATALOAD PUSH2 0x12FC PUSH1 0xA0 DUP8 ADD CALLDATALOAD PUSH1 0x80 DUP9 ADD CALLDATALOAD PUSH2 0x1632 JUMP JUMPDEST PUSH2 0x1306 SWAP2 SWAP1 PUSH2 0x1632 JUMP JUMPDEST PUSH2 0x12C1 SWAP2 SWAP1 PUSH2 0x1EE0 JUMP JUMPDEST PUSH1 0x0 PUSH1 0xE0 DUP4 ADD CALLDATALOAD DUP2 PUSH1 0xC0 DUP6 ADD CALLDATALOAD PUSH2 0x132F PUSH1 0xA0 DUP8 ADD CALLDATALOAD PUSH1 0x80 DUP9 ADD CALLDATALOAD PUSH2 0x1632 JUMP JUMPDEST PUSH2 0x1339 SWAP2 SWAP1 PUSH2 0x1632 JUMP JUMPDEST SWAP1 POP DUP2 PUSH2 0x1346 DUP6 DUP4 PUSH2 0x1632 JUMP JUMPDEST PUSH2 0x1350 SWAP2 SWAP1 PUSH2 0x1EE0 JUMP JUMPDEST SWAP6 SWAP5 POP POP POP POP POP JUMP JUMPDEST PUSH1 0x0 PUSH2 0x1364 DUP5 PUSH2 0x13F7 JUMP JUMPDEST PUSH1 0x40 DUP1 MLOAD PUSH1 0x20 DUP2 ADD SWAP3 SWAP1 SWAP3 MSTORE PUSH1 0x1 PUSH1 0x1 PUSH1 0xA0 SHL SUB DUP6 AND SWAP1 DUP3 ADD MSTORE PUSH1 0x60 DUP2 ADD DUP4 SWAP1 MSTORE PUSH1 0x80 ADD PUSH1 0x40 MLOAD PUSH1 0x20 DUP2 DUP4 SUB SUB DUP2 MSTORE SWAP1 PUSH1 0x40 MSTORE DUP1 MLOAD SWAP1 PUSH1 0x20 ADD KECCAK256 SWAP1 POP SWAP4 SWAP3 POP POP POP JUMP JUMPDEST PUSH1 0x0 PUSH2 0x13B7 PUSH2 0x120 DUP4 ADD DUP4 PUSH2 0x1928 JUMP JUMPDEST SWAP1 POP PUSH1 0x0 SUB PUSH2 0x13C8 JUMPI POP PUSH1 0x0 SWAP2 SWAP1 POP JUMP JUMPDEST PUSH2 0x13D6 PUSH2 0x120 DUP4 ADD DUP4 PUSH2 0x1928 JUMP JUMPDEST PUSH2 0x13E5 SWAP2 PUSH1 0x14 SWAP2 PUSH1 0x0 SWAP2 PUSH2 0x1DD3 JUMP JUMPDEST PUSH2 0x13EE SWAP2 PUSH2 0x1DFD JUMP JUMPDEST PUSH1 0x60 SHR SWAP3 SWAP2 POP POP JUMP JUMPDEST PUSH1 0x0 DUP1 PUSH1 0x0 DUP1 PUSH1 0x60 DUP6 PUSH2 0x120 ADD MLOAD MLOAD PUSH1 0x0 SUB PUSH2 0x142B JUMPI POP POP PUSH1 0x40 DUP1 MLOAD PUSH1 0x20 DUP2 ADD SWAP1 SWAP2 MSTORE PUSH1 0x0 DUP1 DUP3 MSTORE SWAP3 POP DUP3 SWAP2 POP DUP2 SWAP1 PUSH2 0x152A JUMP JUMPDEST PUSH2 0x120 DUP7 ADD MLOAD PUSH1 0x14 DUP2 ADD MLOAD DUP2 MLOAD SWAP1 SWAP6 POP PUSH1 0x34 GT PUSH2 0x144A JUMPI PUSH1 0x34 DUP2 ADD MLOAD SWAP4 POP JUMPDEST PUSH1 0x54 DUP2 MLOAD LT PUSH2 0x145B JUMPI PUSH1 0x54 DUP2 ADD MLOAD SWAP3 POP JUMPDEST PUSH1 0x54 DUP2 MLOAD GT ISZERO PUSH2 0x1528 JUMPI PUSH1 0x54 DUP2 MLOAD PUSH2 0x1473 SWAP2 SWAP1 PUSH2 0x1915 JUMP JUMPDEST PUSH8 0xFFFFFFFFFFFFFFFF DUP2 GT ISZERO PUSH2 0x148B JUMPI PUSH2 0x148B PUSH2 0x196F JUMP JUMPDEST PUSH1 0x40 MLOAD SWAP1 DUP1 DUP3 MSTORE DUP1 PUSH1 0x1F ADD PUSH1 0x1F NOT AND PUSH1 0x20 ADD DUP3 ADD PUSH1 0x40 MSTORE DUP1 ISZERO PUSH2 0x14B5 JUMPI PUSH1 0x20 DUP3 ADD DUP2 DUP1 CALLDATASIZE DUP4 CALLDATACOPY ADD SWAP1 POP JUMPDEST POP SWAP2 POP PUSH1 0x0 JUMPDEST DUP3 MLOAD DUP2 LT ISZERO PUSH2 0x1526 JUMPI DUP2 PUSH2 0x14D0 DUP3 PUSH1 0x54 PUSH2 0x1632 JUMP JUMPDEST DUP2 MLOAD DUP2 LT PUSH2 0x14E0 JUMPI PUSH2 0x14E0 PUSH2 0x18C5 JUMP JUMPDEST PUSH1 0x20 ADD ADD MLOAD PUSH1 0xF8 SHR PUSH1 0xF8 SHL DUP4 DUP3 DUP2 MLOAD DUP2 LT PUSH2 0x14FD JUMPI PUSH2 0x14FD PUSH2 0x18C5 JUMP JUMPDEST PUSH1 0x20 ADD ADD SWAP1 PUSH1 0x1 PUSH1 0x1 PUSH1 0xF8 SHL SUB NOT AND SWAP1 DUP2 PUSH1 0x0 BYTE SWAP1 MSTORE8 POP DUP1 PUSH2 0x151E DUP2 PUSH2 0x18FC JUMP JUMPDEST SWAP2 POP POP PUSH2 0x14BB JUMP JUMPDEST POP JUMPDEST POP JUMPDEST DUP6 PUSH1 0x0 ADD MLOAD DUP7 PUSH1 0x20 ADD MLOAD DUP8 PUSH1 0x40 ADD MLOAD DUP1 MLOAD SWAP1 PUSH1 0x20 ADD KECCAK256 DUP9 PUSH1 0x60 ADD MLOAD DUP1 MLOAD SWAP1 PUSH1 0x20 ADD KECCAK256 DUP10 PUSH1 0x80 ADD MLOAD DUP11 PUSH1 0xA0 ADD MLOAD DUP12 PUSH1 0xC0 ADD MLOAD DUP13 PUSH1 0xE0 ADD MLOAD DUP14 PUSH2 0x100 ADD MLOAD DUP13 DUP13 DUP13 DUP13 DUP1 MLOAD SWAP1 PUSH1 0x20 ADD KECCAK256 PUSH1 0x40 MLOAD PUSH1 0x20 ADD PUSH2 0x15FB SWAP14 SWAP13 SWAP12 SWAP11 SWAP10 SWAP9 SWAP8 SWAP7 SWAP6 SWAP5 SWAP4 SWAP3 SWAP2 SWAP1 PUSH1 0x1 PUSH1 0x1 PUSH1 0xA0 SHL SUB SWAP14 DUP15 AND DUP2 MSTORE PUSH1 0x20 DUP2 ADD SWAP13 SWAP1 SWAP13 MSTORE PUSH1 0x40 DUP13 ADD SWAP11 SWAP1 SWAP11 MSTORE PUSH1 0x60 DUP12 ADD SWAP9 SWAP1 SWAP9 MSTORE PUSH1 0x80 DUP11 ADD SWAP7 SWAP1 SWAP7 MSTORE PUSH1 0xA0 DUP10 ADD SWAP5 SWAP1 SWAP5 MSTORE PUSH1 0xC0 DUP9 ADD SWAP3 SWAP1 SWAP3 MSTORE PUSH1 0xE0 DUP8 ADD MSTORE PUSH2 0x100 DUP7 ADD MSTORE SWAP1 SWAP5 AND PUSH2 0x120 DUP5 ADD MSTORE PUSH2 0x140 DUP4 ADD SWAP4 SWAP1 SWAP4 MSTORE PUSH2 0x160 DUP3 ADD SWAP3 SWAP1 SWAP3 MSTORE PUSH2 0x180 DUP2 ADD SWAP2 SWAP1 SWAP2 MSTORE PUSH2 0x1A0 ADD SWAP1 JUMP JUMPDEST PUSH1 0x40 MLOAD PUSH1 0x20 DUP2 DUP4 SUB SUB DUP2 MSTORE SWAP1 PUSH1 0x40 MSTORE DUP1 MLOAD SWAP1 PUSH1 0x20 ADD KECCAK256 SWAP5 POP POP POP POP POP SWAP2 SWAP1 POP JUMP JUMPDEST PUSH4 0x4E487B71 PUSH1 0xE0 SHL PUSH1 0x0 MSTORE PUSH1 0x11 PUSH1 0x4 MSTORE PUSH1 0x24 PUSH1 0x0 REVERT JUMPDEST DUP1 DUP3 ADD DUP1 DUP3 GT ISZERO PUSH2 0x3FB JUMPI PUSH2 0x3FB PUSH2 0x161C JUMP JUMPDEST PUSH1 0x0 PUSH1 0x20 DUP3 DUP5 SUB SLT ISZERO PUSH2 0x1657 JUMPI PUSH1 0x0 DUP1 REVERT JUMPDEST DUP2 CALLDATALOAD PUSH1 0x1 PUSH1 0x1 PUSH1 0xE0 SHL SUB NOT DUP2 AND DUP2 EQ PUSH2 0x10F6 JUMPI PUSH1 0x0 DUP1 REVERT JUMPDEST PUSH1 0x1 PUSH1 0x1 PUSH1 0xA0 SHL SUB DUP2 AND DUP2 EQ PUSH2 0x1041 JUMPI PUSH1 0x0 DUP1 REVERT JUMPDEST DUP1 CALLDATALOAD PUSH2 0x168F DUP2 PUSH2 0x166F JUMP JUMPDEST SWAP2 SWAP1 POP JUMP JUMPDEST PUSH1 0x0 PUSH1 0x20 DUP3 DUP5 SUB SLT ISZERO PUSH2 0x16A6 JUMPI PUSH1 0x0 DUP1 REVERT JUMPDEST DUP2 CALLDATALOAD PUSH2 0x10F6 DUP2 PUSH2 0x166F JUMP JUMPDEST PUSH1 0x0 DUP1 PUSH1 0x0 PUSH1 0x40 DUP5 DUP7 SUB SLT ISZERO PUSH2 0x16C6 JUMPI PUSH1 0x0 DUP1 REVERT JUMPDEST DUP4 CALLDATALOAD PUSH8 0xFFFFFFFFFFFFFFFF DUP1 DUP3 GT ISZERO PUSH2 0x16DE JUMPI PUSH1 0x0 DUP1 REVERT JUMPDEST DUP2 DUP7 ADD SWAP2 POP DUP7 PUSH1 0x1F DUP4 ADD SLT PUSH2 0x16F2 JUMPI PUSH1 0x0 DUP1 REVERT JUMPDEST DUP2 CALLDATALOAD DUP2 DUP2 GT ISZERO PUSH2 0x1701 JUMPI PUSH1 0x0 DUP1 REVERT JUMPDEST DUP8 PUSH1 0x20 DUP3 PUSH1 0x5 SHL DUP6 ADD ADD GT ISZERO PUSH2 0x1716 JUMPI PUSH1 0x0 DUP1 REVERT JUMPDEST PUSH1 0x20 SWAP3 DUP4 ADD SWAP6 POP SWAP4 POP POP DUP5 ADD CALLDATALOAD PUSH2 0x172C DUP2 PUSH2 0x166F JUMP JUMPDEST DUP1 SWAP2 POP POP SWAP3 POP SWAP3 POP SWAP3 JUMP JUMPDEST PUSH1 0x0 DUP1 PUSH1 0x40 DUP4 DUP6 SUB SLT ISZERO PUSH2 0x174A JUMPI PUSH1 0x0 DUP1 REVERT JUMPDEST DUP3 CALLDATALOAD PUSH2 0x1755 DUP2 PUSH2 0x166F JUMP JUMPDEST SWAP5 PUSH1 0x20 SWAP4 SWAP1 SWAP4 ADD CALLDATALOAD SWAP4 POP POP POP JUMP JUMPDEST PUSH1 0x0 PUSH2 0x160 DUP3 DUP5 SUB SLT ISZERO PUSH2 0x1776 JUMPI PUSH1 0x0 DUP1 REVERT JUMPDEST POP SWAP2 SWAP1 POP JUMP JUMPDEST PUSH1 0x0 DUP1 PUSH1 0x0 PUSH1 0x60 DUP5 DUP7 SUB SLT ISZERO PUSH2 0x1791 JUMPI PUSH1 0x0 DUP1 REVERT JUMPDEST DUP4 CALLDATALOAD PUSH8 0xFFFFFFFFFFFFFFFF DUP2 GT ISZERO PUSH2 0x17A8 JUMPI PUSH1 0x0 DUP1 REVERT JUMPDEST PUSH2 0x17B4 DUP7 DUP3 DUP8 ADD PUSH2 0x1763 JUMP JUMPDEST SWAP7 PUSH1 0x20 DUP7 ADD CALLDATALOAD SWAP7 POP PUSH1 0x40 SWAP1 SWAP6 ADD CALLDATALOAD SWAP5 SWAP4 POP POP POP POP JUMP JUMPDEST PUSH1 0x0 PUSH1 0x20 DUP3 DUP5 SUB SLT ISZERO PUSH2 0x17DC JUMPI PUSH1 0x0 DUP1 REVERT JUMPDEST POP CALLDATALOAD SWAP2 SWAP1 POP JUMP JUMPDEST PUSH1 0x0 PUSH1 0x20 DUP3 DUP5 SUB SLT ISZERO PUSH2 0x17F5 JUMPI PUSH1 0x0 DUP1 REVERT JUMPDEST DUP2 CALLDATALOAD PUSH8 0xFFFFFFFFFFFFFFFF DUP2 GT ISZERO PUSH2 0x180C JUMPI PUSH1 0x0 DUP1 REVERT JUMPDEST PUSH2 0x12C1 DUP5 DUP3 DUP6 ADD PUSH2 0x1763 JUMP JUMPDEST PUSH1 0x0 JUMPDEST DUP4 DUP2 LT ISZERO PUSH2 0x1833 JUMPI DUP2 DUP2 ADD MLOAD DUP4 DUP3 ADD MSTORE PUSH1 0x20 ADD PUSH2 0x181B JUMP JUMPDEST POP POP PUSH1 0x0 SWAP2 ADD MSTORE JUMP JUMPDEST PUSH1 0x0 DUP2 MLOAD DUP1 DUP5 MSTORE PUSH2 0x1854 DUP2 PUSH1 0x20 DUP7 ADD PUSH1 0x20 DUP7 ADD PUSH2 0x1818 JUMP JUMPDEST PUSH1 0x1F ADD PUSH1 0x1F NOT AND SWAP3 SWAP1 SWAP3 ADD PUSH1 0x20 ADD SWAP3 SWAP2 POP POP JUMP JUMPDEST PUSH1 0x20 DUP2 MSTORE DUP2 MLOAD PUSH1 0x20 DUP3 ADD MSTORE PUSH1 0x20 DUP3 ADD MLOAD PUSH1 0x40 DUP3 ADD MSTORE PUSH1 0x40 DUP3 ADD MLOAD ISZERO ISZERO PUSH1 0x60 DUP3 ADD MSTORE PUSH1 0x0 PUSH1 0x60 DUP4 ADD MLOAD PUSH6 0xFFFFFFFFFFFF DUP1 DUP3 AND PUSH1 0x80 DUP6 ADD MSTORE DUP1 PUSH1 0x80 DUP7 ADD MLOAD AND PUSH1 0xA0 DUP6 ADD MSTORE POP POP PUSH1 0xA0 DUP4 ADD MLOAD PUSH1 0xC0 DUP1 DUP5 ADD MSTORE PUSH2 0x12C1 PUSH1 0xE0 DUP5 ADD DUP3 PUSH2 0x183C JUMP JUMPDEST PUSH4 0x4E487B71 PUSH1 0xE0 SHL PUSH1 0x0 MSTORE PUSH1 0x32 PUSH1 0x4 MSTORE PUSH1 0x24 PUSH1 0x0 REVERT JUMPDEST PUSH1 0x0 DUP3 CALLDATALOAD PUSH2 0x15E NOT DUP4 CALLDATASIZE SUB ADD DUP2 SLT PUSH2 0x18F2 JUMPI PUSH1 0x0 DUP1 REVERT JUMPDEST SWAP2 SWAP1 SWAP2 ADD SWAP3 SWAP2 POP POP JUMP JUMPDEST PUSH1 0x0 PUSH1 0x1 DUP3 ADD PUSH2 0x190E JUMPI PUSH2 0x190E PUSH2 0x161C JUMP JUMPDEST POP PUSH1 0x1 ADD SWAP1 JUMP JUMPDEST DUP2 DUP2 SUB DUP2 DUP2 GT ISZERO PUSH2 0x3FB JUMPI PUSH2 0x3FB PUSH2 0x161C JUMP JUMPDEST PUSH1 0x0 DUP1 DUP4 CALLDATALOAD PUSH1 0x1E NOT DUP5 CALLDATASIZE SUB ADD DUP2 SLT PUSH2 0x193F JUMPI PUSH1 0x0 DUP1 REVERT JUMPDEST DUP4 ADD DUP1 CALLDATALOAD SWAP2 POP PUSH8 0xFFFFFFFFFFFFFFFF DUP3 GT ISZERO PUSH2 0x195A JUMPI PUSH1 0x0 DUP1 REVERT JUMPDEST PUSH1 0x20 ADD SWAP2 POP CALLDATASIZE DUP2 SWAP1 SUB DUP3 SGT ISZERO PUSH2 0x1245 JUMPI PUSH1 0x0 DUP1 REVERT JUMPDEST PUSH4 0x4E487B71 PUSH1 0xE0 SHL PUSH1 0x0 MSTORE PUSH1 0x41 PUSH1 0x4 MSTORE PUSH1 0x24 PUSH1 0x0 REVERT JUMPDEST PUSH1 0x1F DUP3 ADD PUSH1 0x1F NOT AND DUP2 ADD PUSH8 0xFFFFFFFFFFFFFFFF DUP2 GT DUP3 DUP3 LT OR ISZERO PUSH2 0x19AB JUMPI PUSH2 0x19AB PUSH2 0x196F JUMP JUMPDEST PUSH1 0x40 MSTORE POP POP JUMP JUMPDEST PUSH1 0x40 MLOAD PUSH2 0x160 DUP2 ADD PUSH8 0xFFFFFFFFFFFFFFFF DUP2 GT DUP3 DUP3 LT OR ISZERO PUSH2 0x19D6 JUMPI PUSH2 0x19D6 PUSH2 0x196F JUMP JUMPDEST PUSH1 0x40 MSTORE SWAP1 JUMP JUMPDEST PUSH1 0x0 PUSH8 0xFFFFFFFFFFFFFFFF DUP3 GT ISZERO PUSH2 0x19F6 JUMPI PUSH2 0x19F6 PUSH2 0x196F JUMP JUMPDEST POP PUSH1 0x1F ADD PUSH1 0x1F NOT AND PUSH1 0x20 ADD SWAP1 JUMP JUMPDEST PUSH1 0x0 DUP3 PUSH1 0x1F DUP4 ADD SLT PUSH2 0x1A15 JUMPI PUSH1 0x0 DUP1 REVERT JUMPDEST DUP2 CALLDATALOAD PUSH2 0x1A20 DUP2 PUSH2 0x19DC JUMP JUMPDEST PUSH1 0x40 MLOAD PUSH2 0x1A2D DUP3 DUP3 PUSH2 0x1985 JUMP JUMPDEST DUP3 DUP2 MSTORE DUP6 PUSH1 0x20 DUP5 DUP8 ADD ADD GT ISZERO PUSH2 0x1A42 JUMPI PUSH1 0x0 DUP1 REVERT JUMPDEST DUP3 PUSH1 0x20 DUP7 ADD PUSH1 0x20 DUP4 ADD CALLDATACOPY PUSH1 0x0 SWAP3 DUP2 ADD PUSH1 0x20 ADD SWAP3 SWAP1 SWAP3 MSTORE POP SWAP4 SWAP3 POP POP POP JUMP JUMPDEST PUSH1 0x0 PUSH2 0x160 DUP3 CALLDATASIZE SUB SLT ISZERO PUSH2 0x1A73 JUMPI PUSH1 0x0 DUP1 REVERT JUMPDEST PUSH2 0x1A7B PUSH2 0x19B2 JUMP JUMPDEST PUSH2 0x1A84 DUP4 PUSH2 0x1684 JUMP JUMPDEST DUP2 MSTORE PUSH1 0x20 DUP4 ADD CALLDATALOAD PUSH1 0x20 DUP3 ADD MSTORE PUSH1 0x40 DUP4 ADD CALLDATALOAD PUSH8 0xFFFFFFFFFFFFFFFF DUP1 DUP3 GT ISZERO PUSH2 0x1AAB JUMPI PUSH1 0x0 DUP1 REVERT JUMPDEST PUSH2 0x1AB7 CALLDATASIZE DUP4 DUP8 ADD PUSH2 0x1A04 JUMP JUMPDEST PUSH1 0x40 DUP5 ADD MSTORE PUSH1 0x60 DUP6 ADD CALLDATALOAD SWAP2 POP DUP1 DUP3 GT ISZERO PUSH2 0x1AD0 JUMPI PUSH1 0x0 DUP1 REVERT JUMPDEST PUSH2 0x1ADC CALLDATASIZE DUP4 DUP8 ADD PUSH2 0x1A04 JUMP JUMPDEST PUSH1 0x60 DUP5 ADD MSTORE PUSH1 0x80 DUP6 ADD CALLDATALOAD PUSH1 0x80 DUP5 ADD MSTORE PUSH1 0xA0 DUP6 ADD CALLDATALOAD PUSH1 0xA0 DUP5 ADD MSTORE PUSH1 0xC0 DUP6 ADD CALLDATALOAD PUSH1 0xC0 DUP5 ADD MSTORE PUSH1 0xE0 DUP6 ADD CALLDATALOAD PUSH1 0xE0 DUP5 ADD MSTORE PUSH2 0x100 SWAP2 POP DUP2 DUP6 ADD CALLDATALOAD DUP3 DUP5 ADD MSTORE PUSH2 0x120 SWAP2 POP DUP2 DUP6 ADD CALLDATALOAD DUP2 DUP2 GT ISZERO PUSH2 0x1B2C JUMPI PUSH1 0x0 DUP1 REVERT JUMPDEST PUSH2 0x1B38 CALLDATASIZE DUP3 DUP9 ADD PUSH2 0x1A04 JUMP JUMPDEST DUP4 DUP6 ADD MSTORE POP PUSH2 0x140 SWAP2 POP DUP2 DUP6 ADD CALLDATALOAD DUP2 DUP2 GT ISZERO PUSH2 0x1B53 JUMPI PUSH1 0x0 DUP1 REVERT JUMPDEST PUSH2 0x1B5F CALLDATASIZE DUP3 DUP9 ADD PUSH2 0x1A04 JUMP JUMPDEST DUP4 DUP6 ADD MSTORE POP POP POP DUP1 SWAP2 POP POP SWAP2 SWAP1 POP JUMP JUMPDEST PUSH1 0x0 DUP1 DUP4 CALLDATALOAD PUSH1 0x1E NOT DUP5 CALLDATASIZE SUB ADD DUP2 SLT PUSH2 0x1B86 JUMPI PUSH1 0x0 DUP1 REVERT JUMPDEST DUP4 ADD PUSH1 0x20 DUP2 ADD SWAP3 POP CALLDATALOAD SWAP1 POP PUSH8 0xFFFFFFFFFFFFFFFF DUP2 GT ISZERO PUSH2 0x1BA6 JUMPI PUSH1 0x0 DUP1 REVERT JUMPDEST DUP1 CALLDATASIZE SUB DUP3 SGT ISZERO PUSH2 0x1245 JUMPI PUSH1 0x0 DUP1 REVERT JUMPDEST DUP2 DUP4 MSTORE DUP2 DUP2 PUSH1 0x20 DUP6 ADD CALLDATACOPY POP PUSH1 0x0 DUP3 DUP3 ADD PUSH1 0x20 SWAP1 DUP2 ADD SWAP2 SWAP1 SWAP2 MSTORE PUSH1 0x1F SWAP1 SWAP2 ADD PUSH1 0x1F NOT AND SWAP1 SWAP2 ADD ADD SWAP1 JUMP JUMPDEST PUSH1 0x60 DUP2 MSTORE PUSH2 0x1BFF PUSH1 0x60 DUP3 ADD PUSH2 0x1BF2 DUP7 PUSH2 0x1684 JUMP JUMPDEST PUSH1 0x1 PUSH1 0x1 PUSH1 0xA0 SHL SUB AND SWAP1 MSTORE JUMP JUMPDEST PUSH1 0x20 DUP5 ADD CALLDATALOAD PUSH1 0x80 DUP3 ADD MSTORE PUSH1 0x0 PUSH2 0x1C18 PUSH1 0x40 DUP7 ADD DUP7 PUSH2 0x1B6F JUMP JUMPDEST PUSH2 0x160 DUP1 PUSH1 0xA0 DUP7 ADD MSTORE PUSH2 0x1C30 PUSH2 0x1C0 DUP7 ADD DUP4 DUP6 PUSH2 0x1BB5 JUMP JUMPDEST SWAP3 POP PUSH2 0x1C3F PUSH1 0x60 DUP10 ADD DUP10 PUSH2 0x1B6F JUMP JUMPDEST SWAP3 POP PUSH1 0x5F NOT DUP1 DUP8 DUP7 SUB ADD PUSH1 0xC0 DUP9 ADD MSTORE PUSH2 0x1C59 DUP6 DUP6 DUP5 PUSH2 0x1BB5 JUMP JUMPDEST SWAP5 POP PUSH1 0x80 DUP11 ADD CALLDATALOAD PUSH1 0xE0 DUP9 ADD MSTORE PUSH2 0x100 SWAP4 POP PUSH1 0xA0 DUP11 ADD CALLDATALOAD DUP5 DUP9 ADD MSTORE PUSH2 0x120 SWAP2 POP PUSH1 0xC0 DUP11 ADD CALLDATALOAD DUP3 DUP9 ADD MSTORE PUSH2 0x140 PUSH1 0xE0 DUP12 ADD CALLDATALOAD DUP2 DUP10 ADD MSTORE DUP5 DUP12 ADD CALLDATALOAD DUP5 DUP10 ADD MSTORE PUSH2 0x1CA1 DUP4 DUP13 ADD DUP13 PUSH2 0x1B6F JUMP JUMPDEST SWAP6 POP SWAP4 POP DUP2 DUP9 DUP8 SUB ADD PUSH2 0x180 DUP10 ADD MSTORE PUSH2 0x1CBB DUP7 DUP7 DUP7 PUSH2 0x1BB5 JUMP JUMPDEST SWAP6 POP PUSH2 0x1CC9 DUP2 DUP13 ADD DUP13 PUSH2 0x1B6F JUMP JUMPDEST SWAP6 POP SWAP4 POP POP DUP1 DUP8 DUP7 SUB ADD PUSH2 0x1A0 DUP9 ADD MSTORE POP POP PUSH2 0x1CE6 DUP4 DUP4 DUP4 PUSH2 0x1BB5 JUMP JUMPDEST PUSH1 0x20 DUP7 ADD SWAP8 SWAP1 SWAP8 MSTORE POP POP POP POP PUSH1 0x40 ADD MSTORE SWAP2 SWAP1 POP JUMP JUMPDEST PUSH1 0x0 PUSH1 0x20 DUP3 DUP5 SUB SLT ISZERO PUSH2 0x1D0D JUMPI PUSH1 0x0 DUP1 REVERT JUMPDEST POP MLOAD SWAP2 SWAP1 POP JUMP JUMPDEST PUSH1 0x0 PUSH1 0x3 RETURNDATASIZE GT ISZERO PUSH2 0x1D2D JUMPI PUSH1 0x4 PUSH1 0x0 DUP1 RETURNDATACOPY POP PUSH1 0x0 MLOAD PUSH1 0xE0 SHR JUMPDEST SWAP1 JUMP JUMPDEST PUSH1 0x0 PUSH1 0x44 RETURNDATASIZE LT ISZERO PUSH2 0x1D3E JUMPI SWAP1 JUMP JUMPDEST PUSH1 0x40 MLOAD PUSH1 0x3 NOT RETURNDATASIZE DUP2 ADD PUSH1 0x4 DUP4 RETURNDATACOPY DUP2 MLOAD RETURNDATASIZE PUSH8 0xFFFFFFFFFFFFFFFF DUP2 PUSH1 0x24 DUP5 ADD GT DUP2 DUP5 GT OR ISZERO PUSH2 0x1D6E JUMPI POP POP POP POP POP SWAP1 JUMP JUMPDEST DUP3 DUP6 ADD SWAP2 POP DUP2 MLOAD DUP2 DUP2 GT ISZERO PUSH2 0x1D86 JUMPI POP POP POP POP POP POP SWAP1 JUMP JUMPDEST DUP5 RETURNDATASIZE DUP8 ADD ADD PUSH1 0x20 DUP3 DUP6 ADD ADD GT ISZERO PUSH2 0x1DA0 JUMPI POP POP POP POP POP POP SWAP1 JUMP JUMPDEST PUSH2 0x1DAF PUSH1 0x20 DUP3 DUP7 ADD ADD DUP8 PUSH2 0x1985 JUMP JUMPDEST POP SWAP1 SWAP6 SWAP5 POP POP POP POP POP JUMP JUMPDEST DUP3 DUP2 MSTORE PUSH1 0x40 PUSH1 0x20 DUP3 ADD MSTORE PUSH1 0x0 PUSH2 0x12C1 PUSH1 0x40 DUP4 ADD DUP5 PUSH2 0x183C JUMP JUMPDEST PUSH1 0x0 DUP1 DUP6 DUP6 GT ISZERO PUSH2 0x1DE3 JUMPI PUSH1 0x0 DUP1 REVERT JUMPDEST DUP4 DUP7 GT ISZERO PUSH2 0x1DF0 JUMPI PUSH1 0x0 DUP1 REVERT JUMPDEST POP POP DUP3 ADD SWAP4 SWAP2 SWAP1 SWAP3 SUB SWAP2 POP JUMP JUMPDEST PUSH12 0xFFFFFFFFFFFFFFFFFFFFFFFF NOT DUP2 CALLDATALOAD DUP2 DUP2 AND SWAP2 PUSH1 0x14 DUP6 LT ISZERO PUSH2 0x1E2A JUMPI DUP1 DUP2 DUP7 PUSH1 0x14 SUB PUSH1 0x3 SHL SHL DUP4 AND AND SWAP3 POP JUMPDEST POP POP SWAP3 SWAP2 POP POP JUMP JUMPDEST PUSH1 0x0 DUP3 MLOAD PUSH2 0x18F2 DUP2 DUP5 PUSH1 0x20 DUP8 ADD PUSH2 0x1818 JUMP JUMPDEST PUSH1 0x0 DUP1 PUSH1 0x40 DUP4 DUP6 SUB SLT ISZERO PUSH2 0x1E57 JUMPI PUSH1 0x0 DUP1 REVERT JUMPDEST DUP3 MLOAD PUSH8 0xFFFFFFFFFFFFFFFF DUP2 GT ISZERO PUSH2 0x1E6E JUMPI PUSH1 0x0 DUP1 REVERT JUMPDEST DUP4 ADD PUSH1 0x1F DUP2 ADD DUP6 SGT PUSH2 0x1E7F JUMPI PUSH1 0x0 DUP1 REVERT JUMPDEST DUP1 MLOAD PUSH2 0x1E8A DUP2 PUSH2 0x19DC JUMP JUMPDEST PUSH1 0x40 MLOAD PUSH2 0x1E97 DUP3 DUP3 PUSH2 0x1985 JUMP JUMPDEST DUP3 DUP2 MSTORE DUP8 PUSH1 0x20 DUP5 DUP7 ADD ADD GT ISZERO PUSH2 0x1EAC JUMPI PUSH1 0x0 DUP1 REVERT JUMPDEST PUSH2 0x1EBD DUP4 PUSH1 0x20 DUP4 ADD PUSH1 0x20 DUP8 ADD PUSH2 0x1818 JUMP JUMPDEST PUSH1 0x20 SWAP7 SWAP1 SWAP7 ADD MLOAD SWAP6 SWAP8 SWAP6 SWAP7 POP POP POP POP POP POP JUMP JUMPDEST DUP2 DUP4 DUP3 CALLDATACOPY PUSH1 0x0 SWAP2 ADD SWAP1 DUP2 MSTORE SWAP2 SWAP1 POP JUMP JUMPDEST DUP1 DUP3 MUL DUP2 ISZERO DUP3 DUP3 DIV DUP5 EQ OR PUSH2 0x3FB JUMPI PUSH2 0x3FB PUSH2 0x161C JUMP INVALID LOG2 PUSH5 0x6970667358 0x22 SLT KECCAK256 PUSH3 0xCA91C1 0xD8 KECCAK256 SWAP12 PUSH3 0x5C0AA7 DUP14 0xF 0xC0 SWAP5 PUSH28 0xEC0367C01BB6591F13CA9900E7CF832C64736F6C6343000814003300 "},"methodIdentifiers":{"STAKE_MINIMUM()":"b8239b40","UNSTAKE_DELAY_SEC()":"8b51ad5d","_validateAndExecuteOp((address,uint256,bytes,bytes,uint256,uint256,uint256,uint256,uint256,bytes,bytes),bytes32,uint256)":"7a1eac1f","addStake(uint256)":"eb4f16b5","balanceOf(address)":"70a08231","chainId()":"9a8a0592","depositTo(address)":"b760faf9","handleOps((address,uint256,bytes,bytes,uint256,uint256,uint256,uint256,uint256,bytes,bytes)[],address)":"1fad948c","simulateValidation((address,uint256,bytes,bytes,uint256,uint256,uint256,uint256,uint256,bytes,bytes))":"ee219423","stakes(address)":"16934fc4","supportsInterface(bytes4)":"01ffc9a7","unlockStake()":"bb9fe6bf","userOpInfo(bytes32)":"adb4bcc4","withdrawStake(address)":"c23a5cea","withdrawTo(address,uint256)":"205c2878"}}}}}