{
  "_format": "hh-sol-artifact-1",
  "contractName": "EntryPoint",
  "sourceName": "contracts/EntryPoint.sol",
  "abi": [
    {
      "inputs": [],
      "stateMutability": "nonpayable",
      "type": "constructor"
    },
    {
      "inputs": [
        {
          "internalType": "uint256",
          "name": "opIndex",
          "type": "uint256"
        },
        {
          "internalType": "string",
          "name": "reason",
          "type": "string"
        }
      ],
      "name": "FailedOp",
      "type": "error"
    },
    {
      "inputs": [],
      "name": "InvalidStake",
      "type": "error"
    },
    {
      "inputs": [],
      "name": "PaymasterValidationFailed",
      "type": "error"
    },
    {
      "inputs": [],
      "name": "ReentrancyGuardReentrantCall",
      "type": "error"
    },
    {
      "inputs": [],
      "name": "SignatureValidationFailed",
      "type": "error"
    },
    {
      "inputs": [],
      "name": "StakeTooLow",
      "type": "error"
    },
    {
      "inputs": [],
      "name": "StakeWithdrawTooSoon",
      "type": "error"
    },
    {
      "anonymous": false,
      "inputs": [
        {
          "indexed": true,
          "internalType": "bytes32",
          "name": "userOpHash",
          "type": "bytes32"
        },
        {
          "indexed": true,
          "internalType": "address",
          "name": "sender",
          "type": "address"
        },
        {
          "indexed": false,
          "internalType": "address",
          "name": "factory",
          "type": "address"
        },
        {
          "indexed": false,
          "internalType": "address",
          "name": "paymaster",
          "type": "address"
        }
      ],
      "name": "AccountDeployed",
      "type": "event"
    },
    {
      "anonymous": false,
      "inputs": [
        {
          "indexed": true,
          "internalType": "address",
          "name": "account",
          "type": "address"
        },
        {
          "indexed": false,
          "internalType": "uint256",
          "name": "totalDeposit",
          "type": "uint256"
        }
      ],
      "name": "Deposited",
      "type": "event"
    },
    {
      "anonymous": false,
      "inputs": [
        {
          "indexed": true,
          "internalType": "address",
          "name": "account",
          "type": "address"
        },
        {
          "indexed": false,
          "internalType": "uint256",
          "name": "totalStaked",
          "type": "uint256"
        },
        {
          "indexed": false,
          "internalType": "uint256",
          "name": "unstakeDelaySec",
          "type": "uint256"
        }
      ],
      "name": "StakeLocked",
      "type": "event"
    },
    {
      "anonymous": false,
      "inputs": [
        {
          "indexed": true,
          "internalType": "address",
          "name": "account",
          "type": "address"
        },
        {
          "indexed": false,
          "internalType": "uint256",
          "name": "withdrawTime",
          "type": "uint256"
        }
      ],
      "name": "StakeUnlocked",
      "type": "event"
    },
    {
      "anonymous": false,
      "inputs": [
        {
          "indexed": true,
          "internalType": "address",
          "name": "account",
          "type": "address"
        },
        {
          "indexed": false,
          "internalType": "address",
          "name": "withdrawAddress",
          "type": "address"
        },
        {
          "indexed": false,
          "internalType": "uint256",
          "name": "amount",
          "type": "uint256"
        }
      ],
      "name": "StakeWithdrawn",
      "type": "event"
    },
    {
      "anonymous": false,
      "inputs": [
        {
          "indexed": true,
          "internalType": "bytes32",
          "name": "userOpHash",
          "type": "bytes32"
        },
        {
          "indexed": true,
          "internalType": "address",
          "name": "sender",
          "type": "address"
        },
        {
          "indexed": true,
          "internalType": "address",
          "name": "paymaster",
          "type": "address"
        },
        {
          "indexed": false,
          "internalType": "uint256",
          "name": "nonce",
          "type": "uint256"
        },
        {
          "indexed": false,
          "internalType": "bool",
          "name": "success",
          "type": "bool"
        },
        {
          "indexed": false,
          "internalType": "uint256",
          "name": "actualGasCost",
          "type": "uint256"
        },
        {
          "indexed": false,
          "internalType": "uint256",
          "name": "actualGasUsed",
          "type": "uint256"
        }
      ],
      "name": "UserOperationEvent",
      "type": "event"
    },
    {
      "anonymous": false,
      "inputs": [
        {
          "indexed": true,
          "internalType": "address",
          "name": "account",
          "type": "address"
        },
        {
          "indexed": false,
          "internalType": "address",
          "name": "withdrawAddress",
          "type": "address"
        },
        {
          "indexed": false,
          "internalType": "uint256",
          "name": "amount",
          "type": "uint256"
        }
      ],
      "name": "Withdrawn",
      "type": "event"
    },
    {
      "inputs": [],
      "name": "STAKE_MINIMUM",
      "outputs": [
        {
          "internalType": "uint256",
          "name": "",
          "type": "uint256"
        }
      ],
      "stateMutability": "view",
      "type": "function"
    },
    {
      "inputs": [],
      "name": "UNSTAKE_DELAY_SEC",
      "outputs": [
        {
          "internalType": "uint256",
          "name": "",
          "type": "uint256"
        }
      ],
      "stateMutability": "view",
      "type": "function"
    },
    {
      "inputs": [
        {
          "components": [
            {
              "internalType": "address",
              "name": "sender",
              "type": "address"
            },
            {
              "internalType": "uint256",
              "name": "nonce",
              "type": "uint256"
            },
            {
              "internalType": "bytes",
              "name": "initCode",
              "type": "bytes"
            },
            {
              "internalType": "bytes",
              "name": "callData",
              "type": "bytes"
            },
            {
              "internalType": "uint256",
              "name": "callGasLimit",
              "type": "uint256"
            },
            {
              "internalType": "uint256",
              "name": "verificationGasLimit",
              "type": "uint256"
            },
            {
              "internalType": "uint256",
              "name": "preVerificationGas",
              "type": "uint256"
            },
            {
              "internalType": "uint256",
              "name": "maxFeePerGas",
              "type": "uint256"
            },
            {
              "internalType": "uint256",
              "name": "maxPriorityFeePerGas",
              "type": "uint256"
            },
            {
              "internalType": "bytes",
              "name": "paymasterAndData",
              "type": "bytes"
            },
            {
              "internalType": "bytes",
              "name": "signature",
              "type": "bytes"
            }
          ],
          "internalType": "struct IUserOperation.UserOperation",
          "name": "userOp",
          "type": "tuple"
        },
        {
          "internalType": "bytes32",
          "name": "userOpHash",
          "type": "bytes32"
        },
        {
          "internalType": "uint256",
          "name": "opIndex",
          "type": "uint256"
        }
      ],
      "name": "_validateAndExecuteOp",
      "outputs": [
        {
          "internalType": "uint256",
          "name": "actualGasCost",
          "type": "uint256"
        }
      ],
      "stateMutability": "nonpayable",
      "type": "function"
    },
    {
      "inputs": [
        {
          "internalType": "uint256",
          "name": "unstakeDelaySec",
          "type": "uint256"
        }
      ],
      "name": "addStake",
      "outputs": [],
      "stateMutability": "payable",
      "type": "function"
    },
    {
      "inputs": [
        {
          "internalType": "address",
          "name": "",
          "type": "address"
        }
      ],
      "name": "balanceOf",
      "outputs": [
        {
          "internalType": "uint256",
          "name": "",
          "type": "uint256"
        }
      ],
      "stateMutability": "view",
      "type": "function"
    },
    {
      "inputs": [],
      "name": "chainId",
      "outputs": [
        {
          "internalType": "uint256",
          "name": "",
          "type": "uint256"
        }
      ],
      "stateMutability": "view",
      "type": "function"
    },
    {
      "inputs": [
        {
          "internalType": "address",
          "name": "account",
          "type": "address"
        }
      ],
      "name": "depositTo",
      "outputs": [],
      "stateMutability": "payable",
      "type": "function"
    },
    {
      "inputs": [
        {
          "components": [
            {
              "internalType": "address",
              "name": "sender",
              "type": "address"
            },
            {
              "internalType": "uint256",
              "name": "nonce",
              "type": "uint256"
            },
            {
              "internalType": "bytes",
              "name": "initCode",
              "type": "bytes"
            },
            {
              "internalType": "bytes",
              "name": "callData",
              "type": "bytes"
            },
            {
              "internalType": "uint256",
              "name": "callGasLimit",
              "type": "uint256"
            },
            {
              "internalType": "uint256",
              "name": "verificationGasLimit",
              "type": "uint256"
            },
            {
              "internalType": "uint256",
              "name": "preVerificationGas",
              "type": "uint256"
            },
            {
              "internalType": "uint256",
              "name": "maxFeePerGas",
              "type": "uint256"
            },
            {
              "internalType": "uint256",
              "name": "maxPriorityFeePerGas",
              "type": "uint256"
            },
            {
              "internalType": "bytes",
              "name": "paymasterAndData",
              "type": "bytes"
            },
            {
              "internalType": "bytes",
              "name": "signature",
              "type": "bytes"
            }
          ],
          "internalType": "struct IUserOperation.UserOperation[]",
          "name": "ops",
          "type": "tuple[]"
        },
        {
          "internalType": "address payable",
          "name": "beneficiary",
          "type": "address"
        }
      ],
      "name": "handleOps",
      "outputs": [],
      "stateMutability": "nonpayable",
      "type": "function"
    },
    {
      "inputs": [
        {
          "components": [
            {
              "internalType": "address",
              "name": "sender",
              "type": "address"
            },
            {
              "internalType": "uint256",
              "name": "nonce",
              "type": "uint256"
            },
            {
              "internalType": "bytes",
              "name": "initCode",
              "type": "bytes"
            },
            {
              "internalType": "bytes",
              "name": "callData",
              "type": "bytes"
            },
            {
              "internalType": "uint256",
              "name": "callGasLimit",
              "type": "uint256"
            },
            {
              "internalType": "uint256",
              "name": "verificationGasLimit",
              "type": "uint256"
            },
            {
              "internalType": "uint256",
              "name": "preVerificationGas",
              "type": "uint256"
            },
            {
              "internalType": "uint256",
              "name": "maxFeePerGas",
              "type": "uint256"
            },
            {
              "internalType": "uint256",
              "name": "maxPriorityFeePerGas",
              "type": "uint256"
            },
            {
              "internalType": "bytes",
              "name": "paymasterAndData",
              "type": "bytes"
            },
            {
              "internalType": "bytes",
              "name": "signature",
              "type": "bytes"
            }
          ],
          "internalType": "struct IUserOperation.UserOperation",
          "name": "userOp",
          "type": "tuple"
        }
      ],
      "name": "simulateValidation",
      "outputs": [
        {
          "components": [
            {
              "internalType": "uint256",
              "name": "preOpGas",
              "type": "uint256"
            },
            {
              "internalType": "uint256",
              "name": "prefund",
              "type": "uint256"
            },
            {
              "internalType": "bool",
              "name": "sigFailed",
              "type": "bool"
            },
            {
              "internalType": "uint48",
              "name": "validAfter",
              "type": "uint48"
            },
            {
              "internalType": "uint48",
              "name": "validUntil",
              "type": "uint48"
            },
            {
              "internalType": "bytes",
              "name": "paymasterContext",
              "type": "bytes"
            }
          ],
          "internalType": "struct IUserOperation.ValidationResult",
          "name": "validationResult",
          "type": "tuple"
        }
      ],
      "stateMutability": "nonpayable",
      "type": "function"
    },
    {
      "inputs": [
        {
          "internalType": "address",
          "name": "",
          "type": "address"
        }
      ],
      "name": "stakes",
      "outputs": [
        {
          "internalType": "uint256",
          "name": "stake",
          "type": "uint256"
        },
        {
          "internalType": "uint256",
          "name": "unstakeDelaySec",
          "type": "uint256"
        },
        {
          "internalType": "uint256",
          "name": "withdrawTime",
          "type": "uint256"
        }
      ],
      "stateMutability": "view",
      "type": "function"
    },
    {
      "inputs": [
        {
          "internalType": "bytes4",
          "name": "interfaceId",
          "type": "bytes4"
        }
      ],
      "name": "supportsInterface",
      "outputs": [
        {
          "internalType": "bool",
          "name": "",
          "type": "bool"
        }
      ],
      "stateMutability": "view",
      "type": "function"
    },
    {
      "inputs": [],
      "name": "unlockStake",
      "outputs": [],
      "stateMutability": "nonpayable",
      "type": "function"
    },
    {
      "inputs": [
        {
          "internalType": "bytes32",
          "name": "",
          "type": "bytes32"
        }
      ],
      "name": "userOpInfo",
      "outputs": [
        {
          "internalType": "uint256",
          "name": "preOpGas",
          "type": "uint256"
        },
        {
          "internalType": "uint256",
          "name": "prefund",
          "type": "uint256"
        },
        {
          "internalType": "bool",
          "name": "success",
          "type": "bool"
        },
        {
          "internalType": "uint256",
          "name": "actualGasCost",
          "type": "uint256"
        }
      ],
      "stateMutability": "view",
      "type": "function"
    },
    {
      "inputs": [
        {
          "internalType": "address payable",
          "name": "withdrawAddress",
          "type": "address"
        }
      ],
      "name": "withdrawStake",
      "outputs": [],
      "stateMutability": "nonpayable",
      "type": "function"
    },
    {
      "inputs": [
        {
          "internalType": "address payable",
          "name": "withdrawAddress",
          "type": "address"
        },
        {
          "internalType": "uint256",
          "name": "withdrawAmount",
          "type": "uint256"
        }
      ],
      "name": "withdrawTo",
      "outputs": [],
      "stateMutability": "nonpayable",
      "type": "function"
    },
    {
      "stateMutability": "payable",
      "type": "receive"
    }
  ],
  "bytecode": "0x60a060405234801561001057600080fd5b50600160005546608052608051611f2d610051600039600081816102b101528181610c6f01528181610fc70152818161106801526111950152611f2d6000f3fe6080604052600436106100ec5760003560e01c80639a8a05921161008a578063bb9fe6bf11610059578063bb9fe6bf1461036f578063c23a5cea14610384578063eb4f16b5146103a4578063ee219423146103b757600080fd5b80639a8a05921461029f578063adb4bcc4146102d3578063b760faf914610340578063b8239b401461035357600080fd5b8063205c2878116100c6578063205c28781461020d57806370a082311461022d5780637a1eac1f146102685780638b51ad5d1461028857600080fd5b806301ffc9a71461016057806316934fc4146101955780631fad948c146101eb57600080fd5b3661015b573360009081526001602052604081208054349290610110908490611632565b9091555050336000818152600160209081526040918290205491519182527f2da466a7b24304f47e87fa2e1e5a81b9831ce54fec19055ce277ca2f39ba42c4910160405180910390a2005b600080fd5b34801561016c57600080fd5b5061018061017b366004611645565b6103e4565b60405190151581526020015b60405180910390f35b3480156101a157600080fd5b506101d06101b0366004611694565b600260208190526000918252604090912080546001820154919092015483565b6040805193845260208401929092529082015260600161018c565b3480156101f757600080fd5b5061020b6102063660046116b1565b610401565b005b34801561021957600080fd5b5061020b610228366004611737565b610581565b34801561023957600080fd5b5061025a610248366004611694565b60016020526000908152604090205481565b60405190815260200161018c565b34801561027457600080fd5b5061025a61028336600461177c565b6106ee565b34801561029457600080fd5b5061025a6201518081565b3480156102ab57600080fd5b5061025a7f000000000000000000000000000000000000000000000000000000000000000081565b3480156102df57600080fd5b5061031a6102ee3660046117ca565b6003602081905260009182526040909120805460018201546002830154929093015490929160ff169084565b60408051948552602085019390935290151591830191909152606082015260800161018c565b61020b61034e366004611694565b610823565b34801561035f57600080fd5b5061025a670de0b6b3a764000081565b34801561037b57600080fd5b5061020b6108a1565b34801561039057600080fd5b5061020b61039f366004611694565b61093d565b61020b6103b23660046117ca565b610ac1565b3480156103c357600080fd5b506103d76103d23660046117e3565b610b31565b60405161018c9190611868565b60006301ffc9a760e01b6001600160e01b03198316145b92915050565b610409610c37565b818061045c5760405162461bcd60e51b815260206004820152601b60248201527f456e747279506f696e743a20656d707479206f7073206172726179000000000060448201526064015b60405180910390fd5b6000805b828110156104b4576104968187878481811061047e5761047e6118c5565b905060200281019061049091906118db565b86610c61565b6104a09083611632565b9150806104ac816118fc565b915050610460565b508015610570576000836001600160a01b03168260405160006040518083038185875af1925050503d8060008114610508576040519150601f19603f3d011682016040523d82523d6000602084013e61050d565b606091505b505090508061056e5760405162461bcd60e51b815260206004820152602760248201527f456e747279506f696e743a2062656e6566696369617279207472616e736665726044820152660819985a5b195960ca1b6064820152608401610453565b505b505061057c6001600055565b505050565b336000908152600160205260409020548111156105e05760405162461bcd60e51b815260206004820181905260248201527f456e747279506f696e743a20696e73756666696369656e742062616c616e63656044820152606401610453565b33600090815260016020526040812080548392906105ff908490611915565b90915550506040516000906001600160a01b0384169083908381818185875af1925050503d806000811461064f576040519150601f19603f3d011682016040523d82523d6000602084013e610654565b606091505b50509050806106a55760405162461bcd60e51b815260206004820152601d60248201527f456e747279506f696e743a207769746864726177616c206661696c65640000006044820152606401610453565b604080516001600160a01b03851681526020810184905233917fd1c19fbcd4551a5edfb66d43d2e337c04837afda3482b42bdf569a8fccdae5fb910160405180910390a2505050565b600033301461073f5760405162461bcd60e51b815260206004820152601a60248201527f456e747279506f696e743a206f6e6c792073656c662063616c6c0000000000006044820152606401610453565b61074884610e5d565b6000610755856000611044565b90508060010361077857604051632fdec18b60e01b815260040160405180910390fd5b6060600061078a610120880188611928565b905011156107c757600061079f8760006110fd565b9250905060018190036107c557604051631bfa960960e11b815260040160405180910390fd5b505b608086013560008190036107e65761c3505a6107e39190611915565b90505b600061080b6107f860208a018a611694565b61080560608b018b611928565b8561124c565b905061081788826112c9565b98975050505050505050565b6001600160a01b0381166000908152600160205260408120805434929061084b908490611632565b90915550506001600160a01b0381166000818152600160209081526040918290205491519182527f2da466a7b24304f47e87fa2e1e5a81b9831ce54fec19055ce277ca2f39ba42c491015b60405180910390a250565b33600090815260026020526040902080546108f55760405162461bcd60e51b8152602060048201526014602482015273456e747279506f696e743a206e6f207374616b6560601b6044820152606401610453565b60018101546109049042611632565b6002820181905560405190815233907ffa9b3c14cc825c412c9ed81b3ba365a5b459439403f18829e572ed53a4180f0a90602001610896565b3360009081526002602081905260409091209081015415801590610965575080600201544210155b6109bf5760405162461bcd60e51b815260206004820152602560248201527f456e747279506f696e743a207374616b65207769746864726177616c20746f6f6044820152641039b7b7b760d91b6064820152608401610453565b80546000808355600283018190556040516001600160a01b0385169083908381818185875af1925050503d8060008114610a15576040519150601f19603f3d011682016040523d82523d6000602084013e610a1a565b606091505b5050905080610a775760405162461bcd60e51b815260206004820152602360248201527f456e747279506f696e743a207374616b65207769746864726177616c206661696044820152621b195960ea1b6064820152608401610453565b604080516001600160a01b03861681526020810184905233917fb7c918e0e249f999e965cafeb6c664271b3f4317d296461500e71da39f0cbda3910160405180910390a250505050565b336000908152600260205260408120805490913491839190610ae4908490611632565b9091555050600181018290558054604080519182526020820184905233917fa5ae833d0bb1dcd632d98a8b70973e8516812898e19bf27b70071ebc8dc52c01910160405180910390a25050565b610b7c6040518060c001604052806000815260200160008152602001600015158152602001600065ffffffffffff168152602001600065ffffffffffff168152602001606081525090565b60005a9050610b8a83610e5d565b60005a610b979083611915565b90506000610ba58583611044565b90506060600080610bba610120890189611928565b90501115610bd157610bcc87856110fd565b925090505b60005a610bde9087611915565b90506000610bec8983611310565b6040805160c081018252938452602084019190915260018614908301525060a084811c65ffffffffffff16606083015260d09490941c60808201529283019190915250949350505050565b600260005403610c5a57604051633ee5aeb560e01b815260040160405180910390fd5b6002600055565b6000805a90506000610c9e307f0000000000000000000000000000000000000000000000000000000000000000610c9788611a60565b9190611359565b600081815260036020526040908190208481559051637a1eac1f60e01b8152919250903090637a1eac1f90610cdb90899086908c90600401611bde565b6020604051808303816000875af1925050508015610d16575060408051601f3d908101601f19168201909252610d1391810190611cfb565b60015b610da257610d22611d14565b806308c379a003610d5e5750610d36611d30565b80610d415750610d60565b8781604051631101335b60e11b8152600401610453929190611dba565b505b86604051631101335b60e11b8152600401610453918152604060208201819052600d908201526c2ab735b737bbb71032b93937b960991b606082015260800190565b60028201805460ff1916600117905560038201819055935060005a610dc79085611915565b9050610dd2876113a7565b6001600160a01b0316610de86020890189611694565b600284015460038501546040805160208d810135825260ff909416151593810193909352820152606081018490526001600160a01b03919091169085907f49628fd1471006c1482da88028e9ce4dbb080b815c9b0344d39e5a8e6ec1419f9060800160405180910390a4505050509392505050565b6000610e6c6040830183611928565b90501115611041576000610e836040830183611928565b610e9291601491600091611dd3565b610e9b91611dfd565b60601c90506000610eaf6040840184611928565b610ebd916014908290611dd3565b8080601f0160208091040260200160405190810160405280939291908181526020018383808284376000920182905250604051949550936001600160a01b0387169350610f0d9250859150611e32565b6000604051808303816000865af19150503d8060008114610f4a576040519150601f19603f3d011682016040523d82523d6000602084013e610f4f565b606091505b5050905080610fab5760405162461bcd60e51b815260206004820152602260248201527f456e747279506f696e743a2077616c6c6574206372656174696f6e206661696c604482015261195960f21b6064820152608401610453565b610fb86020850185611694565b6001600160a01b0316610fef307f0000000000000000000000000000000000000000000000000000000000000000610c9788611a60565b7fd51a9c61267aa6196961883ecf5ff2da6619c37dac0fa92122513fb32c032d2d8561101a886113a7565b604080516001600160a01b0393841681529290911660208301520160405180910390a35050505b50565b60006110536020840184611694565b6001600160a01b0316633a871cdd84611090307f0000000000000000000000000000000000000000000000000000000000000000610c9784611a60565b856040518463ffffffff1660e01b81526004016110af93929190611bde565b6020604051808303816000875af19250505080156110ea575060408051601f3d908101601f191682019092526110e791810190611cfb565b60015b6110f6575060016103fb565b9392505050565b60006060600061110c856113a7565b6001600160a01b038116600090815260026020526040902054909150670de0b6b3a7640000111561117f5760405162461bcd60e51b815260206004820152601d60248201527f5061796d61737465723a20696e73756666696369656e74207374616b650000006044820152606401610453565b6001600160a01b03811663f465c77e866111bd307f0000000000000000000000000000000000000000000000000000000000000000610c9784611a60565b876040518463ffffffff1660e01b81526004016111dc93929190611bde565b6000604051808303816000875af192505050801561121c57506040513d6000823e601f3d908101601f191682016040526112199190810190611e44565b60015b61123a57505060408051602081019091526000815260019150611245565b935091506112459050565b9250929050565b600082156112bd57846001600160a01b031682858560405161126f929190611ed0565b60006040518083038160008787f1925050503d80600081146112ad576040519150601f19603f3d011682016040523d82523d6000602084013e6112b2565b606091505b5050809150506112c1565b5060015b949350505050565b600080826112dc578361010001356112e2565b8360e001355b90508060c08501356112fc60a08701356080880135611632565b6113069190611632565b6112c19190611ee0565b600060e08301358160c085013561132f60a08701356080880135611632565b6113399190611632565b9050816113468583611632565b6113509190611ee0565b95945050505050565b6000611364846113f7565b6040805160208101929092526001600160a01b03851690820152606081018390526080016040516020818303038152906040528051906020012090509392505050565b60006113b7610120830183611928565b90506000036113c857506000919050565b6113d6610120830183611928565b6113e591601491600091611dd3565b6113ee91611dfd565b60601c92915050565b60008060008060608561012001515160000361142b575050604080516020810190915260008082529250829150819061152a565b6101208601516014810151815190955060341161144a57603481015193505b605481511061145b57605481015192505b60548151111561152857605481516114739190611915565b67ffffffffffffffff81111561148b5761148b61196f565b6040519080825280601f01601f1916602001820160405280156114b5576020820181803683370190505b50915060005b825181101561152657816114d0826054611632565b815181106114e0576114e06118c5565b602001015160f81c60f81b8382815181106114fd576114fd6118c5565b60200101906001600160f81b031916908160001a9053508061151e816118fc565b9150506114bb565b505b505b8560000151866020015187604001518051906020012088606001518051906020012089608001518a60a001518b60c001518c60e001518d61010001518c8c8c8c805190602001206040516020016115fb9d9c9b9a999897969594939291906001600160a01b039d8e168152602081019c909c5260408c019a909a5260608b019890985260808a019690965260a089019490945260c088019290925260e08701526101008601529094166101208401526101408301939093526101608201929092526101808101919091526101a00190565b60405160208183030381529060405280519060200120945050505050919050565b634e487b7160e01b600052601160045260246000fd5b808201808211156103fb576103fb61161c565b60006020828403121561165757600080fd5b81356001600160e01b0319811681146110f657600080fd5b6001600160a01b038116811461104157600080fd5b803561168f8161166f565b919050565b6000602082840312156116a657600080fd5b81356110f68161166f565b6000806000604084860312156116c657600080fd5b833567ffffffffffffffff808211156116de57600080fd5b818601915086601f8301126116f257600080fd5b81358181111561170157600080fd5b8760208260051b850101111561171657600080fd5b6020928301955093505084013561172c8161166f565b809150509250925092565b6000806040838503121561174a57600080fd5b82356117558161166f565b946020939093013593505050565b6000610160828403121561177657600080fd5b50919050565b60008060006060848603121561179157600080fd5b833567ffffffffffffffff8111156117a857600080fd5b6117b486828701611763565b9660208601359650604090950135949350505050565b6000602082840312156117dc57600080fd5b5035919050565b6000602082840312156117f557600080fd5b813567ffffffffffffffff81111561180c57600080fd5b6112c184828501611763565b60005b8381101561183357818101518382015260200161181b565b50506000910152565b60008151808452611854816020860160208601611818565b601f01601f19169290920160200192915050565b6020815281516020820152602082015160408201526040820151151560608201526000606083015165ffffffffffff80821660808501528060808601511660a0850152505060a083015160c0808401526112c160e084018261183c565b634e487b7160e01b600052603260045260246000fd5b6000823561015e198336030181126118f257600080fd5b9190910192915050565b60006001820161190e5761190e61161c565b5060010190565b818103818111156103fb576103fb61161c565b6000808335601e1984360301811261193f57600080fd5b83018035915067ffffffffffffffff82111561195a57600080fd5b60200191503681900382131561124557600080fd5b634e487b7160e01b600052604160045260246000fd5b601f8201601f1916810167ffffffffffffffff811182821017156119ab576119ab61196f565b6040525050565b604051610160810167ffffffffffffffff811182821017156119d6576119d661196f565b60405290565b600067ffffffffffffffff8211156119f6576119f661196f565b50601f01601f191660200190565b600082601f830112611a1557600080fd5b8135611a20816119dc565b604051611a2d8282611985565b828152856020848701011115611a4257600080fd5b82602086016020830137600092810160200192909252509392505050565b60006101608236031215611a7357600080fd5b611a7b6119b2565b611a8483611684565b815260208301356020820152604083013567ffffffffffffffff80821115611aab57600080fd5b611ab736838701611a04565b60408401526060850135915080821115611ad057600080fd5b611adc36838701611a04565b60608401526080850135608084015260a085013560a084015260c085013560c084015260e085013560e08401526101009150818501358284015261012091508185013581811115611b2c57600080fd5b611b3836828801611a04565b838501525061014091508185013581811115611b5357600080fd5b611b5f36828801611a04565b8385015250505080915050919050565b6000808335601e19843603018112611b8657600080fd5b830160208101925035905067ffffffffffffffff811115611ba657600080fd5b80360382131561124557600080fd5b81835281816020850137506000828201602090810191909152601f909101601f19169091010190565b60608152611bff60608201611bf286611684565b6001600160a01b03169052565b602084013560808201526000611c186040860186611b6f565b6101608060a0860152611c306101c086018385611bb5565b9250611c3f6060890189611b6f565b9250605f19808786030160c0880152611c59858584611bb5565b945060808a013560e0880152610100935060a08a013584880152610120915060c08a01358288015261014060e08b013581890152848b013584890152611ca1838c018c611b6f565b955093508188870301610180890152611cbb868686611bb5565b9550611cc9818c018c611b6f565b955093505080878603016101a08801525050611ce6838383611bb5565b60208601979097525050505060400152919050565b600060208284031215611d0d57600080fd5b5051919050565b600060033d1115611d2d5760046000803e5060005160e01c5b90565b600060443d1015611d3e5790565b6040516003193d81016004833e81513d67ffffffffffffffff8160248401118184111715611d6e57505050505090565b8285019150815181811115611d865750505050505090565b843d8701016020828501011115611da05750505050505090565b611daf60208286010187611985565b509095945050505050565b8281526040602082015260006112c1604083018461183c565b60008085851115611de357600080fd5b83861115611df057600080fd5b5050820193919092039150565b6bffffffffffffffffffffffff198135818116916014851015611e2a5780818660140360031b1b83161692505b505092915050565b600082516118f2818460208701611818565b60008060408385031215611e5757600080fd5b825167ffffffffffffffff811115611e6e57600080fd5b8301601f81018513611e7f57600080fd5b8051611e8a816119dc565b604051611e978282611985565b828152876020848601011115611eac57600080fd5b611ebd836020830160208701611818565b6020969096015195979596505050505050565b8183823760009101908152919050565b80820281158282048414176103fb576103fb61161c56fea2646970667358221220df221af4a449e3dfddaba80d2642d98a975d2eff46d7f07bb9ab081db40f65fe64736f6c63430008140033",
  "linkReferences": {},
  "deployedLinkReferences": {}
}