{
  "_format": "hh-sol-artifact-1",
  "contractName": "Paymaster",
  "sourceName": "contracts/Paymaster.sol",
  "abi": [
    {
      "inputs": [
        {
          "internalType": "address",
          "name": "_entryPoint",
          "type": "address"
        },
        {
          "internalType": "address",
          "name": "_owner",
          "type": "address"
        }
      ],
      "stateMutability": "nonpayable",
      "type": "constructor"
    },
    {
      "anonymous": false,
      "inputs": [
        {
          "indexed": true,
          "internalType": "address",
          "name": "spender",
          "type": "address"
        }
      ],
      "name": "AuthorizedSpenderAdded",
      "type": "event"
    },
    {
      "anonymous": false,
      "inputs": [
        {
          "indexed": true,
          "internalType": "address",
          "name": "spender",
          "type": "address"
        }
      ],
      "name": "AuthorizedSpenderRemoved",
      "type": "event"
    },
    {
      "anonymous": false,
      "inputs": [
        {
          "indexed": true,
          "internalType": "address",
          "name": "sender",
          "type": "address"
        },
        {
          "indexed": false,
          "internalType": "uint256",
          "name": "amount",
          "type": "uint256"
        }
      ],
      "name": "PaymasterDeposit",
      "type": "event"
    },
    {
      "anonymous": false,
      "inputs": [],
      "name": "PaymasterPaused",
      "type": "event"
    },
    {
      "anonymous": false,
      "inputs": [],
      "name": "PaymasterUnpaused",
      "type": "event"
    },
    {
      "anonymous": false,
      "inputs": [
        {
          "indexed": true,
          "internalType": "address",
          "name": "recipient",
          "type": "address"
        },
        {
          "indexed": false,
          "internalType": "uint256",
          "name": "amount",
          "type": "uint256"
        }
      ],
      "name": "PaymasterWithdraw",
      "type": "event"
    },
    {
      "anonymous": false,
      "inputs": [
        {
          "indexed": true,
          "internalType": "address",
          "name": "spender",
          "type": "address"
        },
        {
          "indexed": false,
          "internalType": "uint256",
          "name": "limit",
          "type": "uint256"
        }
      ],
      "name": "SpendingLimitSet",
      "type": "event"
    },
    {
      "anonymous": false,
      "inputs": [
        {
          "indexed": true,
          "internalType": "address",
          "name": "sender",
          "type": "address"
        },
        {
          "indexed": false,
          "internalType": "uint256",
          "name": "actualGasCost",
          "type": "uint256"
        }
      ],
      "name": "UserOperationSponsored",
      "type": "event"
    },
    {
      "stateMutability": "payable",
      "type": "fallback"
    },
    {
      "inputs": [
        {
          "internalType": "address",
          "name": "spender",
          "type": "address"
        }
      ],
      "name": "addAuthorizedSpender",
      "outputs": [],
      "stateMutability": "nonpayable",
      "type": "function"
    },
    {
      "inputs": [
        {
          "internalType": "uint32",
          "name": "unstakeDelay",
          "type": "uint32"
        }
      ],
      "name": "addStake",
      "outputs": [],
      "stateMutability": "payable",
      "type": "function"
    },
    {
      "inputs": [
        {
          "internalType": "address",
          "name": "",
          "type": "address"
        }
      ],
      "name": "authorizedSpenders",
      "outputs": [
        {
          "internalType": "bool",
          "name": "",
          "type": "bool"
        }
      ],
      "stateMutability": "view",
      "type": "function"
    },
    {
      "inputs": [
        {
          "internalType": "address",
          "name": "",
          "type": "address"
        }
      ],
      "name": "dailySpent",
      "outputs": [
        {
          "internalType": "uint256",
          "name": "",
          "type": "uint256"
        }
      ],
      "stateMutability": "view",
      "type": "function"
    },
    {
      "inputs": [],
      "name": "deposit",
      "outputs": [],
      "stateMutability": "payable",
      "type": "function"
    },
    {
      "inputs": [],
      "name": "emergencyWithdraw",
      "outputs": [],
      "stateMutability": "nonpayable",
      "type": "function"
    },
    {
      "inputs": [],
      "name": "entryPoint",
      "outputs": [
        {
          "internalType": "address",
          "name": "",
          "type": "address"
        }
      ],
      "stateMutability": "view",
      "type": "function"
    },
    {
      "inputs": [],
      "name": "getDeposit",
      "outputs": [
        {
          "internalType": "uint256",
          "name": "",
          "type": "uint256"
        }
      ],
      "stateMutability": "view",
      "type": "function"
    },
    {
      "inputs": [],
      "name": "getStats",
      "outputs": [
        {
          "internalType": "uint256",
          "name": "currentDeposit",
          "type": "uint256"
        },
        {
          "internalType": "uint256",
          "name": "totalDeposited",
          "type": "uint256"
        },
        {
          "internalType": "uint256",
          "name": "totalSpentAmount",
          "type": "uint256"
        },
        {
          "internalType": "bool",
          "name": "isPaused",
          "type": "bool"
        },
        {
          "internalType": "uint256",
          "name": "stakInfo",
          "type": "uint256"
        }
      ],
      "stateMutability": "view",
      "type": "function"
    },
    {
      "inputs": [
        {
          "internalType": "address",
          "name": "",
          "type": "address"
        }
      ],
      "name": "lastResetDay",
      "outputs": [
        {
          "internalType": "uint256",
          "name": "",
          "type": "uint256"
        }
      ],
      "stateMutability": "view",
      "type": "function"
    },
    {
      "inputs": [],
      "name": "owner",
      "outputs": [
        {
          "internalType": "address",
          "name": "",
          "type": "address"
        }
      ],
      "stateMutability": "view",
      "type": "function"
    },
    {
      "inputs": [],
      "name": "pause",
      "outputs": [],
      "stateMutability": "nonpayable",
      "type": "function"
    },
    {
      "inputs": [],
      "name": "paused",
      "outputs": [
        {
          "internalType": "bool",
          "name": "",
          "type": "bool"
        }
      ],
      "stateMutability": "view",
      "type": "function"
    },
    {
      "inputs": [
        {
          "internalType": "enum IPaymaster.PostOpMode",
          "name": "mode",
          "type": "uint8"
        },
        {
          "internalType": "bytes",
          "name": "context",
          "type": "bytes"
        },
        {
          "internalType": "uint256",
          "name": "actualGasCost",
          "type": "uint256"
        }
      ],
      "name": "postOp",
      "outputs": [],
      "stateMutability": "nonpayable",
      "type": "function"
    },
    {
      "inputs": [
        {
          "internalType": "address",
          "name": "spender",
          "type": "address"
        }
      ],
      "name": "removeAuthorizedSpender",
      "outputs": [],
      "stateMutability": "nonpayable",
      "type": "function"
    },
    {
      "inputs": [
        {
          "internalType": "address",
          "name": "spender",
          "type": "address"
        },
        {
          "internalType": "uint256",
          "name": "limit",
          "type": "uint256"
        }
      ],
      "name": "setSpendingLimit",
      "outputs": [],
      "stateMutability": "nonpayable",
      "type": "function"
    },
    {
      "inputs": [
        {
          "internalType": "address",
          "name": "",
          "type": "address"
        }
      ],
      "name": "spendingLimits",
      "outputs": [
        {
          "internalType": "uint256",
          "name": "",
          "type": "uint256"
        }
      ],
      "stateMutability": "view",
      "type": "function"
    },
    {
      "inputs": [],
      "name": "totalDeposit",
      "outputs": [
        {
          "internalType": "uint256",
          "name": "",
          "type": "uint256"
        }
      ],
      "stateMutability": "view",
      "type": "function"
    },
    {
      "inputs": [],
      "name": "totalSpent",
      "outputs": [
        {
          "internalType": "uint256",
          "name": "",
          "type": "uint256"
        }
      ],
      "stateMutability": "view",
      "type": "function"
    },
    {
      "inputs": [
        {
          "internalType": "address",
          "name": "newOwner",
          "type": "address"
        }
      ],
      "name": "transferOwnership",
      "outputs": [],
      "stateMutability": "nonpayable",
      "type": "function"
    },
    {
      "inputs": [],
      "name": "unlockStake",
      "outputs": [],
      "stateMutability": "nonpayable",
      "type": "function"
    },
    {
      "inputs": [],
      "name": "unpause",
      "outputs": [],
      "stateMutability": "nonpayable",
      "type": "function"
    },
    {
      "inputs": [
        {
          "components": [
            {
              "internalType": "address",
              "name": "sender",
              "type": "address"
            },
            {
              "internalType": "uint256",
              "name": "nonce",
              "type": "uint256"
            },
            {
              "internalType": "bytes",
              "name": "initCode",
              "type": "bytes"
            },
            {
              "internalType": "bytes",
              "name": "callData",
              "type": "bytes"
            },
            {
              "internalType": "uint256",
              "name": "callGasLimit",
              "type": "uint256"
            },
            {
              "internalType": "uint256",
              "name": "verificationGasLimit",
              "type": "uint256"
            },
            {
              "internalType": "uint256",
              "name": "preVerificationGas",
              "type": "uint256"
            },
            {
              "internalType": "uint256",
              "name": "maxFeePerGas",
              "type": "uint256"
            },
            {
              "internalType": "uint256",
              "name": "maxPriorityFeePerGas",
              "type": "uint256"
            },
            {
              "internalType": "bytes",
              "name": "paymasterAndData",
              "type": "bytes"
            },
            {
              "internalType": "bytes",
              "name": "signature",
              "type": "bytes"
            }
          ],
          "internalType": "struct IUserOperation.UserOperation",
          "name": "userOp",
          "type": "tuple"
        },
        {
          "internalType": "bytes32",
          "name": "userOpHash",
          "type": "bytes32"
        },
        {
          "internalType": "uint256",
          "name": "maxCost",
          "type": "uint256"
        }
      ],
      "name": "validatePaymasterUserOp",
      "outputs": [
        {
          "internalType": "bytes",
          "name": "context",
          "type": "bytes"
        },
        {
          "internalType": "uint256",
          "name": "validationData",
          "type": "uint256"
        }
      ],
      "stateMutability": "nonpayable",
      "type": "function"
    },
    {
      "inputs": [
        {
          "internalType": "address payable",
          "name": "recipient",
          "type": "address"
        },
        {
          "internalType": "uint256",
          "name": "amount",
          "type": "uint256"
        }
      ],
      "name": "withdraw",
      "outputs": [],
      "stateMutability": "nonpayable",
      "type": "function"
    },
    {
      "inputs": [
        {
          "internalType": "address payable",
          "name": "recipient",
          "type": "address"
        }
      ],
      "name": "withdrawStake",
      "outputs": [],
      "stateMutability": "nonpayable",
      "type": "function"
    },
    {
      "stateMutability": "payable",
      "type": "receive"
    }
  ],
  "bytecode": "0x60a06040523480156200001157600080fd5b506040516200190738038062001907833981016040819052620000349162000084565b6001600160a01b03918216608052600080546001600160a01b031916919092161790556007805460ff19169055620000bc565b80516001600160a01b03811681146200007f57600080fd5b919050565b600080604083850312156200009857600080fd5b620000a38362000067565b9150620000b36020840162000067565b90509250929050565b6080516117f0620001176000396000818161033f0152818161057c015281816106b20152818161095b01528181610ad101528181610bd401528181610cdc01528181610ec001528181611125015261126a01526117f06000f3fe60806040526004361061016a5760003560e01c8063c23a5cea116100d1578063db2e21bc1161008a578063f465c77e11610064578063f465c77e14610497578063f6153ccd146104c5578063fb346eab146104db578063ffc8ada6146104f15761017f565b8063db2e21bc14610442578063f2fde38b14610457578063f3fef3a3146104775761017f565b8063c23a5cea14610376578063c399ec8814610396578063c59d4847146103ab578063c9a815bd146103ea578063d0e30db01461040a578063d2454e8d146104125761017f565b8063658c820a11610123578063658c820a146102935780638456cb59146102c05780638da5cb5b146102d5578063a9a234091461030d578063b0d691fe1461032d578063bb9fe6bf146103615761017f565b80630396cb60146101c1578063051ae65c146101d457806333b9baa5146101f45780633f4ba83a146102345780635551c62b146102495780635c975abb146102695761017f565b3661017f57341561017d5761017d61051e565b005b60405162461bcd60e51b8152602060048201526012602482015271119d5b98dd1a5bdb881b9bdd08199bdd5b9960721b60448201526064015b60405180910390fd5b61017d6101cf366004611535565b61066c565b3480156101e057600080fd5b5061017d6101ef366004611577565b6107a3565b34801561020057600080fd5b5061022161020f366004611577565b60046020526000908152604090205481565b6040519081526020015b60405180910390f35b34801561024057600080fd5b5061017d610816565b34801561025557600080fd5b5061017d610264366004611577565b610875565b34801561027557600080fd5b506007546102839060ff1681565b604051901515815260200161022b565b34801561029f57600080fd5b506102216102ae366004611577565b60026020526000908152604090205481565b3480156102cc57600080fd5b5061017d6108ee565b3480156102e157600080fd5b506000546102f5906001600160a01b031681565b6040516001600160a01b03909116815260200161022b565b34801561031957600080fd5b5061017d610328366004611594565b610950565b34801561033957600080fd5b506102f57f000000000000000000000000000000000000000000000000000000000000000081565b34801561036d57600080fd5b5061017d610a70565b34801561038257600080fd5b5061017d610391366004611577565b610b92565b3480156103a257600080fd5b50610221610cc2565b3480156103b757600080fd5b506103c0610db2565b6040805195865260208601949094529284019190915215156060830152608082015260a00161022b565b3480156103f657600080fd5b5061017d610405366004611623565b610de1565b61017d61051e565b34801561041e57600080fd5b5061028361042d366004611577565b60016020526000908152604090205460ff1681565b34801561044e57600080fd5b5061017d610e64565b34801561046357600080fd5b5061017d610472366004611577565b610fae565b34801561048357600080fd5b5061017d610492366004611623565b611044565b3480156104a357600080fd5b506104b76104b236600461164f565b61125b565b60405161022b9291906116c7565b3480156104d157600080fd5b5061022160055481565b3480156104e757600080fd5b5061022160065481565b3480156104fd57600080fd5b5061022161050c366004611577565b60036020526000908152604090205481565b600034116105665760405162461bcd60e51b815260206004820152601560248201527409aeae6e840c8cae0dee6d2e840e6dedaca408aa89605b1b60448201526064016101b8565b6040513060248201526000906001600160a01b037f00000000000000000000000000000000000000000000000000000000000000001690349060440160408051601f198184030181529181526020820180516001600160e01b031663b760faf960e01b179052516105d79190611702565b60006040518083038185875af1925050503d8060008114610614576040519150601f19603f3d011682016040523d82523d6000602084013e610619565b606091505b50509050346005600082825461062f919061171e565b909155505060405134815233907f8c62601349aea45c56ebe7a2ec7c24eb877c26b369547dad762528da3ecf2ce59060200160405180910390a250565b6000546001600160a01b031633146106965760405162461bcd60e51b81526004016101b890611745565b60405163ffffffff821660248201526000906001600160a01b037f00000000000000000000000000000000000000000000000000000000000000001690349060440160408051601f198184030181529181526020820180516001600160e01b0316621cb65b60e51b1790525161070c9190611702565b60006040518083038185875af1925050503d8060008114610749576040519150601f19603f3d011682016040523d82523d6000602084013e61074e565b606091505b505090508061079f5760405162461bcd60e51b815260206004820152601a60248201527f456e747279506f696e74206164645374616b65206661696c656400000000000060448201526064016101b8565b5050565b6000546001600160a01b031633146107cd5760405162461bcd60e51b81526004016101b890611745565b6001600160a01b038116600081815260016020526040808220805460ff19169055517f5fa6e567b5d56422d283d51faf98b71ccdf17a8884a80018febc8ed17af1bba69190a250565b6000546001600160a01b031633146108405760405162461bcd60e51b81526004016101b890611745565b6007805460ff191690556040517f389ea08723efcbea48925a5aff7dd8d867038fd7aa9225411f3e014f2d0fc66890600090a1565b6000546001600160a01b0316331461089f5760405162461bcd60e51b81526004016101b890611745565b6001600160a01b0381166000818152600160208190526040808320805460ff1916909217909155517f2c66df6f035615fe056471ae03212730212cf4ac367daa7043e457a8bda0c0079190a250565b6000546001600160a01b031633146109185760405162461bcd60e51b81526004016101b890611745565b6007805460ff191660011790556040517f98d07ecc7bbeddc2064952ad7088768474065ac6cb130b0ef0224ad7ff32fd4990600090a1565b336001600160a01b037f000000000000000000000000000000000000000000000000000000000000000016146109ba5760405162461bcd60e51b815260206004820152600f60248201526e13db9b1e48115b9d1c9e541bda5b9d608a1b60448201526064016101b8565b6000806109c984860186611623565b6001600160a01b0382166000908152600360205260408120805493955091935085926109f690849061171e565b925050819055508260066000828254610a0f919061171e565b90915550506040518381526001600160a01b038316907fbc6374b8782e4b5f076aa19aac969f5c33096827529385329b0abf98487594a79060200160405180910390a26002866002811115610a6657610a66611769565b5050505050505050565b6000546001600160a01b03163314610a9a5760405162461bcd60e51b81526004016101b890611745565b60408051600481526024810182526020810180516001600160e01b031663bb9fe6bf60e01b17905290516000916001600160a01b037f00000000000000000000000000000000000000000000000000000000000000001691610afc9190611702565b6000604051808303816000865af19150503d8060008114610b39576040519150601f19603f3d011682016040523d82523d6000602084013e610b3e565b606091505b5050905080610b8f5760405162461bcd60e51b815260206004820152601d60248201527f456e747279506f696e7420756e6c6f636b5374616b65206661696c656400000060448201526064016101b8565b50565b6000546001600160a01b03163314610bbc5760405162461bcd60e51b81526004016101b890611745565b6040516001600160a01b0382811660248301526000917f00000000000000000000000000000000000000000000000000000000000000009091169060440160408051601f198184030181529181526020820180516001600160e01b031663611d2e7560e11b17905251610c2f9190611702565b6000604051808303816000865af19150503d8060008114610c6c576040519150601f19603f3d011682016040523d82523d6000602084013e610c71565b606091505b505090508061079f5760405162461bcd60e51b815260206004820152601f60248201527f456e747279506f696e742077697468647261775374616b65206661696c65640060448201526064016101b8565b604051306024820152600090819081906001600160a01b037f0000000000000000000000000000000000000000000000000000000000000000169060440160408051601f198184030181529181526020820180516001600160e01b03166370a0823160e01b17905251610d359190611702565b600060405180830381855afa9150503d8060008114610d70576040519150601f19603f3d011682016040523d82523d6000602084013e610d75565b606091505b5091509150818015610d8957506020815110155b15610da95780806020019051810190610da2919061177f565b9250505090565b60009250505090565b6000806000806000610dc2610cc2565b6005546006546007549298919750955060ff9091169350600092509050565b6000546001600160a01b03163314610e0b5760405162461bcd60e51b81526004016101b890611745565b6001600160a01b03821660008181526002602052604090819020839055517fd93de6cb6a222110be7bd3a39523c688a6da5210fa2cfdba51091f8e29c3272890610e589084815260200190565b60405180910390a25050565b6000546001600160a01b03163314610e8e5760405162461bcd60e51b81526004016101b890611745565b6000610e98610cc2565b90508015610b8f57600080546040516001600160a01b039182166024820152604481018490527f00000000000000000000000000000000000000000000000000000000000000009091169060640160408051601f198184030181529181526020820180516001600160e01b031663040b850f60e31b17905251610f1b9190611702565b6000604051808303816000865af19150503d8060008114610f58576040519150601f19603f3d011682016040523d82523d6000602084013e610f5d565b606091505b505090508061079f5760405162461bcd60e51b815260206004820152601960248201527f456d657267656e6379207769746864726177206661696c65640000000000000060448201526064016101b8565b6000546001600160a01b03163314610fd85760405162461bcd60e51b81526004016101b890611745565b6001600160a01b0381166110225760405162461bcd60e51b815260206004820152601160248201527024b73b30b634b2103732bb9037bbb732b960791b60448201526064016101b8565b600080546001600160a01b0319166001600160a01b0392909216919091179055565b6000546001600160a01b0316331461106e5760405162461bcd60e51b81526004016101b890611745565b6001600160a01b0382166110b85760405162461bcd60e51b8152602060048201526011602482015270125b9d985b1a59081c9958da5c1a595b9d607a1b60448201526064016101b8565b6110c0610cc2565b8111156111065760405162461bcd60e51b8152602060048201526014602482015273496e73756666696369656e742062616c616e636560601b60448201526064016101b8565b6040516001600160a01b038381166024830152604482018390526000917f00000000000000000000000000000000000000000000000000000000000000009091169060640160408051601f198184030181529181526020820180516001600160e01b031663040b850f60e31b179052516111809190611702565b6000604051808303816000865af19150503d80600081146111bd576040519150601f19603f3d011682016040523d82523d6000602084013e6111c2565b606091505b50509050806112135760405162461bcd60e51b815260206004820152601a60248201527f456e747279506f696e74207769746864726177206661696c656400000000000060448201526064016101b8565b826001600160a01b03167f854de573a1456395567bf68c464842a3fdbba4a80cf1d4a1e22bf9cd3ac0c0148360405161124e91815260200190565b60405180910390a2505050565b60606000336001600160a01b037f000000000000000000000000000000000000000000000000000000000000000016146112c95760405162461bcd60e51b815260206004820152600f60248201526e13db9b1e48115b9d1c9e541bda5b9d608a1b60448201526064016101b8565b60075460ff16156113125760405162461bcd60e51b815260206004820152601360248201527214185e5b585cdd195c881a5cc81c185d5cd959606a1b60448201526064016101b8565b8261131b610cc2565b10156113605760405162461bcd60e51b8152602060048201526014602482015273125b9cdd59999a58da595b9d0819195c1bdcda5d60621b60448201526064016101b8565b600061136f6020870187611577565b6001600160a01b0381166000908152600160205260408120549192509060ff16806113c457506000805260016020527fa6eef7e35abe7026729641147f7915573c7e97b47efa546f5f6e3230263bcb495460ff165b90508061140b5760405162461bcd60e51b815260206004820152601560248201527414d95b99195c881b9bdd08185d5d1a1bdc9a5e9959605a1b60448201526064016101b8565b600061141a6201518042611798565b6001600160a01b038416600090815260046020526040902054909150811115611466576001600160a01b0383166000908152600360209081526040808320839055600490915290208190555b6001600160a01b03831660009081526002602052604090205480156114f9576001600160a01b03841660009081526003602052604090205481906114ab90899061171e565b11156114f95760405162461bcd60e51b815260206004820152601d60248201527f4461696c79207370656e64696e67206c696d697420657863656564656400000060448201526064016101b8565b604080516001600160a01b038616602082015290810188905260600160408051601f198184030181529190529960009950975050505050505050565b60006020828403121561154757600080fd5b813563ffffffff8116811461155b57600080fd5b9392505050565b6001600160a01b0381168114610b8f57600080fd5b60006020828403121561158957600080fd5b813561155b81611562565b600080600080606085870312156115aa57600080fd5b8435600381106115b957600080fd5b9350602085013567ffffffffffffffff808211156115d657600080fd5b818701915087601f8301126115ea57600080fd5b8135818111156115f957600080fd5b88602082850101111561160b57600080fd5b95986020929092019750949560400135945092505050565b6000806040838503121561163657600080fd5b823561164181611562565b946020939093013593505050565b60008060006060848603121561166457600080fd5b833567ffffffffffffffff81111561167b57600080fd5b8401610160818703121561168e57600080fd5b95602085013595506040909401359392505050565b60005b838110156116be5781810151838201526020016116a6565b50506000910152565b60408152600083518060408401526116e68160608501602088016116a3565b602083019390935250601f91909101601f191601606001919050565b600082516117148184602087016116a3565b9190910192915050565b8082018082111561173f57634e487b7160e01b600052601160045260246000fd5b92915050565b6020808252600a908201526927b7363c9037bbb732b960b11b604082015260600190565b634e487b7160e01b600052602160045260246000fd5b60006020828403121561179157600080fd5b5051919050565b6000826117b557634e487b7160e01b600052601260045260246000fd5b50049056fea264697066735822122043ef953f6cfc98ad3d7e9a0e0112da014489309deb1b4ce28e493d136dc1246e64736f6c63430008140033",
  "linkReferences": {},
  "deployedLinkReferences": {}
}